{
  "contractName": "Multiownable",
  "abi": [
    {
      "constant": true,
      "inputs": [
        {
          "name": "",
          "type": "uint256"
        }
      ],
      "name": "owners",
      "outputs": [
        {
          "name": "",
          "type": "address"
        }
      ],
      "payable": false,
      "stateMutability": "view",
      "type": "function"
    },
    {
      "constant": false,
      "inputs": [
        {
          "name": "newOwners",
          "type": "address[]"
        }
      ],
      "name": "transferOwnership",
      "outputs": [],
      "payable": false,
      "stateMutability": "nonpayable",
      "type": "function"
    },
    {
      "constant": true,
      "inputs": [],
      "name": "allOperationsCount",
      "outputs": [
        {
          "name": "",
          "type": "uint256"
        }
      ],
      "payable": false,
      "stateMutability": "view",
      "type": "function"
    },
    {
      "constant": true,
      "inputs": [],
      "name": "howManyOwnersDecide",
      "outputs": [
        {
          "name": "",
          "type": "uint256"
        }
      ],
      "payable": false,
      "stateMutability": "view",
      "type": "function"
    },
    {
      "constant": true,
      "inputs": [
        {
          "name": "wallet",
          "type": "address"
        }
      ],
      "name": "isOwner",
      "outputs": [
        {
          "name": "",
          "type": "bool"
        }
      ],
      "payable": false,
      "stateMutability": "view",
      "type": "function"
    },
    {
      "constant": true,
      "inputs": [
        {
          "name": "",
          "type": "uint256"
        }
      ],
      "name": "allOperations",
      "outputs": [
        {
          "name": "",
          "type": "bytes32"
        }
      ],
      "payable": false,
      "stateMutability": "view",
      "type": "function"
    },
    {
      "constant": true,
      "inputs": [
        {
          "name": "",
          "type": "bytes32"
        }
      ],
      "name": "votesMaskByOperation",
      "outputs": [
        {
          "name": "",
          "type": "uint256"
        }
      ],
      "payable": false,
      "stateMutability": "view",
      "type": "function"
    },
    {
      "constant": false,
      "inputs": [
        {
          "name": "operation",
          "type": "bytes32"
        }
      ],
      "name": "cancelPending",
      "outputs": [],
      "payable": false,
      "stateMutability": "nonpayable",
      "type": "function"
    },
    {
      "constant": true,
      "inputs": [
        {
          "name": "",
          "type": "bytes32"
        }
      ],
      "name": "votesCountByOperation",
      "outputs": [
        {
          "name": "",
          "type": "uint256"
        }
      ],
      "payable": false,
      "stateMutability": "view",
      "type": "function"
    },
    {
      "constant": true,
      "inputs": [],
      "name": "ownersGeneration",
      "outputs": [
        {
          "name": "",
          "type": "uint256"
        }
      ],
      "payable": false,
      "stateMutability": "view",
      "type": "function"
    },
    {
      "constant": true,
      "inputs": [],
      "name": "ownersCount",
      "outputs": [
        {
          "name": "",
          "type": "uint256"
        }
      ],
      "payable": false,
      "stateMutability": "view",
      "type": "function"
    },
    {
      "constant": false,
      "inputs": [
        {
          "name": "newOwners",
          "type": "address[]"
        },
        {
          "name": "newHowManyOwnersDecide",
          "type": "uint256"
        }
      ],
      "name": "transferOwnershipWithHowMany",
      "outputs": [],
      "payable": false,
      "stateMutability": "nonpayable",
      "type": "function"
    },
    {
      "inputs": [],
      "payable": false,
      "stateMutability": "nonpayable",
      "type": "constructor"
    },
    {
      "anonymous": false,
      "inputs": [
        {
          "indexed": false,
          "name": "previousOwners",
          "type": "address[]"
        },
        {
          "indexed": false,
          "name": "newOwners",
          "type": "address[]"
        }
      ],
      "name": "OwnershipTransferred",
      "type": "event"
    }
  ],
  "bytecode": "0x6060604052341561000f57600080fd5b6002805480600101828161002391906100c3565b9160005260206000209001600033909190916101000a81548173ffffffffffffffffffffffffffffffffffffffff021916908373ffffffffffffffffffffffffffffffffffffffff160217905550506001600560003373ffffffffffffffffffffffffffffffffffffffff1673ffffffffffffffffffffffffffffffffffffffff1681526020019081526020016000208190555060018081905550610114565b8154818355818115116100ea578183600052602060002091820191016100e991906100ef565b5b505050565b61011191905b8082111561010d5760008160009055506001016100f5565b5090565b90565b6111ca806101236000396000f3006060604052600436106100ba576000357c0100000000000000000000000000000000000000000000000000000000900463ffffffff168063025e7c27146100bf57806318bcd3d01461012257806322f2f89a1461017c5780632f4a81df146101a55780632f54bf6e146101ce578063431ab2331461021f578063568b59151461025e578063893372ca1461029957806390a53085146102c0578063b25bb3a7146102fb578063b948854614610324578063e85183411461034d575b600080fd5b34156100ca57600080fd5b6100e060048080359060200190919050506103b0565b604051808273ffffffffffffffffffffffffffffffffffffffff1673ffffffffffffffffffffffffffffffffffffffff16815260200191505060405180910390f35b341561012d57600080fd5b61017a6004808035906020019082018035906020019080806020026020016040519081016040528093929190818152602001838360200280828437820191505050505050919050506103ef565b005b341561018757600080fd5b61018f6103fd565b6040518082815260200191505060405180910390f35b34156101b057600080fd5b6101b861040a565b6040518082815260200191505060405180910390f35b34156101d957600080fd5b610205600480803573ffffffffffffffffffffffffffffffffffffffff16906020019091905050610410565b604051808215151515815260200191505060405180910390f35b341561022a57600080fd5b610240600480803590602001909190505061045b565b60405180826000191660001916815260200191505060405180910390f35b341561026957600080fd5b61028360048080356000191690602001909190505061047f565b6040518082815260200191505060405180910390f35b34156102a457600080fd5b6102be600480803560001916906020019091905050610497565b005b34156102cb57600080fd5b6102e56004808035600019169060200190919050506105ad565b6040518082815260200191505060405180910390f35b341561030657600080fd5b61030e6105c5565b6040518082815260200191505060405180910390f35b341561032f57600080fd5b6103376105cb565b6040518082815260200191505060405180910390f35b341561035857600080fd5b6103ae6004808035906020019082018035906020019080806020026020016040519081016040528093929190818152602001838360200280828437820191505050505050919080359060200190919050506105d8565b005b6002818154811015156103bf57fe5b90600052602060002090016000915054906101000a900473ffffffffffffffffffffffffffffffffffffffff1681565b6103fa8182516105d8565b50565b6000600380549050905090565b60015481565b600080600560008473ffffffffffffffffffffffffffffffffffffffff1673ffffffffffffffffffffffffffffffffffffffff16815260200190815260200160002054119050919050565b60038181548110151561046a57fe5b90600052602060002090016000915090505481565b60076020528060005260406000206000915090505481565b60006104a233610410565b15156104ad57600080fd5b6001600560003373ffffffffffffffffffffffffffffffffffffffff1673ffffffffffffffffffffffffffffffffffffffff1681526020019081526020016000205403905060008160020a60076000856000191660001916815260200190815260200160002054161415151561052257600080fd5b8060020a1960076000846000191660001916815260200190815260200160002060008282541692505081905550600860008360001916600019168152602001908152602001600020600081548092919060019003919050555060006008600084600019166000191681526020019081526020016000205414156105a9576105a882610f2d565b5b5050565b60086020528060005260406000206000915090505481565b60005481565b6000600280549050905090565b60008060003373ffffffffffffffffffffffffffffffffffffffff16600460009054906101000a900473ffffffffffffffffffffffffffffffffffffffff1673ffffffffffffffffffffffffffffffffffffffff161415610995576000855111151561064357600080fd5b61010085511115151561065557600080fd5b60008411151561066457600080fd5b8451841115151561067457600080fd5b600092505b84518310156106e257600073ffffffffffffffffffffffffffffffffffffffff1685848151811015156106a857fe5b9060200190602002015173ffffffffffffffffffffffffffffffffffffffff16141515156106d557600080fd5b8280600101935050610679565b7fe62c04bb3499d4f432a50e07318d42861c4865afb22ee4cfe403d4f945507090600286604051808060200180602001838103835285818154815260200191508054801561078557602002820191906000526020600020905b8160009054906101000a900473ffffffffffffffffffffffffffffffffffffffff1673ffffffffffffffffffffffffffffffffffffffff168152602001906001019080831161073b575b5050838103825284818151815260200191508051906020019060200280838360005b838110156107c25780820151818401526020810190506107a7565b5050505090500194505050505060405180910390a1600092505b60028054905083101561087357600560006002858154811015156107fc57fe5b906000526020600020900160009054906101000a900473ffffffffffffffffffffffffffffffffffffffff1673ffffffffffffffffffffffffffffffffffffffff1673ffffffffffffffffffffffffffffffffffffffff1681526020019081526020016000206000905582806001019350506107dc565b600092505b845183101561095157600060056000878681518110151561089557fe5b9060200190602002015173ffffffffffffffffffffffffffffffffffffffff1673ffffffffffffffffffffffffffffffffffffffff168152602001908152602001600020541415156108e657600080fd5b600183016005600087868151811015156108fc57fe5b9060200190602002015173ffffffffffffffffffffffffffffffffffffffff1673ffffffffffffffffffffffffffffffffffffffff168152602001908152602001600020819055508280600101935050610878565b8460029080519060200190610967929190611054565b5083600181905550600060038161097e91906110de565b506000808154809291906001019190505550610f26565b61099e33610410565b15156109a957600080fd5b6001600560003373ffffffffffffffffffffffffffffffffffffffff1673ffffffffffffffffffffffffffffffffffffffff168152602001908152602001600020540391506000366000546040518084848082843782019150508281526020019350505050604051809103902090506000600760008360001916600019168152602001908152602001600020541415610a91576003805490506006600083600019166000191681526020019081526020016000208190555060038054806001018281610a75919061110a565b9160005260206000209001600083909190915090600019169055505b60008260020a6007600084600019166000191681526020019081526020016000205416141515610ac057600080fd5b8160020a60076000836000191660001916815260200190815260200160002060008282541792505081905550600160086000836000191660001916815260200190815260200160002060008282540192505081905550600154600860008360001916600019168152602001908152602001600020541415610f2557610b4481610f2d565b33600460006101000a81548173ffffffffffffffffffffffffffffffffffffffff021916908373ffffffffffffffffffffffffffffffffffffffff16021790555060008551111515610b9557600080fd5b610100855111151515610ba757600080fd5b600084111515610bb657600080fd5b84518411151515610bc657600080fd5b600092505b8451831015610c3457600073ffffffffffffffffffffffffffffffffffffffff168584815181101515610bfa57fe5b9060200190602002015173ffffffffffffffffffffffffffffffffffffffff1614151515610c2757600080fd5b8280600101935050610bcb565b7fe62c04bb3499d4f432a50e07318d42861c4865afb22ee4cfe403d4f9455070906002866040518080602001806020018381038352858181548152602001915080548015610cd757602002820191906000526020600020905b8160009054906101000a900473ffffffffffffffffffffffffffffffffffffffff1673ffffffffffffffffffffffffffffffffffffffff1681526020019060010190808311610c8d575b5050838103825284818151815260200191508051906020019060200280838360005b83811015610d14578082015181840152602081019050610cf9565b5050505090500194505050505060405180910390a1600092505b600280549050831015610dc55760056000600285815481101515610d4e57fe5b906000526020600020900160009054906101000a900473ffffffffffffffffffffffffffffffffffffffff1673ffffffffffffffffffffffffffffffffffffffff1673ffffffffffffffffffffffffffffffffffffffff168152602001908152602001600020600090558280600101935050610d2e565b600092505b8451831015610ea3576000600560008786815181101515610de757fe5b9060200190602002015173ffffffffffffffffffffffffffffffffffffffff1673ffffffffffffffffffffffffffffffffffffffff16815260200190815260200160002054141515610e3857600080fd5b60018301600560008786815181101515610e4e57fe5b9060200190602002015173ffffffffffffffffffffffffffffffffffffffff1673ffffffffffffffffffffffffffffffffffffffff168152602001908152602001600020819055508280600101935050610dca565b8460029080519060200190610eb9929190611054565b50836001819055506000600381610ed091906110de565b5060008081548092919060010191905055506000600460006101000a81548173ffffffffffffffffffffffffffffffffffffffff021916908373ffffffffffffffffffffffffffffffffffffffff1602179055505b5b5050505050565b6000600660008360001916600019168152602001908152602001600020549050600160038054905003811015610fdd576003600160038054905003815481101515610f7457fe5b906000526020600020900154600382815481101515610f8f57fe5b906000526020600020900181600019169055508060066000600384815481101515610fb657fe5b90600052602060002090015460001916600019168152602001908152602001600020819055505b6003805480919060019003610ff291906110de565b506007600083600019166000191681526020019081526020016000206000905560086000836000191660001916815260200190815260200160002060009055600660008360001916600019168152602001908152602001600020600090555050565b8280548282559060005260206000209081019282156110cd579160200282015b828111156110cc5782518260006101000a81548173ffffffffffffffffffffffffffffffffffffffff021916908373ffffffffffffffffffffffffffffffffffffffff16021790555091602001919060010190611074565b5b5090506110da9190611136565b5090565b815481835581811511611105578183600052602060002091820191016111049190611179565b5b505050565b815481835581811511611131578183600052602060002091820191016111309190611179565b5b505050565b61117691905b8082111561117257600081816101000a81549073ffffffffffffffffffffffffffffffffffffffff02191690555060010161113c565b5090565b90565b61119b91905b8082111561119757600081600090555060010161117f565b5090565b905600a165627a7a72305820d7d1bffcb53fe32cf9dc668f40df4392cd21e45209711ca7b22d252f4a969b240029",
  "source": "pragma solidity 0.4.18;\n\n\ncontract Multiownable {\n\n    // VARIABLES\n\n    uint256 public ownersGeneration;\n    uint256 public howManyOwnersDecide;\n    address[] public owners;\n    bytes32[] public allOperations;\n    address internal insideOnlyManyOwners;\n\n    // Reverse lookup tables for owners and allOperations\n    mapping(address => uint) ownersIndices; // Starts from 1\n    mapping(bytes32 => uint) allOperationsIndicies;\n\n    // Owners voting mask per operations\n    mapping(bytes32 => uint256) public votesMaskByOperation;\n    mapping(bytes32 => uint256) public votesCountByOperation;\n\n    // EVENTS\n\n    event OwnershipTransferred(address[] previousOwners, address[] newOwners);\n\n    // ACCESSORS\n\n    function isOwner(address wallet) public constant returns(bool) {\n        return ownersIndices[wallet] > 0;\n    }\n\n    function ownersCount() public constant returns(uint) {\n        return owners.length;\n    }\n\n    function allOperationsCount() public constant returns(uint) {\n        return allOperations.length;\n    }\n\n    // MODIFIERS\n\n    /**\n    * @dev Allows to perform method by any of the owners\n    */\n    modifier onlyAnyOwner {\n        require(isOwner(msg.sender));\n        _;\n    }\n\n    /**\n    * @dev Allows to perform method only after all owners call it with the same arguments\n    */\n    modifier onlyManyOwners {\n        if (insideOnlyManyOwners == msg.sender) {\n            _;\n            return;\n        }\n        require(isOwner(msg.sender));\n\n        uint ownerIndex = ownersIndices[msg.sender] - 1;\n        bytes32 operation = keccak256(msg.data, ownersGeneration);\n\n        if (votesMaskByOperation[operation] == 0) {\n            allOperationsIndicies[operation] = allOperations.length;\n            allOperations.push(operation);\n        }\n        require((votesMaskByOperation[operation] & (2 ** ownerIndex)) == 0);\n        votesMaskByOperation[operation] |= (2 ** ownerIndex);\n        votesCountByOperation[operation] += 1;\n\n        // If all owners confirm same operation\n        if (votesCountByOperation[operation] == howManyOwnersDecide) {\n            deleteOperation(operation);\n            insideOnlyManyOwners = msg.sender;\n            _;\n            insideOnlyManyOwners = address(0);\n        }\n    }\n\n    // CONSTRUCTOR\n\n    function Multiownable() public {\n        owners.push(msg.sender);\n        ownersIndices[msg.sender] = 1;\n        howManyOwnersDecide = 1;\n    }\n\n    // INTERNAL METHODS\n\n    /**\n    * @dev Used to delete cancelled or performed operation\n    * @param operation defines which operation to delete\n    */\n    function deleteOperation(bytes32 operation) internal {\n        uint index = allOperationsIndicies[operation];\n        if (index < allOperations.length - 1) {\n            allOperations[index] = allOperations[allOperations.length - 1];\n            allOperationsIndicies[allOperations[index]] = index;\n        }\n        allOperations.length--;\n\n        delete votesMaskByOperation[operation];\n        delete votesCountByOperation[operation];\n        delete allOperationsIndicies[operation];\n    }\n\n    // PUBLIC METHODS\n\n    /**\n    * @dev Allows owners to change their mind by cacnelling votesMaskByOperation operations\n    * @param operation defines which operation to delete\n    */\n    function cancelPending(bytes32 operation) public onlyAnyOwner {\n        uint ownerIndex = ownersIndices[msg.sender] - 1;\n        require((votesMaskByOperation[operation] & (2 ** ownerIndex)) != 0);\n\n        votesMaskByOperation[operation] &= ~(2 ** ownerIndex);\n        votesCountByOperation[operation]--;\n        if (votesCountByOperation[operation] == 0) {\n            deleteOperation(operation);\n        }\n    }\n\n    /**\n    * @dev Allows owners to change ownership\n    * @param newOwners defines array of addresses of new owners\n    */\n    function transferOwnership(address[] newOwners) public {\n        transferOwnershipWithHowMany(newOwners, newOwners.length);\n    }\n\n    /**\n    * @dev Allows owners to change ownership\n    * @param newOwners defines array of addresses of new owners\n    * @param newHowManyOwnersDecide defines how many owners can decide\n    */\n    function transferOwnershipWithHowMany(address[] newOwners, uint256 newHowManyOwnersDecide) public onlyManyOwners {\n        require(newOwners.length > 0);\n        require(newOwners.length <= 256);\n        require(newHowManyOwnersDecide > 0);\n        require(newHowManyOwnersDecide <= newOwners.length);\n        for (uint i = 0; i < newOwners.length; i++) {\n            require(newOwners[i] != address(0));\n        }\n\n        OwnershipTransferred(owners, newOwners);\n\n        // Reset owners array and index reverse lookup table\n        for (i = 0; i < owners.length; i++) {\n            delete ownersIndices[owners[i]];\n        }\n        for (i = 0; i < newOwners.length; i++) {\n            require(ownersIndices[newOwners[i]] == 0);\n            ownersIndices[newOwners[i]] = i + 1;\n        }\n        owners = newOwners;\n        howManyOwnersDecide = newHowManyOwnersDecide;\n        allOperations.length = 0;\n        ownersGeneration++;\n    }\n\n}",
  "sourcePath": "/home/dzentota/www/swether/contracts/Multiownable.sol",
  "compiler": {
    "name": "solc",
    "version": "0.4.18+commit.9cf6e910.Emscripten.clang"
  },
  "schemaVersion": "1.0.1",
  "updatedAt": "2018-04-21T21:35:50.287Z"
}