{
  "contractName": "Swether",
  "abi": [
    {
      "constant": true,
      "inputs": [
        {
          "name": "",
          "type": "uint256"
        }
      ],
      "name": "owners",
      "outputs": [
        {
          "name": "",
          "type": "address"
        }
      ],
      "payable": false,
      "stateMutability": "view",
      "type": "function"
    },
    {
      "constant": false,
      "inputs": [
        {
          "name": "_signerAddress",
          "type": "address"
        }
      ],
      "name": "setSignerAddress",
      "outputs": [],
      "payable": false,
      "stateMutability": "nonpayable",
      "type": "function"
    },
    {
      "constant": false,
      "inputs": [
        {
          "name": "newOwners",
          "type": "address[]"
        }
      ],
      "name": "transferOwnership",
      "outputs": [],
      "payable": false,
      "stateMutability": "nonpayable",
      "type": "function"
    },
    {
      "constant": true,
      "inputs": [],
      "name": "allOperationsCount",
      "outputs": [
        {
          "name": "",
          "type": "uint256"
        }
      ],
      "payable": false,
      "stateMutability": "view",
      "type": "function"
    },
    {
      "constant": false,
      "inputs": [
        {
          "name": "_channel",
          "type": "address"
        }
      ],
      "name": "pauseChannel",
      "outputs": [],
      "payable": false,
      "stateMutability": "nonpayable",
      "type": "function"
    },
    {
      "constant": true,
      "inputs": [],
      "name": "howManyOwnersDecide",
      "outputs": [
        {
          "name": "",
          "type": "uint256"
        }
      ],
      "payable": false,
      "stateMutability": "view",
      "type": "function"
    },
    {
      "constant": true,
      "inputs": [
        {
          "name": "wallet",
          "type": "address"
        }
      ],
      "name": "isOwner",
      "outputs": [
        {
          "name": "",
          "type": "bool"
        }
      ],
      "payable": false,
      "stateMutability": "view",
      "type": "function"
    },
    {
      "constant": true,
      "inputs": [
        {
          "name": "",
          "type": "uint256"
        }
      ],
      "name": "validators",
      "outputs": [
        {
          "name": "",
          "type": "address"
        }
      ],
      "payable": false,
      "stateMutability": "view",
      "type": "function"
    },
    {
      "constant": false,
      "inputs": [
        {
          "name": "_id",
          "type": "string"
        },
        {
          "name": "_value",
          "type": "uint256"
        },
        {
          "name": "_channel",
          "type": "address"
        },
        {
          "name": "v",
          "type": "uint8"
        },
        {
          "name": "r",
          "type": "bytes32"
        },
        {
          "name": "s",
          "type": "bytes32"
        }
      ],
      "name": "claimExchange",
      "outputs": [],
      "payable": false,
      "stateMutability": "nonpayable",
      "type": "function"
    },
    {
      "constant": true,
      "inputs": [],
      "name": "howManyValidatorsDecide",
      "outputs": [
        {
          "name": "",
          "type": "uint256"
        }
      ],
      "payable": false,
      "stateMutability": "view",
      "type": "function"
    },
    {
      "constant": false,
      "inputs": [],
      "name": "unpause",
      "outputs": [],
      "payable": false,
      "stateMutability": "nonpayable",
      "type": "function"
    },
    {
      "constant": true,
      "inputs": [
        {
          "name": "",
          "type": "uint256"
        }
      ],
      "name": "allOperations",
      "outputs": [
        {
          "name": "",
          "type": "bytes32"
        }
      ],
      "payable": false,
      "stateMutability": "view",
      "type": "function"
    },
    {
      "constant": true,
      "inputs": [
        {
          "name": "",
          "type": "bytes32"
        }
      ],
      "name": "votesMaskByOperation",
      "outputs": [
        {
          "name": "",
          "type": "uint256"
        }
      ],
      "payable": false,
      "stateMutability": "view",
      "type": "function"
    },
    {
      "constant": false,
      "inputs": [
        {
          "name": "newValidators",
          "type": "address[]"
        }
      ],
      "name": "transferValidatorRights",
      "outputs": [],
      "payable": false,
      "stateMutability": "nonpayable",
      "type": "function"
    },
    {
      "constant": true,
      "inputs": [],
      "name": "signPrefix",
      "outputs": [
        {
          "name": "",
          "type": "string"
        }
      ],
      "payable": false,
      "stateMutability": "view",
      "type": "function"
    },
    {
      "constant": true,
      "inputs": [],
      "name": "signerAddress",
      "outputs": [
        {
          "name": "",
          "type": "address"
        }
      ],
      "payable": false,
      "stateMutability": "view",
      "type": "function"
    },
    {
      "constant": true,
      "inputs": [
        {
          "name": "",
          "type": "address"
        }
      ],
      "name": "pausedChannels",
      "outputs": [
        {
          "name": "",
          "type": "bool"
        }
      ],
      "payable": false,
      "stateMutability": "view",
      "type": "function"
    },
    {
      "constant": true,
      "inputs": [],
      "name": "paused",
      "outputs": [
        {
          "name": "",
          "type": "bool"
        }
      ],
      "payable": false,
      "stateMutability": "view",
      "type": "function"
    },
    {
      "constant": true,
      "inputs": [
        {
          "name": "_id",
          "type": "string"
        }
      ],
      "name": "isVoucherUsed",
      "outputs": [
        {
          "name": "",
          "type": "bool"
        }
      ],
      "payable": false,
      "stateMutability": "view",
      "type": "function"
    },
    {
      "constant": true,
      "inputs": [],
      "name": "validatorsGeneration",
      "outputs": [
        {
          "name": "",
          "type": "uint256"
        }
      ],
      "payable": false,
      "stateMutability": "view",
      "type": "function"
    },
    {
      "constant": false,
      "inputs": [
        {
          "name": "newValidators",
          "type": "address[]"
        },
        {
          "name": "newHowManyValidatorsDecide",
          "type": "uint256"
        }
      ],
      "name": "transferValidatorRightsWithHowMany",
      "outputs": [],
      "payable": false,
      "stateMutability": "nonpayable",
      "type": "function"
    },
    {
      "constant": true,
      "inputs": [
        {
          "name": "",
          "type": "bytes32"
        }
      ],
      "name": "votesCountByValidatorOperation",
      "outputs": [
        {
          "name": "",
          "type": "uint256"
        }
      ],
      "payable": false,
      "stateMutability": "view",
      "type": "function"
    },
    {
      "constant": true,
      "inputs": [],
      "name": "allValidatorsOperationsCount",
      "outputs": [
        {
          "name": "",
          "type": "uint256"
        }
      ],
      "payable": false,
      "stateMutability": "view",
      "type": "function"
    },
    {
      "constant": false,
      "inputs": [],
      "name": "pause",
      "outputs": [],
      "payable": false,
      "stateMutability": "nonpayable",
      "type": "function"
    },
    {
      "constant": false,
      "inputs": [
        {
          "name": "_channel",
          "type": "address"
        }
      ],
      "name": "unpauseChannel",
      "outputs": [],
      "payable": false,
      "stateMutability": "nonpayable",
      "type": "function"
    },
    {
      "constant": false,
      "inputs": [
        {
          "name": "operation",
          "type": "bytes32"
        }
      ],
      "name": "cancelPending",
      "outputs": [],
      "payable": false,
      "stateMutability": "nonpayable",
      "type": "function"
    },
    {
      "constant": true,
      "inputs": [
        {
          "name": "",
          "type": "uint256"
        }
      ],
      "name": "allValidatorsOperations",
      "outputs": [
        {
          "name": "",
          "type": "bytes32"
        }
      ],
      "payable": false,
      "stateMutability": "view",
      "type": "function"
    },
    {
      "constant": true,
      "inputs": [
        {
          "name": "",
          "type": "bytes32"
        }
      ],
      "name": "votesCountByOperation",
      "outputs": [
        {
          "name": "",
          "type": "uint256"
        }
      ],
      "payable": false,
      "stateMutability": "view",
      "type": "function"
    },
    {
      "constant": false,
      "inputs": [
        {
          "name": "_id",
          "type": "string"
        },
        {
          "name": "_value",
          "type": "uint256"
        },
        {
          "name": "_channel",
          "type": "address"
        },
        {
          "name": "v",
          "type": "uint8"
        },
        {
          "name": "r",
          "type": "bytes32"
        },
        {
          "name": "s",
          "type": "bytes32"
        }
      ],
      "name": "withdraw",
      "outputs": [],
      "payable": false,
      "stateMutability": "nonpayable",
      "type": "function"
    },
    {
      "constant": true,
      "inputs": [
        {
          "name": "_id",
          "type": "string"
        },
        {
          "name": "_value",
          "type": "uint256"
        },
        {
          "name": "_channel",
          "type": "address"
        }
      ],
      "name": "prefixedParamsHash",
      "outputs": [
        {
          "name": "",
          "type": "bytes32"
        }
      ],
      "payable": false,
      "stateMutability": "view",
      "type": "function"
    },
    {
      "constant": true,
      "inputs": [
        {
          "name": "",
          "type": "bytes32"
        }
      ],
      "name": "votesMaskByValidatorOperation",
      "outputs": [
        {
          "name": "",
          "type": "uint256"
        }
      ],
      "payable": false,
      "stateMutability": "view",
      "type": "function"
    },
    {
      "constant": true,
      "inputs": [],
      "name": "ownersGeneration",
      "outputs": [
        {
          "name": "",
          "type": "uint256"
        }
      ],
      "payable": false,
      "stateMutability": "view",
      "type": "function"
    },
    {
      "constant": true,
      "inputs": [],
      "name": "ownersCount",
      "outputs": [
        {
          "name": "",
          "type": "uint256"
        }
      ],
      "payable": false,
      "stateMutability": "view",
      "type": "function"
    },
    {
      "constant": true,
      "inputs": [],
      "name": "MAX_FEE",
      "outputs": [
        {
          "name": "",
          "type": "uint8"
        }
      ],
      "payable": false,
      "stateMutability": "view",
      "type": "function"
    },
    {
      "constant": false,
      "inputs": [
        {
          "name": "_fee",
          "type": "uint8"
        }
      ],
      "name": "setFee",
      "outputs": [],
      "payable": false,
      "stateMutability": "nonpayable",
      "type": "function"
    },
    {
      "constant": true,
      "inputs": [
        {
          "name": "signerAddress",
          "type": "address"
        },
        {
          "name": "_id",
          "type": "string"
        },
        {
          "name": "_value",
          "type": "uint256"
        },
        {
          "name": "_channel",
          "type": "address"
        },
        {
          "name": "v",
          "type": "uint8"
        },
        {
          "name": "r",
          "type": "bytes32"
        },
        {
          "name": "s",
          "type": "bytes32"
        }
      ],
      "name": "isVoucherSigner",
      "outputs": [
        {
          "name": "",
          "type": "bool"
        }
      ],
      "payable": false,
      "stateMutability": "view",
      "type": "function"
    },
    {
      "constant": true,
      "inputs": [
        {
          "name": "_id",
          "type": "string"
        }
      ],
      "name": "getKey",
      "outputs": [
        {
          "name": "data",
          "type": "bytes32"
        }
      ],
      "payable": false,
      "stateMutability": "pure",
      "type": "function"
    },
    {
      "constant": false,
      "inputs": [],
      "name": "contribute",
      "outputs": [],
      "payable": true,
      "stateMutability": "payable",
      "type": "function"
    },
    {
      "constant": true,
      "inputs": [],
      "name": "fee",
      "outputs": [
        {
          "name": "",
          "type": "uint8"
        }
      ],
      "payable": false,
      "stateMutability": "view",
      "type": "function"
    },
    {
      "constant": false,
      "inputs": [
        {
          "name": "newOwners",
          "type": "address[]"
        },
        {
          "name": "newHowManyOwnersDecide",
          "type": "uint256"
        }
      ],
      "name": "transferOwnershipWithHowMany",
      "outputs": [],
      "payable": false,
      "stateMutability": "nonpayable",
      "type": "function"
    },
    {
      "constant": true,
      "inputs": [
        {
          "name": "_id",
          "type": "string"
        },
        {
          "name": "_value",
          "type": "uint256"
        },
        {
          "name": "_channel",
          "type": "address"
        },
        {
          "name": "v",
          "type": "uint8"
        },
        {
          "name": "r",
          "type": "bytes32"
        },
        {
          "name": "s",
          "type": "bytes32"
        }
      ],
      "name": "getVoucherSigner",
      "outputs": [
        {
          "name": "",
          "type": "address"
        }
      ],
      "payable": false,
      "stateMutability": "view",
      "type": "function"
    },
    {
      "constant": true,
      "inputs": [],
      "name": "validatorsCount",
      "outputs": [
        {
          "name": "",
          "type": "uint256"
        }
      ],
      "payable": false,
      "stateMutability": "view",
      "type": "function"
    },
    {
      "constant": true,
      "inputs": [
        {
          "name": "owner",
          "type": "address"
        }
      ],
      "name": "getBalance",
      "outputs": [
        {
          "name": "",
          "type": "uint256"
        }
      ],
      "payable": false,
      "stateMutability": "view",
      "type": "function"
    },
    {
      "constant": true,
      "inputs": [
        {
          "name": "wallet",
          "type": "address"
        }
      ],
      "name": "isValidator",
      "outputs": [
        {
          "name": "",
          "type": "bool"
        }
      ],
      "payable": false,
      "stateMutability": "view",
      "type": "function"
    },
    {
      "inputs": [
        {
          "name": "_fee",
          "type": "uint8"
        },
        {
          "name": "_signerAddress",
          "type": "address"
        },
        {
          "name": "_validators",
          "type": "address[]"
        }
      ],
      "payable": false,
      "stateMutability": "nonpayable",
      "type": "constructor"
    },
    {
      "payable": true,
      "stateMutability": "payable",
      "type": "fallback"
    },
    {
      "anonymous": false,
      "inputs": [],
      "name": "Pause",
      "type": "event"
    },
    {
      "anonymous": false,
      "inputs": [],
      "name": "Unpause",
      "type": "event"
    },
    {
      "anonymous": false,
      "inputs": [
        {
          "indexed": true,
          "name": "channel",
          "type": "address"
        }
      ],
      "name": "ChannelPaused",
      "type": "event"
    },
    {
      "anonymous": false,
      "inputs": [
        {
          "indexed": true,
          "name": "channel",
          "type": "address"
        }
      ],
      "name": "ChannelUnpaused",
      "type": "event"
    },
    {
      "anonymous": false,
      "inputs": [
        {
          "indexed": false,
          "name": "previousValidators",
          "type": "address[]"
        },
        {
          "indexed": false,
          "name": "newValidators",
          "type": "address[]"
        }
      ],
      "name": "ValidatorRightsTransferred",
      "type": "event"
    },
    {
      "anonymous": false,
      "inputs": [
        {
          "indexed": false,
          "name": "previousOwners",
          "type": "address[]"
        },
        {
          "indexed": false,
          "name": "newOwners",
          "type": "address[]"
        }
      ],
      "name": "OwnershipTransferred",
      "type": "event"
    }
  ],
  "bytecode": "0x60606040526000601260006101000a81548160ff0219169083151502179055506040805190810160405280601381526020017f5369676e656420666f7220537765746865723a00000000000000000000000000815250601490805190602001906200006c92919062000da6565b506000601a60006101000a81548160ff02191690831515021790555034156200009457600080fd5b6040516200594538038062005945833981016040528080519060200190919080519060200190919080518201919050508060028054806001018281620000db919062000e2d565b9160005260206000209001600033909190916101000a81548173ffffffffffffffffffffffffffffffffffffffff021916908373ffffffffffffffffffffffffffffffffffffffff160217905550506001600560003373ffffffffffffffffffffffffffffffffffffffff1673ffffffffffffffffffffffffffffffffffffffff168152602001908152602001600020819055506001808190555062000195816200024f6401000000000262001dd1176401000000009004565b50601460ff168360ff1611151515620001ad57600080fd5b600073ffffffffffffffffffffffffffffffffffffffff168273ffffffffffffffffffffffffffffffffffffffff1614151515620001ea57600080fd5b82601a60016101000a81548160ff021916908360ff16021790555081601760006101000a81548173ffffffffffffffffffffffffffffffffffffffff021916908373ffffffffffffffffffffffffffffffffffffffff16021790555050505062000fdf565b62000270818251620002736401000000000262001f48176401000000009004565b50565b60008060003373ffffffffffffffffffffffffffffffffffffffff16600460009054906101000a900473ffffffffffffffffffffffffffffffffffffffff1673ffffffffffffffffffffffffffffffffffffffff1614156200064b5760008551111515620002e057600080fd5b610100855111151515620002f357600080fd5b6000841115156200030357600080fd5b845184111515156200031457600080fd5b600092505b84518310156200038657600073ffffffffffffffffffffffffffffffffffffffff1685848151811015156200034a57fe5b9060200190602002015173ffffffffffffffffffffffffffffffffffffffff16141515156200037857600080fd5b828060010193505062000319565b7f835b136e5699f0b4eecdacc30c533f02289b11aef9f282819321fd5a0af25d86600b8660405180806020018060200183810383528581815481526020019150805480156200042b57602002820191906000526020600020905b8160009054906101000a900473ffffffffffffffffffffffffffffffffffffffff1673ffffffffffffffffffffffffffffffffffffffff1681526020019060010190808311620003e0575b5050838103825284818151815260200191508051906020019060200280838360005b838110156200046a5780820151818401526020810190506200044d565b5050505090500194505050505060405180910390a1600092505b600b805490508310156200051e57600e6000600b85815481101515620004a657fe5b906000526020600020900160009054906101000a900473ffffffffffffffffffffffffffffffffffffffff1673ffffffffffffffffffffffffffffffffffffffff1673ffffffffffffffffffffffffffffffffffffffff16815260200190815260200160002060009055828060010193505062000484565b600092505b845183101562000601576000600e600087868151811015156200054257fe5b9060200190602002015173ffffffffffffffffffffffffffffffffffffffff1673ffffffffffffffffffffffffffffffffffffffff168152602001908152602001600020541415156200059457600080fd5b60018301600e60008786815181101515620005ab57fe5b9060200190602002015173ffffffffffffffffffffffffffffffffffffffff1673ffffffffffffffffffffffffffffffffffffffff16815260200190815260200160002081905550828060010193505062000523565b84600b90805190602001906200061992919062000e5c565b5083600a819055506000600c8162000632919062000eeb565b5060096000815480929190600101919050555062000c27565b6200066a3362000c2e64010000000002620017be176401000000009004565b15156200067657600080fd5b6001600560003373ffffffffffffffffffffffffffffffffffffffff1673ffffffffffffffffffffffffffffffffffffffff1681526020019081526020016000205403915060003660005460405180848480828437820191505082815260200193505050506040518091039020905060006007600083600019166000191681526020019081526020016000205414156200076157600380549050600660008360001916600019168152602001908152602001600020819055506003805480600101828162000745919062000f1a565b9160005260206000209001600083909190915090600019169055505b60008260020a60076000846000191660001916815260200190815260200160002054161415156200079157600080fd5b8160020a6007600083600019166000191681526020019081526020016000206000828254179250508190555060016008600083600019166000191681526020019081526020016000206000828254019250508190555060015460086000836000191660001916815260200190815260200160002054141562000c26576200082c8162000c7964010000000002620044e1176401000000009004565b33600460006101000a81548173ffffffffffffffffffffffffffffffffffffffff021916908373ffffffffffffffffffffffffffffffffffffffff160217905550600085511115156200087e57600080fd5b6101008551111515156200089157600080fd5b600084111515620008a157600080fd5b84518411151515620008b257600080fd5b600092505b84518310156200092457600073ffffffffffffffffffffffffffffffffffffffff168584815181101515620008e857fe5b9060200190602002015173ffffffffffffffffffffffffffffffffffffffff16141515156200091657600080fd5b8280600101935050620008b7565b7f835b136e5699f0b4eecdacc30c533f02289b11aef9f282819321fd5a0af25d86600b866040518080602001806020018381038352858181548152602001915080548015620009c957602002820191906000526020600020905b8160009054906101000a900473ffffffffffffffffffffffffffffffffffffffff1673ffffffffffffffffffffffffffffffffffffffff16815260200190600101908083116200097e575b5050838103825284818151815260200191508051906020019060200280838360005b8381101562000a08578082015181840152602081019050620009eb565b5050505090500194505050505060405180910390a1600092505b600b8054905083101562000abc57600e6000600b8581548110151562000a4457fe5b906000526020600020900160009054906101000a900473ffffffffffffffffffffffffffffffffffffffff1673ffffffffffffffffffffffffffffffffffffffff1673ffffffffffffffffffffffffffffffffffffffff16815260200190815260200160002060009055828060010193505062000a22565b600092505b845183101562000b9f576000600e6000878681518110151562000ae057fe5b9060200190602002015173ffffffffffffffffffffffffffffffffffffffff1673ffffffffffffffffffffffffffffffffffffffff1681526020019081526020016000205414151562000b3257600080fd5b60018301600e6000878681518110151562000b4957fe5b9060200190602002015173ffffffffffffffffffffffffffffffffffffffff1673ffffffffffffffffffffffffffffffffffffffff16815260200190815260200160002081905550828060010193505062000ac1565b84600b908051906020019062000bb792919062000e5c565b5083600a819055506000600c8162000bd0919062000eeb565b506009600081548092919060010191905055506000600460006101000a81548173ffffffffffffffffffffffffffffffffffffffff021916908373ffffffffffffffffffffffffffffffffffffffff1602179055505b5b5050505050565b600080600560008473ffffffffffffffffffffffffffffffffffffffff1673ffffffffffffffffffffffffffffffffffffffff16815260200190815260200160002054119050919050565b600060066000836000191660001916815260200190815260200160002054905060016003805490500381101562000d2d57600360016003805490500381548110151562000cc257fe5b90600052602060002090015460038281548110151562000cde57fe5b90600052602060002090018160001916905550806006600060038481548110151562000d0657fe5b90600052602060002090015460001916600019168152602001908152602001600020819055505b600380548091906001900362000d44919062000eeb565b506007600083600019166000191681526020019081526020016000206000905560086000836000191660001916815260200190815260200160002060009055600660008360001916600019168152602001908152602001600020600090555050565b828054600181600116156101000203166002900490600052602060002090601f016020900481019282601f1062000de957805160ff191683800117855562000e1a565b8280016001018555821562000e1a579182015b8281111562000e1957825182559160200191906001019062000dfc565b5b50905062000e29919062000f49565b5090565b81548183558181151162000e575781836000526020600020918201910162000e56919062000f49565b5b505050565b82805482825590600052602060002090810192821562000ed8579160200282015b8281111562000ed75782518260006101000a81548173ffffffffffffffffffffffffffffffffffffffff021916908373ffffffffffffffffffffffffffffffffffffffff1602179055509160200191906001019062000e7d565b5b50905062000ee7919062000f71565b5090565b81548183558181151162000f155781836000526020600020918201910162000f14919062000fb7565b5b505050565b81548183558181151162000f445781836000526020600020918201910162000f43919062000fb7565b5b505050565b62000f6e91905b8082111562000f6a57600081600090555060010162000f50565b5090565b90565b62000fb491905b8082111562000fb057600081816101000a81549073ffffffffffffffffffffffffffffffffffffffff02191690555060010162000f78565b5090565b90565b62000fdc91905b8082111562000fd857600081600090555060010162000fbe565b5090565b90565b6149568062000fef6000396000f30060606040526004361061021a576000357c0100000000000000000000000000000000000000000000000000000000900463ffffffff168063025e7c2714610224578063046dc1661461028757806318bcd3d0146102c057806322f2f89a1461031a57806323c1367d146103435780632f4a81df1461037c5780632f54bf6e146103a557806335aa2e44146103f65780633cf3e0ca146104595780633e8b4887146104d55780633f4ba83a146104fe578063431ab23314610513578063568b591514610552578063588cb7df1461058d5780635af2800c146105e75780635b7633d0146106755780635c6dadb8146106ca5780635c975abb1461071b5780635f77fd0a1461074857806362f5f244146107bd578063786da3e3146107e65780637bda1cab1461084957806384192a52146108845780638456cb59146108ad578063871e609c146108c2578063893372ca146108fb5780638e269a0e1461092257806390a530851461096157806396a014f11461099c578063a5d5bfb814610a18578063ae7912eb14610ab9578063b25bb3a714610af4578063b948854614610b1d578063bc063e1a14610b46578063cb122a0914610b75578063d222097114610b9b578063d37aec9214610c7d578063d7bb99ba14610cf6578063ddca3f4314610d00578063e851834114610d2f578063eb278bd814610d92578063ed612f8c14610e7d578063f8b2cb4f14610ea6578063facd743b14610ef3575b610222610f44565b005b341561022f57600080fd5b6102456004808035906020019091905050610f8a565b604051808273ffffffffffffffffffffffffffffffffffffffff1673ffffffffffffffffffffffffffffffffffffffff16815260200191505060405180910390f35b341561029257600080fd5b6102be600480803573ffffffffffffffffffffffffffffffffffffffff16906020019091905050610fc9565b005b34156102cb57600080fd5b6103186004808035906020019082018035906020019080806020026020016040519081016040528093929190818152602001838360200280828437820191505050505050919050506112e2565b005b341561032557600080fd5b61032d6112f0565b6040518082815260200191505060405180910390f35b341561034e57600080fd5b61037a600480803573ffffffffffffffffffffffffffffffffffffffff169060200190919050506112fd565b005b341561038757600080fd5b61038f6117b8565b6040518082815260200191505060405180910390f35b34156103b057600080fd5b6103dc600480803573ffffffffffffffffffffffffffffffffffffffff169060200190919050506117be565b604051808215151515815260200191505060405180910390f35b341561040157600080fd5b6104176004808035906020019091905050611809565b604051808273ffffffffffffffffffffffffffffffffffffffff1673ffffffffffffffffffffffffffffffffffffffff16815260200191505060405180910390f35b341561046457600080fd5b6104d36004808035906020019082018035906020019190919290803590602001909190803573ffffffffffffffffffffffffffffffffffffffff1690602001909190803560ff169060200190919080356000191690602001909190803560001916906020019091905050611848565b005b34156104e057600080fd5b6104e8611a35565b6040518082815260200191505060405180910390f35b341561050957600080fd5b610511611a3b565b005b341561051e57600080fd5b6105346004808035906020019091905050611d95565b60405180826000191660001916815260200191505060405180910390f35b341561055d57600080fd5b610577600480803560001916906020019091905050611db9565b6040518082815260200191505060405180910390f35b341561059857600080fd5b6105e5600480803590602001908201803590602001908080602002602001604051908101604052809392919081815260200183836020028082843782019150505050505091905050611dd1565b005b34156105f257600080fd5b6105fa611ddf565b6040518080602001828103825283818151815260200191508051906020019080838360005b8381101561063a57808201518184015260208101905061061f565b50505050905090810190601f1680156106675780820380516001836020036101000a031916815260200191505b509250505060405180910390f35b341561068057600080fd5b610688611e7d565b604051808273ffffffffffffffffffffffffffffffffffffffff1673ffffffffffffffffffffffffffffffffffffffff16815260200191505060405180910390f35b34156106d557600080fd5b610701600480803573ffffffffffffffffffffffffffffffffffffffff16906020019091905050611ea3565b604051808215151515815260200191505060405180910390f35b341561072657600080fd5b61072e611ec3565b604051808215151515815260200191505060405180910390f35b341561075357600080fd5b6107a3600480803590602001908201803590602001908080601f01602080910402602001604051908101604052809392919081815260200183838082843782019150505050505091905050611ed6565b604051808215151515815260200191505060405180910390f35b34156107c857600080fd5b6107d0611f42565b6040518082815260200191505060405180910390f35b34156107f157600080fd5b610847600480803590602001908201803590602001908080602002602001604051908101604052809392919081815260200183836020028082843782019150505050505091908035906020019091905050611f48565b005b341561085457600080fd5b61086e60048080356000191690602001909190505061289f565b6040518082815260200191505060405180910390f35b341561088f57600080fd5b6108976128b7565b6040518082815260200191505060405180910390f35b34156108b857600080fd5b6108c06128c4565b005b34156108cd57600080fd5b6108f9600480803573ffffffffffffffffffffffffffffffffffffffff16906020019091905050612c20565b005b341561090657600080fd5b6109206004808035600019169060200190919050506130d9565b005b341561092d57600080fd5b61094360048080359060200190919050506131ef565b60405180826000191660001916815260200191505060405180910390f35b341561096c57600080fd5b610986600480803560001916906020019091905050613213565b6040518082815260200191505060405180910390f35b34156109a757600080fd5b610a166004808035906020019082018035906020019190919290803590602001909190803573ffffffffffffffffffffffffffffffffffffffff1690602001909190803560ff16906020019091908035600019169060200190919080356000191690602001909190505061322b565b005b3415610a2357600080fd5b610a9b600480803590602001908201803590602001908080601f0160208091040260200160405190810160405280939291908181526020018383808284378201915050505050509190803590602001909190803573ffffffffffffffffffffffffffffffffffffffff1690602001909190505061352f565b60405180826000191660001916815260200191505060405180910390f35b3415610ac457600080fd5b610ade600480803560001916906020019091905050613649565b6040518082815260200191505060405180910390f35b3415610aff57600080fd5b610b07613661565b6040518082815260200191505060405180910390f35b3415610b2857600080fd5b610b30613667565b6040518082815260200191505060405180910390f35b3415610b5157600080fd5b610b59613674565b604051808260ff1660ff16815260200191505060405180910390f35b3415610b8057600080fd5b610b99600480803560ff16906020019091905050613679565b005b3415610ba657600080fd5b610c63600480803573ffffffffffffffffffffffffffffffffffffffff1690602001909190803590602001908201803590602001908080601f0160208091040260200160405190810160405280939291908181526020018383808284378201915050505050509190803590602001909190803573ffffffffffffffffffffffffffffffffffffffff1690602001909190803560ff169060200190919080356000191690602001909190803560001916906020019091905050613972565b604051808215151515815260200191505060405180910390f35b3415610c8857600080fd5b610cd8600480803590602001908201803590602001908080601f016020809104026020016040519081016040528093929190818152602001838380828437820191505050505050919050506139c2565b60405180826000191660001916815260200191505060405180910390f35b610cfe610f44565b005b3415610d0b57600080fd5b610d13613a2e565b604051808260ff1660ff16815260200191505060405180910390f35b3415610d3a57600080fd5b610d90600480803590602001908201803590602001908080602002602001604051908101604052809392919081815260200183836020028082843782019150505050505091908035906020019091905050613a41565b005b3415610d9d57600080fd5b610e3b600480803590602001908201803590602001908080601f0160208091040260200160405190810160405280939291908181526020018383808284378201915050505050509190803590602001909190803573ffffffffffffffffffffffffffffffffffffffff1690602001909190803560ff169060200190919080356000191690602001909190803560001916906020019091905050614396565b604051808273ffffffffffffffffffffffffffffffffffffffff1673ffffffffffffffffffffffffffffffffffffffff16815260200191505060405180910390f35b3415610e8857600080fd5b610e90614440565b6040518082815260200191505060405180910390f35b3415610eb157600080fd5b610edd600480803573ffffffffffffffffffffffffffffffffffffffff1690602001909190505061444d565b6040518082815260200191505060405180910390f35b3415610efe57600080fd5b610f2a600480803573ffffffffffffffffffffffffffffffffffffffff16906020019091905050614496565b604051808215151515815260200191505060405180910390f35b34601560003373ffffffffffffffffffffffffffffffffffffffff1673ffffffffffffffffffffffffffffffffffffffff16815260200190815260200160002081905550565b600281815481101515610f9957fe5b90600052602060002090016000915054906101000a900473ffffffffffffffffffffffffffffffffffffffff1681565b6000803373ffffffffffffffffffffffffffffffffffffffff16600460009054906101000a900473ffffffffffffffffffffffffffffffffffffffff1673ffffffffffffffffffffffffffffffffffffffff1614156110685782601760006101000a81548173ffffffffffffffffffffffffffffffffffffffff021916908373ffffffffffffffffffffffffffffffffffffffff1602179055506112dd565b611071336117be565b151561107c57600080fd5b6001600560003373ffffffffffffffffffffffffffffffffffffffff1673ffffffffffffffffffffffffffffffffffffffff16815260200190815260200160002054039150600036600054604051808484808284378201915050828152602001935050505060405180910390209050600060076000836000191660001916815260200190815260200160002054141561116457600380549050600660008360001916600019168152602001908152602001600020819055506003805480600101828161114891906147e0565b9160005260206000209001600083909190915090600019169055505b60008260020a600760008460001916600019168152602001908152602001600020541614151561119357600080fd5b8160020a600760008360001916600019168152602001908152602001600020600082825417925050819055506001600860008360001916600019168152602001908152602001600020600082825401925050819055506001546008600083600019166000191681526020019081526020016000205414156112dc57611217816144e1565b33600460006101000a81548173ffffffffffffffffffffffffffffffffffffffff021916908373ffffffffffffffffffffffffffffffffffffffff16021790555082601760006101000a81548173ffffffffffffffffffffffffffffffffffffffff021916908373ffffffffffffffffffffffffffffffffffffffff1602179055506000600460006101000a81548173ffffffffffffffffffffffffffffffffffffffff021916908373ffffffffffffffffffffffffffffffffffffffff1602179055505b5b505050565b6112ed818251613a41565b50565b6000600380549050905090565b6000803373ffffffffffffffffffffffffffffffffffffffff16600d60009054906101000a900473ffffffffffffffffffffffffffffffffffffffff1673ffffffffffffffffffffffffffffffffffffffff16141561146d5782601360008273ffffffffffffffffffffffffffffffffffffffff1673ffffffffffffffffffffffffffffffffffffffff16815260200190815260200160002060009054906101000a900460ff161515156113b057600080fd5b601260009054906101000a900460ff161515156113cc57600080fd5b6001601360008673ffffffffffffffffffffffffffffffffffffffff1673ffffffffffffffffffffffffffffffffffffffff16815260200190815260200160002060006101000a81548160ff0219169083151502179055508373ffffffffffffffffffffffffffffffffffffffff167f62ee11eaa99fe24bc15e2dc526a05112fd499433cf419dc95b5fa91b71636c1660405160405180910390a2506117b3565b61147633614496565b151561148157600080fd5b6001600e60003373ffffffffffffffffffffffffffffffffffffffff1673ffffffffffffffffffffffffffffffffffffffff16815260200190815260200160002054039150600036600954604051808484808284378201915050828152602001935050505060405180910390209050600060106000836000191660001916815260200190815260200160002054141561156957600380549050600f6000836000191660001916815260200190815260200160002081905550600c805480600101828161154d91906147e0565b9160005260206000209001600083909190915090600019169055505b60008260020a601060008460001916600019168152602001908152602001600020541614151561159857600080fd5b8160020a60106000836000191660001916815260200190815260200160002060008282541792505081905550600160116000836000191660001916815260200190815260200160002060008282540192505081905550600a546011600083600019166000191681526020019081526020016000205414156117b25761161c81614608565b33600d60006101000a81548173ffffffffffffffffffffffffffffffffffffffff021916908373ffffffffffffffffffffffffffffffffffffffff16021790555082601360008273ffffffffffffffffffffffffffffffffffffffff1673ffffffffffffffffffffffffffffffffffffffff16815260200190815260200160002060009054906101000a900460ff161515156116b757600080fd5b601260009054906101000a900460ff161515156116d357600080fd5b6001601360008673ffffffffffffffffffffffffffffffffffffffff1673ffffffffffffffffffffffffffffffffffffffff16815260200190815260200160002060006101000a81548160ff0219169083151502179055508373ffffffffffffffffffffffffffffffffffffffff167f62ee11eaa99fe24bc15e2dc526a05112fd499433cf419dc95b5fa91b71636c1660405160405180910390a2506000600d60006101000a81548173ffffffffffffffffffffffffffffffffffffffff021916908373ffffffffffffffffffffffffffffffffffffffff1602179055505b5b505050565b60015481565b600080600560008473ffffffffffffffffffffffffffffffffffffffff1673ffffffffffffffffffffffffffffffffffffffff16815260200190815260200160002054119050919050565b600b8181548110151561181857fe5b90600052602060002090016000915054906101000a900473ffffffffffffffffffffffffffffffffffffffff1681565b600080601a60009054906101000a900460ff1615151561186757600080fd5b6001601a60006101000a81548160ff02191690831515021790555085601360008273ffffffffffffffffffffffffffffffffffffffff1673ffffffffffffffffffffffffffffffffffffffff16815260200190815260200160002060009054906101000a900460ff161515156118dc57600080fd5b601260009054906101000a900460ff161515156118f857600080fd5b6119388a8a8080601f016020809104026020016040519081016040528093929190818152602001838380828437820191505050505050898989898961472f565b151561194357600080fd5b87601560008973ffffffffffffffffffffffffffffffffffffffff1673ffffffffffffffffffffffffffffffffffffffff168152602001908152602001600020541015151561199157600080fd5b6119cc8a8a8080601f0160208091040260200160405190810160405280939291908181526020018383808284378201915050505050506139c2565b92506119ec6119da89614783565b60ff16436147a990919063ffffffff16565b91508160196000856000191660001916815260200190815260200160002081905550506000601a60006101000a81548160ff021916908315150217905550505050505050505050565b600a5481565b6000803373ffffffffffffffffffffffffffffffffffffffff16600460009054906101000a900473ffffffffffffffffffffffffffffffffffffffff1673ffffffffffffffffffffffffffffffffffffffff161415611afb57601260009054906101000a900460ff161515611aaf57600080fd5b6000601260006101000a81548160ff0219169083151502179055507f7805862f689e2f13df9f062ff482ad3ad112aca9e0847911ed832e158c525b3360405160405180910390a1611d91565b611b04336117be565b1515611b0f57600080fd5b6001600560003373ffffffffffffffffffffffffffffffffffffffff1673ffffffffffffffffffffffffffffffffffffffff168152602001908152602001600020540391506000366000546040518084848082843782019150508281526020019350505050604051809103902090506000600760008360001916600019168152602001908152602001600020541415611bf7576003805490506006600083600019166000191681526020019081526020016000208190555060038054806001018281611bdb91906147e0565b9160005260206000209001600083909190915090600019169055505b60008260020a6007600084600019166000191681526020019081526020016000205416141515611c2657600080fd5b8160020a60076000836000191660001916815260200190815260200160002060008282541792505081905550600160086000836000191660001916815260200190815260200160002060008282540192505081905550600154600860008360001916600019168152602001908152602001600020541415611d9057611caa816144e1565b33600460006101000a81548173ffffffffffffffffffffffffffffffffffffffff021916908373ffffffffffffffffffffffffffffffffffffffff160217905550601260009054906101000a900460ff161515611d0657600080fd5b6000601260006101000a81548160ff0219169083151502179055507f7805862f689e2f13df9f062ff482ad3ad112aca9e0847911ed832e158c525b3360405160405180910390a16000600460006101000a81548173ffffffffffffffffffffffffffffffffffffffff021916908373ffffffffffffffffffffffffffffffffffffffff1602179055505b5b5050565b600381815481101515611da457fe5b90600052602060002090016000915090505481565b60076020528060005260406000206000915090505481565b611ddc818251611f48565b50565b60148054600181600116156101000203166002900480601f016020809104026020016040519081016040528092919081815260200182805460018160011615610100020316600290048015611e755780601f10611e4a57610100808354040283529160200191611e75565b820191906000526020600020905b815481529060010190602001808311611e5857829003601f168201915b505050505081565b601760009054906101000a900473ffffffffffffffffffffffffffffffffffffffff1681565b60136020528060005260406000206000915054906101000a900460ff1681565b601260009054906101000a900460ff1681565b600080611ee2836139c2565b9050600060166000836000191660001916815260200190815260200160002060009054906101000a900473ffffffffffffffffffffffffffffffffffffffff1673ffffffffffffffffffffffffffffffffffffffff161415915050919050565b60095481565b60008060003373ffffffffffffffffffffffffffffffffffffffff16600460009054906101000a900473ffffffffffffffffffffffffffffffffffffffff1673ffffffffffffffffffffffffffffffffffffffff1614156123065760008551111515611fb357600080fd5b610100855111151515611fc557600080fd5b600084111515611fd457600080fd5b84518411151515611fe457600080fd5b600092505b845183101561205257600073ffffffffffffffffffffffffffffffffffffffff16858481518110151561201857fe5b9060200190602002015173ffffffffffffffffffffffffffffffffffffffff161415151561204557600080fd5b8280600101935050611fe9565b7f835b136e5699f0b4eecdacc30c533f02289b11aef9f282819321fd5a0af25d86600b8660405180806020018060200183810383528581815481526020019150805480156120f557602002820191906000526020600020905b8160009054906101000a900473ffffffffffffffffffffffffffffffffffffffff1673ffffffffffffffffffffffffffffffffffffffff16815260200190600101908083116120ab575b5050838103825284818151815260200191508051906020019060200280838360005b83811015612132578082015181840152602081019050612117565b5050505090500194505050505060405180910390a1600092505b600b805490508310156121e357600e6000600b8581548110151561216c57fe5b906000526020600020900160009054906101000a900473ffffffffffffffffffffffffffffffffffffffff1673ffffffffffffffffffffffffffffffffffffffff1673ffffffffffffffffffffffffffffffffffffffff16815260200190815260200160002060009055828060010193505061214c565b600092505b84518310156122c1576000600e6000878681518110151561220557fe5b9060200190602002015173ffffffffffffffffffffffffffffffffffffffff1673ffffffffffffffffffffffffffffffffffffffff1681526020019081526020016000205414151561225657600080fd5b60018301600e6000878681518110151561226c57fe5b9060200190602002015173ffffffffffffffffffffffffffffffffffffffff1673ffffffffffffffffffffffffffffffffffffffff1681526020019081526020016000208190555082806001019350506121e8565b84600b90805190602001906122d792919061480c565b5083600a819055506000600c816122ee9190614896565b50600960008154809291906001019190505550612898565b61230f336117be565b151561231a57600080fd5b6001600560003373ffffffffffffffffffffffffffffffffffffffff1673ffffffffffffffffffffffffffffffffffffffff1681526020019081526020016000205403915060003660005460405180848480828437820191505082815260200193505050506040518091039020905060006007600083600019166000191681526020019081526020016000205414156124025760038054905060066000836000191660001916815260200190815260200160002081905550600380548060010182816123e691906147e0565b9160005260206000209001600083909190915090600019169055505b60008260020a600760008460001916600019168152602001908152602001600020541614151561243157600080fd5b8160020a60076000836000191660001916815260200190815260200160002060008282541792505081905550600160086000836000191660001916815260200190815260200160002060008282540192505081905550600154600860008360001916600019168152602001908152602001600020541415612897576124b5816144e1565b33600460006101000a81548173ffffffffffffffffffffffffffffffffffffffff021916908373ffffffffffffffffffffffffffffffffffffffff1602179055506000855111151561250657600080fd5b61010085511115151561251857600080fd5b60008411151561252757600080fd5b8451841115151561253757600080fd5b600092505b84518310156125a557600073ffffffffffffffffffffffffffffffffffffffff16858481518110151561256b57fe5b9060200190602002015173ffffffffffffffffffffffffffffffffffffffff161415151561259857600080fd5b828060010193505061253c565b7f835b136e5699f0b4eecdacc30c533f02289b11aef9f282819321fd5a0af25d86600b86604051808060200180602001838103835285818154815260200191508054801561264857602002820191906000526020600020905b8160009054906101000a900473ffffffffffffffffffffffffffffffffffffffff1673ffffffffffffffffffffffffffffffffffffffff16815260200190600101908083116125fe575b5050838103825284818151815260200191508051906020019060200280838360005b8381101561268557808201518184015260208101905061266a565b5050505090500194505050505060405180910390a1600092505b600b8054905083101561273657600e6000600b858154811015156126bf57fe5b906000526020600020900160009054906101000a900473ffffffffffffffffffffffffffffffffffffffff1673ffffffffffffffffffffffffffffffffffffffff1673ffffffffffffffffffffffffffffffffffffffff16815260200190815260200160002060009055828060010193505061269f565b600092505b8451831015612814576000600e6000878681518110151561275857fe5b9060200190602002015173ffffffffffffffffffffffffffffffffffffffff1673ffffffffffffffffffffffffffffffffffffffff168152602001908152602001600020541415156127a957600080fd5b60018301600e600087868151811015156127bf57fe5b9060200190602002015173ffffffffffffffffffffffffffffffffffffffff1673ffffffffffffffffffffffffffffffffffffffff16815260200190815260200160002081905550828060010193505061273b565b84600b908051906020019061282a92919061480c565b5083600a819055506000600c816128419190614896565b506009600081548092919060010191905055506000600460006101000a81548173ffffffffffffffffffffffffffffffffffffffff021916908373ffffffffffffffffffffffffffffffffffffffff1602179055505b5b5050505050565b60116020528060005260406000206000915090505481565b6000600c80549050905090565b6000803373ffffffffffffffffffffffffffffffffffffffff16600460009054906101000a900473ffffffffffffffffffffffffffffffffffffffff1673ffffffffffffffffffffffffffffffffffffffff16141561298557601260009054906101000a900460ff1615151561293957600080fd5b6001601260006101000a81548160ff0219169083151502179055507f6985a02210a168e66602d3235cb6db0e70f92b3ba4d376a33c0f3d9434bff62560405160405180910390a1612c1c565b61298e336117be565b151561299957600080fd5b6001600560003373ffffffffffffffffffffffffffffffffffffffff1673ffffffffffffffffffffffffffffffffffffffff168152602001908152602001600020540391506000366000546040518084848082843782019150508281526020019350505050604051809103902090506000600760008360001916600019168152602001908152602001600020541415612a81576003805490506006600083600019166000191681526020019081526020016000208190555060038054806001018281612a6591906147e0565b9160005260206000209001600083909190915090600019169055505b60008260020a6007600084600019166000191681526020019081526020016000205416141515612ab057600080fd5b8160020a60076000836000191660001916815260200190815260200160002060008282541792505081905550600160086000836000191660001916815260200190815260200160002060008282540192505081905550600154600860008360001916600019168152602001908152602001600020541415612c1b57612b34816144e1565b33600460006101000a81548173ffffffffffffffffffffffffffffffffffffffff021916908373ffffffffffffffffffffffffffffffffffffffff160217905550601260009054906101000a900460ff16151515612b9157600080fd5b6001601260006101000a81548160ff0219169083151502179055507f6985a02210a168e66602d3235cb6db0e70f92b3ba4d376a33c0f3d9434bff62560405160405180910390a16000600460006101000a81548173ffffffffffffffffffffffffffffffffffffffff021916908373ffffffffffffffffffffffffffffffffffffffff1602179055505b5b5050565b6000803373ffffffffffffffffffffffffffffffffffffffff16600d60009054906101000a900473ffffffffffffffffffffffffffffffffffffffff1673ffffffffffffffffffffffffffffffffffffffff161415612d8f5782601360008273ffffffffffffffffffffffffffffffffffffffff1673ffffffffffffffffffffffffffffffffffffffff16815260200190815260200160002060009054906101000a900460ff161515612cd257600080fd5b601260009054906101000a900460ff16151515612cee57600080fd5b6000601360008673ffffffffffffffffffffffffffffffffffffffff1673ffffffffffffffffffffffffffffffffffffffff16815260200190815260200160002060006101000a81548160ff0219169083151502179055508373ffffffffffffffffffffffffffffffffffffffff167f044462be9a36008a5098232b28f97199fff733abd2b9f5cb8e199efc8d1443bb60405160405180910390a2506130d4565b612d9833614496565b1515612da357600080fd5b6001600e60003373ffffffffffffffffffffffffffffffffffffffff1673ffffffffffffffffffffffffffffffffffffffff168152602001908152602001600020540391506000366009546040518084848082843782019150508281526020019350505050604051809103902090506000601060008360001916600019168152602001908152602001600020541415612e8b57600380549050600f6000836000191660001916815260200190815260200160002081905550600c8054806001018281612e6f91906147e0565b9160005260206000209001600083909190915090600019169055505b60008260020a6010600084600019166000191681526020019081526020016000205416141515612eba57600080fd5b8160020a60106000836000191660001916815260200190815260200160002060008282541792505081905550600160116000836000191660001916815260200190815260200160002060008282540192505081905550600a546011600083600019166000191681526020019081526020016000205414156130d357612f3e81614608565b33600d60006101000a81548173ffffffffffffffffffffffffffffffffffffffff021916908373ffffffffffffffffffffffffffffffffffffffff16021790555082601360008273ffffffffffffffffffffffffffffffffffffffff1673ffffffffffffffffffffffffffffffffffffffff16815260200190815260200160002060009054906101000a900460ff161515612fd857600080fd5b601260009054906101000a900460ff16151515612ff457600080fd5b6000601360008673ffffffffffffffffffffffffffffffffffffffff1673ffffffffffffffffffffffffffffffffffffffff16815260200190815260200160002060006101000a81548160ff0219169083151502179055508373ffffffffffffffffffffffffffffffffffffffff167f044462be9a36008a5098232b28f97199fff733abd2b9f5cb8e199efc8d1443bb60405160405180910390a2506000600d60006101000a81548173ffffffffffffffffffffffffffffffffffffffff021916908373ffffffffffffffffffffffffffffffffffffffff1602179055505b5b505050565b60006130e4336117be565b15156130ef57600080fd5b6001600560003373ffffffffffffffffffffffffffffffffffffffff1673ffffffffffffffffffffffffffffffffffffffff1681526020019081526020016000205403905060008160020a60076000856000191660001916815260200190815260200160002054161415151561316457600080fd5b8060020a1960076000846000191660001916815260200190815260200160002060008282541692505081905550600860008360001916600019168152602001908152602001600020600081548092919060019003919050555060006008600084600019166000191681526020019081526020016000205414156131eb576131ea826144e1565b5b5050565b600c818154811015156131fe57fe5b90600052602060002090016000915090505481565b60086020528060005260406000206000915090505481565b6000601a60009054906101000a900460ff1615151561324957600080fd5b6001601a60006101000a81548160ff02191690831515021790555084601360008273ffffffffffffffffffffffffffffffffffffffff1673ffffffffffffffffffffffffffffffffffffffff16815260200190815260200160002060009054906101000a900460ff161515156132be57600080fd5b601260009054906101000a900460ff161515156132da57600080fd5b61331a89898080601f016020809104026020016040519081016040528093929190818152602001838380828437820191505050505050888888888861472f565b151561332557600080fd5b86601560008873ffffffffffffffffffffffffffffffffffffffff1673ffffffffffffffffffffffffffffffffffffffff168152602001908152602001600020541015151561337357600080fd5b6133ae89898080601f0160208091040260200160405190810160405280939291908181526020018383808284378201915050505050506139c2565b91504360196000846000191660001916815260200190815260200160002054101515156133da57600080fd5b3360166000846000191660001916815260200190815260200160002060006101000a81548173ffffffffffffffffffffffffffffffffffffffff021916908373ffffffffffffffffffffffffffffffffffffffff16021790555061348687601560008973ffffffffffffffffffffffffffffffffffffffff1673ffffffffffffffffffffffffffffffffffffffff168152602001908152602001600020546147c790919063ffffffff16565b601560008873ffffffffffffffffffffffffffffffffffffffff1673ffffffffffffffffffffffffffffffffffffffff168152602001908152602001600020819055503373ffffffffffffffffffffffffffffffffffffffff166108fc889081150290604051600060405180830381858888f19350505050151561350957600080fd5b506000601a60006101000a81548160ff0219169083151502179055505050505050505050565b600080601485858560405180858054600181600116156101000203166002900480156135925780601f10613570576101008083540402835291820191613592565b820191906000526020600020905b81548152906001019060200180831161357e575b505084805190602001908083835b6020831015156135c557805182526020820191506020810190506020830392506135a0565b6001836020036101000a0380198251168184511680821785525050505050509050018381526020018273ffffffffffffffffffffffffffffffffffffffff1673ffffffffffffffffffffffffffffffffffffffff166c0100000000000000000000000002815260140194505050505060405180910390209050809150509392505050565b60106020528060005260406000206000915090505481565b60005481565b6000600280549050905090565b601481565b6000803373ffffffffffffffffffffffffffffffffffffffff16600460009054906101000a900473ffffffffffffffffffffffffffffffffffffffff1673ffffffffffffffffffffffffffffffffffffffff16141561370857601460ff168360ff16111515156136e857600080fd5b82601a60016101000a81548160ff021916908360ff16021790555061396d565b613711336117be565b151561371c57600080fd5b6001600560003373ffffffffffffffffffffffffffffffffffffffff1673ffffffffffffffffffffffffffffffffffffffff1681526020019081526020016000205403915060003660005460405180848480828437820191505082815260200193505050506040518091039020905060006007600083600019166000191681526020019081526020016000205414156138045760038054905060066000836000191660001916815260200190815260200160002081905550600380548060010182816137e891906147e0565b9160005260206000209001600083909190915090600019169055505b60008260020a600760008460001916600019168152602001908152602001600020541614151561383357600080fd5b8160020a6007600083600019166000191681526020019081526020016000206000828254179250508190555060016008600083600019166000191681526020019081526020016000206000828254019250508190555060015460086000836000191660001916815260200190815260200160002054141561396c576138b7816144e1565b33600460006101000a81548173ffffffffffffffffffffffffffffffffffffffff021916908373ffffffffffffffffffffffffffffffffffffffff160217905550601460ff168360ff161115151561390e57600080fd5b82601a60016101000a81548160ff021916908360ff1602179055506000600460006101000a81548173ffffffffffffffffffffffffffffffffffffffff021916908373ffffffffffffffffffffffffffffffffffffffff1602179055505b5b505050565b600080613983888888888888614396565b90508873ffffffffffffffffffffffffffffffffffffffff168173ffffffffffffffffffffffffffffffffffffffff1614915050979650505050505050565b6000816040518082805190602001908083835b6020831015156139fa57805182526020820191506020810190506020830392506139d5565b6001836020036101000a03801982511681845116808217855250505050505090500191505060405180910390209050919050565b601a60019054906101000a900460ff1681565b60008060003373ffffffffffffffffffffffffffffffffffffffff16600460009054906101000a900473ffffffffffffffffffffffffffffffffffffffff1673ffffffffffffffffffffffffffffffffffffffff161415613dfe5760008551111515613aac57600080fd5b610100855111151515613abe57600080fd5b600084111515613acd57600080fd5b84518411151515613add57600080fd5b600092505b8451831015613b4b57600073ffffffffffffffffffffffffffffffffffffffff168584815181101515613b1157fe5b9060200190602002015173ffffffffffffffffffffffffffffffffffffffff1614151515613b3e57600080fd5b8280600101935050613ae2565b7fe62c04bb3499d4f432a50e07318d42861c4865afb22ee4cfe403d4f9455070906002866040518080602001806020018381038352858181548152602001915080548015613bee57602002820191906000526020600020905b8160009054906101000a900473ffffffffffffffffffffffffffffffffffffffff1673ffffffffffffffffffffffffffffffffffffffff1681526020019060010190808311613ba4575b5050838103825284818151815260200191508051906020019060200280838360005b83811015613c2b578082015181840152602081019050613c10565b5050505090500194505050505060405180910390a1600092505b600280549050831015613cdc5760056000600285815481101515613c6557fe5b906000526020600020900160009054906101000a900473ffffffffffffffffffffffffffffffffffffffff1673ffffffffffffffffffffffffffffffffffffffff1673ffffffffffffffffffffffffffffffffffffffff168152602001908152602001600020600090558280600101935050613c45565b600092505b8451831015613dba576000600560008786815181101515613cfe57fe5b9060200190602002015173ffffffffffffffffffffffffffffffffffffffff1673ffffffffffffffffffffffffffffffffffffffff16815260200190815260200160002054141515613d4f57600080fd5b60018301600560008786815181101515613d6557fe5b9060200190602002015173ffffffffffffffffffffffffffffffffffffffff1673ffffffffffffffffffffffffffffffffffffffff168152602001908152602001600020819055508280600101935050613ce1565b8460029080519060200190613dd092919061480c565b50836001819055506000600381613de79190614896565b50600080815480929190600101919050555061438f565b613e07336117be565b1515613e1257600080fd5b6001600560003373ffffffffffffffffffffffffffffffffffffffff1673ffffffffffffffffffffffffffffffffffffffff168152602001908152602001600020540391506000366000546040518084848082843782019150508281526020019350505050604051809103902090506000600760008360001916600019168152602001908152602001600020541415613efa576003805490506006600083600019166000191681526020019081526020016000208190555060038054806001018281613ede91906147e0565b9160005260206000209001600083909190915090600019169055505b60008260020a6007600084600019166000191681526020019081526020016000205416141515613f2957600080fd5b8160020a6007600083600019166000191681526020019081526020016000206000828254179250508190555060016008600083600019166000191681526020019081526020016000206000828254019250508190555060015460086000836000191660001916815260200190815260200160002054141561438e57613fad816144e1565b33600460006101000a81548173ffffffffffffffffffffffffffffffffffffffff021916908373ffffffffffffffffffffffffffffffffffffffff16021790555060008551111515613ffe57600080fd5b61010085511115151561401057600080fd5b60008411151561401f57600080fd5b8451841115151561402f57600080fd5b600092505b845183101561409d57600073ffffffffffffffffffffffffffffffffffffffff16858481518110151561406357fe5b9060200190602002015173ffffffffffffffffffffffffffffffffffffffff161415151561409057600080fd5b8280600101935050614034565b7fe62c04bb3499d4f432a50e07318d42861c4865afb22ee4cfe403d4f945507090600286604051808060200180602001838103835285818154815260200191508054801561414057602002820191906000526020600020905b8160009054906101000a900473ffffffffffffffffffffffffffffffffffffffff1673ffffffffffffffffffffffffffffffffffffffff16815260200190600101908083116140f6575b5050838103825284818151815260200191508051906020019060200280838360005b8381101561417d578082015181840152602081019050614162565b5050505090500194505050505060405180910390a1600092505b60028054905083101561422e57600560006002858154811015156141b757fe5b906000526020600020900160009054906101000a900473ffffffffffffffffffffffffffffffffffffffff1673ffffffffffffffffffffffffffffffffffffffff1673ffffffffffffffffffffffffffffffffffffffff168152602001908152602001600020600090558280600101935050614197565b600092505b845183101561430c57600060056000878681518110151561425057fe5b9060200190602002015173ffffffffffffffffffffffffffffffffffffffff1673ffffffffffffffffffffffffffffffffffffffff168152602001908152602001600020541415156142a157600080fd5b600183016005600087868151811015156142b757fe5b9060200190602002015173ffffffffffffffffffffffffffffffffffffffff1673ffffffffffffffffffffffffffffffffffffffff168152602001908152602001600020819055508280600101935050614233565b846002908051906020019061432292919061480c565b508360018190555060006003816143399190614896565b5060008081548092919060010191905055506000600460006101000a81548173ffffffffffffffffffffffffffffffffffffffff021916908373ffffffffffffffffffffffffffffffffffffffff1602179055505b5b5050505050565b60008060006143a689898961352f565b9150600182878787604051600081526020016040526000604051602001526040518085600019166000191681526020018460ff1660ff16815260200183600019166000191681526020018260001916600019168152602001945050505050602060405160208103908084039060008661646e5a03f1151561442657600080fd5b505060206040510351905080925050509695505050505050565b6000600b80549050905090565b6000601560008373ffffffffffffffffffffffffffffffffffffffff1673ffffffffffffffffffffffffffffffffffffffff168152602001908152602001600020549050919050565b600080600e60008473ffffffffffffffffffffffffffffffffffffffff1673ffffffffffffffffffffffffffffffffffffffff16815260200190815260200160002054119050919050565b600060066000836000191660001916815260200190815260200160002054905060016003805490500381101561459157600360016003805490500381548110151561452857fe5b90600052602060002090015460038281548110151561454357fe5b90600052602060002090018160001916905550806006600060038481548110151561456a57fe5b90600052602060002090015460001916600019168152602001908152602001600020819055505b60038054809190600190036145a69190614896565b506007600083600019166000191681526020019081526020016000206000905560086000836000191660001916815260200190815260200160002060009055600660008360001916600019168152602001908152602001600020600090555050565b6000600f600083600019166000191681526020019081526020016000205490506001600c80549050038110156146b857600c6001600c805490500381548110151561464f57fe5b906000526020600020900154600c8281548110151561466a57fe5b9060005260206000209001816000191690555080600f6000600c8481548110151561469157fe5b90600052602060002090015460001916600019168152602001908152602001600020819055505b600c8054809190600190036146cd9190614896565b506010600083600019166000191681526020019081526020016000206000905560116000836000191660001916815260200190815260200160002060009055600f60008360001916600019168152602001908152602001600020600090555050565b600061473a87611ed6565b15151561474657600080fd5b614777601760009054906101000a900473ffffffffffffffffffffffffffffffffffffffff16888888888888613972565b90509695505050505050565b6000670de0b6b3a76400008210151561479f57600590506147a4565b600290505b919050565b60008082840190508381101515156147bd57fe5b8091505092915050565b60008282111515156147d557fe5b818303905092915050565b8154818355818115116148075781836000526020600020918201910161480691906148c2565b5b505050565b828054828255906000526020600020908101928215614885579160200282015b828111156148845782518260006101000a81548173ffffffffffffffffffffffffffffffffffffffff021916908373ffffffffffffffffffffffffffffffffffffffff1602179055509160200191906001019061482c565b5b50905061489291906148e7565b5090565b8154818355818115116148bd578183600052602060002091820191016148bc91906148c2565b5b505050565b6148e491905b808211156148e05760008160009055506001016148c8565b5090565b90565b61492791905b8082111561492357600081816101000a81549073ffffffffffffffffffffffffffffffffffffffff0219169055506001016148ed565b5090565b905600a165627a7a72305820fc246eb176a5ff559c287d138a5486acf42c74be9f1ad3c16e130903bc249c460029",
  "source": "pragma solidity 0.4.18;\n\nimport \"./Pausable.sol\";\nimport \"./Util.sol\";\nimport \"./SafeMath.sol\";\nimport \"./Verifiable.sol\";\n\ncontract Swether is Pausable, Verifiable {\n\n    uint8 constant public MAX_FEE = 20;\n\n    using SafeMath for uint256;\n\n    mapping (address => uint256) internal channels;\n\n    mapping (bytes32 => address) internal usedVouchers;\n\n    address public signerAddress;\n\n    mapping(address => bool) private validators;\n\n    mapping (bytes32 => uint256) private challengePeriods;\n\n    // Flag to prevent reentrancy attack\n    bool private locked = false;\n\n    modifier noReentrancy() {\n        require(!locked);\n        locked = true;\n        _;\n        locked = false;\n    }\n\n    /// @param _signerAddress The address derived from server's private key\n    function setSignerAddress(address _signerAddress) external onlyManyOwners {\n        signerAddress = _signerAddress;\n    }\n\n    function contribute() public payable {\n        channels[msg.sender] = msg.value;\n    }\n\n    uint8 public fee;\n\n    function setFee(uint8 _fee) external onlyManyOwners {\n        require(_fee <= MAX_FEE);\n        fee = _fee;\n    }\n\n\n    function Swether(uint8 _fee, address _signerAddress, address[] _validators) Validatable(_validators) public {\n        require(_fee <= MAX_FEE);\n        require(_signerAddress != address(0));\n        fee = _fee;\n        signerAddress = _signerAddress;\n    }\n\n    function() public payable {\n        contribute();\n    }\n\n    function withdraw(string _id, uint256 _value, address _channel, uint8 v, bytes32 r, bytes32 s) external noReentrancy whenChannelNotPaused(_channel) whenNotPaused {\n        require(checkVoucher(_id, _value, _channel, v, r, s));\n        require(channels[_channel] >= _value);\n        bytes32 key = getKey(_id);\n        require(challengePeriods[key] >= block.number);\n        usedVouchers[key] = msg.sender;\n\n        channels[_channel] = channels[_channel].sub(_value);\n        msg.sender.transfer(_value);\n    }\n\n    function claimExchange(string _id, uint256 _value, address _channel, uint8 v, bytes32 r, bytes32 s) external noReentrancy whenChannelNotPaused(_channel) whenNotPaused{\n        require(checkVoucher(_id, _value, _channel, v, r, s));\n        require(channels[_channel] >= _value);\n        bytes32 key = getKey(_id);\n        uint256 challengePeriod = block.number.add(blocksToWait(_value));\n        challengePeriods[key] = challengePeriod;\n    }\n\n    function getBalance(address owner) external view returns (uint256) {\n        return channels[owner];\n    }\n\n    function checkVoucher(string _id, uint256 _value, address _channel, uint8 v, bytes32 r, bytes32 s) private view returns(bool)\n    {\n        require(!isVoucherUsed(_id));\n        return isVoucherSigner(signerAddress, _id, _value, _channel, v, r, s);\n    }\n\n    function getKey(string _id) public pure returns (bytes32 data)\n    {\n        return keccak256(_id);\n    }\n\n    function isVoucherUsed(string _id) public view returns (bool) {\n        bytes32 key = getKey(_id);\n        return usedVouchers[key] != 0;\n    }\n\n    function blocksToWait(uint256 _value) internal pure returns(uint8){\n        if (_value >= 1 ether) {\n            return 5;\n        }\n        return 2;\n    }\n\n}\n",
  "sourcePath": "/home/dzentota/www/swether/contracts/Swether.sol",
  "compiler": {
    "name": "solc",
    "version": "0.4.18+commit.9cf6e910.Emscripten.clang"
  },
  "schemaVersion": "1.0.1",
  "updatedAt": "2018-04-21T22:38:19.384Z"
}