{
  "contractName": "Swether",
  "abi": [
    {
      "constant": true,
      "inputs": [
        {
          "name": "",
          "type": "uint256"
        }
      ],
      "name": "owners",
      "outputs": [
        {
          "name": "",
          "type": "address"
        }
      ],
      "payable": false,
      "stateMutability": "view",
      "type": "function"
    },
    {
      "constant": false,
      "inputs": [
        {
          "name": "_signerAddress",
          "type": "address"
        }
      ],
      "name": "setSignerAddress",
      "outputs": [],
      "payable": false,
      "stateMutability": "nonpayable",
      "type": "function"
    },
    {
      "constant": false,
      "inputs": [
        {
          "name": "newOwners",
          "type": "address[]"
        }
      ],
      "name": "transferOwnership",
      "outputs": [],
      "payable": false,
      "stateMutability": "nonpayable",
      "type": "function"
    },
    {
      "constant": true,
      "inputs": [],
      "name": "allOperationsCount",
      "outputs": [
        {
          "name": "",
          "type": "uint256"
        }
      ],
      "payable": false,
      "stateMutability": "view",
      "type": "function"
    },
    {
      "constant": false,
      "inputs": [
        {
          "name": "_channel",
          "type": "address"
        }
      ],
      "name": "pauseChannel",
      "outputs": [],
      "payable": false,
      "stateMutability": "nonpayable",
      "type": "function"
    },
    {
      "constant": false,
      "inputs": [
        {
          "name": "_id",
          "type": "string"
        },
        {
          "name": "_value",
          "type": "uint256"
        },
        {
          "name": "_channel",
          "type": "address"
        },
        {
          "name": "_messageSignature",
          "type": "bytes"
        }
      ],
      "name": "withdraw",
      "outputs": [],
      "payable": false,
      "stateMutability": "nonpayable",
      "type": "function"
    },
    {
      "constant": true,
      "inputs": [],
      "name": "howManyOwnersDecide",
      "outputs": [
        {
          "name": "",
          "type": "uint256"
        }
      ],
      "payable": false,
      "stateMutability": "view",
      "type": "function"
    },
    {
      "constant": true,
      "inputs": [
        {
          "name": "wallet",
          "type": "address"
        }
      ],
      "name": "isOwner",
      "outputs": [
        {
          "name": "",
          "type": "bool"
        }
      ],
      "payable": false,
      "stateMutability": "view",
      "type": "function"
    },
    {
      "constant": true,
      "inputs": [
        {
          "name": "",
          "type": "uint256"
        }
      ],
      "name": "validators",
      "outputs": [
        {
          "name": "",
          "type": "address"
        }
      ],
      "payable": false,
      "stateMutability": "view",
      "type": "function"
    },
    {
      "constant": true,
      "inputs": [],
      "name": "howManyValidatorsDecide",
      "outputs": [
        {
          "name": "",
          "type": "uint256"
        }
      ],
      "payable": false,
      "stateMutability": "view",
      "type": "function"
    },
    {
      "constant": false,
      "inputs": [],
      "name": "unpause",
      "outputs": [],
      "payable": false,
      "stateMutability": "nonpayable",
      "type": "function"
    },
    {
      "constant": true,
      "inputs": [
        {
          "name": "",
          "type": "uint256"
        }
      ],
      "name": "allOperations",
      "outputs": [
        {
          "name": "",
          "type": "bytes32"
        }
      ],
      "payable": false,
      "stateMutability": "view",
      "type": "function"
    },
    {
      "constant": true,
      "inputs": [
        {
          "name": "",
          "type": "bytes32"
        }
      ],
      "name": "votesMaskByOperation",
      "outputs": [
        {
          "name": "",
          "type": "uint256"
        }
      ],
      "payable": false,
      "stateMutability": "view",
      "type": "function"
    },
    {
      "constant": false,
      "inputs": [
        {
          "name": "newValidators",
          "type": "address[]"
        }
      ],
      "name": "transferValidatorRights",
      "outputs": [],
      "payable": false,
      "stateMutability": "nonpayable",
      "type": "function"
    },
    {
      "constant": true,
      "inputs": [],
      "name": "signerAddress",
      "outputs": [
        {
          "name": "",
          "type": "address"
        }
      ],
      "payable": false,
      "stateMutability": "view",
      "type": "function"
    },
    {
      "constant": true,
      "inputs": [
        {
          "name": "",
          "type": "address"
        }
      ],
      "name": "pausedChannels",
      "outputs": [
        {
          "name": "",
          "type": "bool"
        }
      ],
      "payable": false,
      "stateMutability": "view",
      "type": "function"
    },
    {
      "constant": true,
      "inputs": [],
      "name": "paused",
      "outputs": [
        {
          "name": "",
          "type": "bool"
        }
      ],
      "payable": false,
      "stateMutability": "view",
      "type": "function"
    },
    {
      "constant": true,
      "inputs": [
        {
          "name": "_id",
          "type": "string"
        }
      ],
      "name": "isVoucherUsed",
      "outputs": [
        {
          "name": "",
          "type": "bool"
        }
      ],
      "payable": false,
      "stateMutability": "view",
      "type": "function"
    },
    {
      "constant": true,
      "inputs": [],
      "name": "validatorsGeneration",
      "outputs": [
        {
          "name": "",
          "type": "uint256"
        }
      ],
      "payable": false,
      "stateMutability": "view",
      "type": "function"
    },
    {
      "constant": false,
      "inputs": [
        {
          "name": "newValidators",
          "type": "address[]"
        },
        {
          "name": "newHowManyValidatorsDecide",
          "type": "uint256"
        }
      ],
      "name": "transferValidatorRightsWithHowMany",
      "outputs": [],
      "payable": false,
      "stateMutability": "nonpayable",
      "type": "function"
    },
    {
      "constant": true,
      "inputs": [
        {
          "name": "",
          "type": "bytes32"
        }
      ],
      "name": "votesCountByValidatorOperation",
      "outputs": [
        {
          "name": "",
          "type": "uint256"
        }
      ],
      "payable": false,
      "stateMutability": "view",
      "type": "function"
    },
    {
      "constant": true,
      "inputs": [],
      "name": "allValidatorsOperationsCount",
      "outputs": [
        {
          "name": "",
          "type": "uint256"
        }
      ],
      "payable": false,
      "stateMutability": "view",
      "type": "function"
    },
    {
      "constant": false,
      "inputs": [],
      "name": "pause",
      "outputs": [],
      "payable": false,
      "stateMutability": "nonpayable",
      "type": "function"
    },
    {
      "constant": false,
      "inputs": [
        {
          "name": "_channel",
          "type": "address"
        }
      ],
      "name": "unpauseChannel",
      "outputs": [],
      "payable": false,
      "stateMutability": "nonpayable",
      "type": "function"
    },
    {
      "constant": false,
      "inputs": [
        {
          "name": "operation",
          "type": "bytes32"
        }
      ],
      "name": "cancelPending",
      "outputs": [],
      "payable": false,
      "stateMutability": "nonpayable",
      "type": "function"
    },
    {
      "constant": true,
      "inputs": [
        {
          "name": "",
          "type": "uint256"
        }
      ],
      "name": "allValidatorsOperations",
      "outputs": [
        {
          "name": "",
          "type": "bytes32"
        }
      ],
      "payable": false,
      "stateMutability": "view",
      "type": "function"
    },
    {
      "constant": true,
      "inputs": [
        {
          "name": "",
          "type": "bytes32"
        }
      ],
      "name": "votesCountByOperation",
      "outputs": [
        {
          "name": "",
          "type": "uint256"
        }
      ],
      "payable": false,
      "stateMutability": "view",
      "type": "function"
    },
    {
      "constant": false,
      "inputs": [
        {
          "name": "_id",
          "type": "string"
        },
        {
          "name": "_value",
          "type": "uint256"
        },
        {
          "name": "_channel",
          "type": "address"
        },
        {
          "name": "_messageSignature",
          "type": "bytes"
        }
      ],
      "name": "claimExchange",
      "outputs": [],
      "payable": false,
      "stateMutability": "nonpayable",
      "type": "function"
    },
    {
      "constant": true,
      "inputs": [
        {
          "name": "",
          "type": "bytes32"
        }
      ],
      "name": "votesMaskByValidatorOperation",
      "outputs": [
        {
          "name": "",
          "type": "uint256"
        }
      ],
      "payable": false,
      "stateMutability": "view",
      "type": "function"
    },
    {
      "constant": true,
      "inputs": [],
      "name": "ownersGeneration",
      "outputs": [
        {
          "name": "",
          "type": "uint256"
        }
      ],
      "payable": false,
      "stateMutability": "view",
      "type": "function"
    },
    {
      "constant": true,
      "inputs": [],
      "name": "ownersCount",
      "outputs": [
        {
          "name": "",
          "type": "uint256"
        }
      ],
      "payable": false,
      "stateMutability": "view",
      "type": "function"
    },
    {
      "constant": true,
      "inputs": [],
      "name": "MAX_FEE",
      "outputs": [
        {
          "name": "",
          "type": "uint8"
        }
      ],
      "payable": false,
      "stateMutability": "view",
      "type": "function"
    },
    {
      "constant": false,
      "inputs": [
        {
          "name": "_fee",
          "type": "uint8"
        }
      ],
      "name": "setFee",
      "outputs": [],
      "payable": false,
      "stateMutability": "nonpayable",
      "type": "function"
    },
    {
      "constant": true,
      "inputs": [
        {
          "name": "_id",
          "type": "string"
        }
      ],
      "name": "getKey",
      "outputs": [
        {
          "name": "data",
          "type": "bytes32"
        }
      ],
      "payable": false,
      "stateMutability": "pure",
      "type": "function"
    },
    {
      "constant": false,
      "inputs": [],
      "name": "contribute",
      "outputs": [],
      "payable": true,
      "stateMutability": "payable",
      "type": "function"
    },
    {
      "constant": true,
      "inputs": [],
      "name": "fee",
      "outputs": [
        {
          "name": "",
          "type": "uint8"
        }
      ],
      "payable": false,
      "stateMutability": "view",
      "type": "function"
    },
    {
      "constant": false,
      "inputs": [
        {
          "name": "newOwners",
          "type": "address[]"
        },
        {
          "name": "newHowManyOwnersDecide",
          "type": "uint256"
        }
      ],
      "name": "transferOwnershipWithHowMany",
      "outputs": [],
      "payable": false,
      "stateMutability": "nonpayable",
      "type": "function"
    },
    {
      "constant": true,
      "inputs": [],
      "name": "validatorsCount",
      "outputs": [
        {
          "name": "",
          "type": "uint256"
        }
      ],
      "payable": false,
      "stateMutability": "view",
      "type": "function"
    },
    {
      "constant": true,
      "inputs": [
        {
          "name": "owner",
          "type": "address"
        }
      ],
      "name": "getBalance",
      "outputs": [
        {
          "name": "",
          "type": "uint256"
        }
      ],
      "payable": false,
      "stateMutability": "view",
      "type": "function"
    },
    {
      "constant": true,
      "inputs": [
        {
          "name": "wallet",
          "type": "address"
        }
      ],
      "name": "isValidator",
      "outputs": [
        {
          "name": "",
          "type": "bool"
        }
      ],
      "payable": false,
      "stateMutability": "view",
      "type": "function"
    },
    {
      "inputs": [
        {
          "name": "_fee",
          "type": "uint8"
        },
        {
          "name": "_signerAddress",
          "type": "address"
        },
        {
          "name": "_validators",
          "type": "address[]"
        }
      ],
      "payable": false,
      "stateMutability": "nonpayable",
      "type": "constructor"
    },
    {
      "payable": true,
      "stateMutability": "payable",
      "type": "fallback"
    },
    {
      "anonymous": false,
      "inputs": [],
      "name": "Pause",
      "type": "event"
    },
    {
      "anonymous": false,
      "inputs": [],
      "name": "Unpause",
      "type": "event"
    },
    {
      "anonymous": false,
      "inputs": [
        {
          "indexed": true,
          "name": "channel",
          "type": "address"
        }
      ],
      "name": "ChannelPaused",
      "type": "event"
    },
    {
      "anonymous": false,
      "inputs": [
        {
          "indexed": true,
          "name": "channel",
          "type": "address"
        }
      ],
      "name": "ChannelUnpaused",
      "type": "event"
    },
    {
      "anonymous": false,
      "inputs": [
        {
          "indexed": false,
          "name": "previousValidators",
          "type": "address[]"
        },
        {
          "indexed": false,
          "name": "newValidators",
          "type": "address[]"
        }
      ],
      "name": "ValidatorRightsTransferred",
      "type": "event"
    },
    {
      "anonymous": false,
      "inputs": [
        {
          "indexed": false,
          "name": "previousOwners",
          "type": "address[]"
        },
        {
          "indexed": false,
          "name": "newOwners",
          "type": "address[]"
        }
      ],
      "name": "OwnershipTransferred",
      "type": "event"
    }
  ],
  "bytecode": "0x60606040526000601260006101000a81548160ff0219169083151502179055506000601960006101000a81548160ff02191690831515021790555034156200004657600080fd5b6040516200557d3803806200557d8339810160405280805190602001909190805190602001909190805182019190505080600280548060010182816200008d919062000d58565b9160005260206000209001600033909190916101000a81548173ffffffffffffffffffffffffffffffffffffffff021916908373ffffffffffffffffffffffffffffffffffffffff160217905550506001600560003373ffffffffffffffffffffffffffffffffffffffff1673ffffffffffffffffffffffffffffffffffffffff16815260200190815260200160002081905550600180819055506200014781620002016401000000000262001bcb176401000000009004565b50601460ff168360ff16111515156200015f57600080fd5b600073ffffffffffffffffffffffffffffffffffffffff168273ffffffffffffffffffffffffffffffffffffffff16141515156200019c57600080fd5b82601960016101000a81548160ff021916908360ff16021790555081601660006101000a81548173ffffffffffffffffffffffffffffffffffffffff021916908373ffffffffffffffffffffffffffffffffffffffff16021790555050505062000f0a565b62000222818251620002256401000000000262001ca4176401000000009004565b50565b60008060003373ffffffffffffffffffffffffffffffffffffffff16600460009054906101000a900473ffffffffffffffffffffffffffffffffffffffff1673ffffffffffffffffffffffffffffffffffffffff161415620005fd57600085511115156200029257600080fd5b610100855111151515620002a557600080fd5b600084111515620002b557600080fd5b84518411151515620002c657600080fd5b600092505b84518310156200033857600073ffffffffffffffffffffffffffffffffffffffff168584815181101515620002fc57fe5b9060200190602002015173ffffffffffffffffffffffffffffffffffffffff16141515156200032a57600080fd5b8280600101935050620002cb565b7f835b136e5699f0b4eecdacc30c533f02289b11aef9f282819321fd5a0af25d86600b866040518080602001806020018381038352858181548152602001915080548015620003dd57602002820191906000526020600020905b8160009054906101000a900473ffffffffffffffffffffffffffffffffffffffff1673ffffffffffffffffffffffffffffffffffffffff168152602001906001019080831162000392575b5050838103825284818151815260200191508051906020019060200280838360005b838110156200041c578082015181840152602081019050620003ff565b5050505090500194505050505060405180910390a1600092505b600b80549050831015620004d057600e6000600b858154811015156200045857fe5b906000526020600020900160009054906101000a900473ffffffffffffffffffffffffffffffffffffffff1673ffffffffffffffffffffffffffffffffffffffff1673ffffffffffffffffffffffffffffffffffffffff16815260200190815260200160002060009055828060010193505062000436565b600092505b8451831015620005b3576000600e60008786815181101515620004f457fe5b9060200190602002015173ffffffffffffffffffffffffffffffffffffffff1673ffffffffffffffffffffffffffffffffffffffff168152602001908152602001600020541415156200054657600080fd5b60018301600e600087868151811015156200055d57fe5b9060200190602002015173ffffffffffffffffffffffffffffffffffffffff1673ffffffffffffffffffffffffffffffffffffffff168152602001908152602001600020819055508280600101935050620004d5565b84600b9080519060200190620005cb92919062000d87565b5083600a819055506000600c81620005e4919062000e16565b5060096000815480929190600101919050555062000bd9565b6200061c3362000be064010000000002620017a5176401000000009004565b15156200062857600080fd5b6001600560003373ffffffffffffffffffffffffffffffffffffffff1673ffffffffffffffffffffffffffffffffffffffff16815260200190815260200160002054039150600036600054604051808484808284378201915050828152602001935050505060405180910390209050600060076000836000191660001916815260200190815260200160002054141562000713576003805490506006600083600019166000191681526020019081526020016000208190555060038054806001018281620006f7919062000e45565b9160005260206000209001600083909190915090600019169055505b60008260020a60076000846000191660001916815260200190815260200160002054161415156200074357600080fd5b8160020a6007600083600019166000191681526020019081526020016000206000828254179250508190555060016008600083600019166000191681526020019081526020016000206000828254019250508190555060015460086000836000191660001916815260200190815260200160002054141562000bd857620007de8162000c2b6401000000000262003f41176401000000009004565b33600460006101000a81548173ffffffffffffffffffffffffffffffffffffffff021916908373ffffffffffffffffffffffffffffffffffffffff160217905550600085511115156200083057600080fd5b6101008551111515156200084357600080fd5b6000841115156200085357600080fd5b845184111515156200086457600080fd5b600092505b8451831015620008d657600073ffffffffffffffffffffffffffffffffffffffff1685848151811015156200089a57fe5b9060200190602002015173ffffffffffffffffffffffffffffffffffffffff1614151515620008c857600080fd5b828060010193505062000869565b7f835b136e5699f0b4eecdacc30c533f02289b11aef9f282819321fd5a0af25d86600b8660405180806020018060200183810383528581815481526020019150805480156200097b57602002820191906000526020600020905b8160009054906101000a900473ffffffffffffffffffffffffffffffffffffffff1673ffffffffffffffffffffffffffffffffffffffff168152602001906001019080831162000930575b5050838103825284818151815260200191508051906020019060200280838360005b83811015620009ba5780820151818401526020810190506200099d565b5050505090500194505050505060405180910390a1600092505b600b8054905083101562000a6e57600e6000600b85815481101515620009f657fe5b906000526020600020900160009054906101000a900473ffffffffffffffffffffffffffffffffffffffff1673ffffffffffffffffffffffffffffffffffffffff1673ffffffffffffffffffffffffffffffffffffffff168152602001908152602001600020600090558280600101935050620009d4565b600092505b845183101562000b51576000600e6000878681518110151562000a9257fe5b9060200190602002015173ffffffffffffffffffffffffffffffffffffffff1673ffffffffffffffffffffffffffffffffffffffff1681526020019081526020016000205414151562000ae457600080fd5b60018301600e6000878681518110151562000afb57fe5b9060200190602002015173ffffffffffffffffffffffffffffffffffffffff1673ffffffffffffffffffffffffffffffffffffffff16815260200190815260200160002081905550828060010193505062000a73565b84600b908051906020019062000b6992919062000d87565b5083600a819055506000600c8162000b82919062000e16565b506009600081548092919060010191905055506000600460006101000a81548173ffffffffffffffffffffffffffffffffffffffff021916908373ffffffffffffffffffffffffffffffffffffffff1602179055505b5b5050505050565b600080600560008473ffffffffffffffffffffffffffffffffffffffff1673ffffffffffffffffffffffffffffffffffffffff16815260200190815260200160002054119050919050565b600060066000836000191660001916815260200190815260200160002054905060016003805490500381101562000cdf57600360016003805490500381548110151562000c7457fe5b90600052602060002090015460038281548110151562000c9057fe5b90600052602060002090018160001916905550806006600060038481548110151562000cb857fe5b90600052602060002090015460001916600019168152602001908152602001600020819055505b600380548091906001900362000cf6919062000e16565b506007600083600019166000191681526020019081526020016000206000905560086000836000191660001916815260200190815260200160002060009055600660008360001916600019168152602001908152602001600020600090555050565b81548183558181151162000d825781836000526020600020918201910162000d81919062000e74565b5b505050565b82805482825590600052602060002090810192821562000e03579160200282015b8281111562000e025782518260006101000a81548173ffffffffffffffffffffffffffffffffffffffff021916908373ffffffffffffffffffffffffffffffffffffffff1602179055509160200191906001019062000da8565b5b50905062000e12919062000e9c565b5090565b81548183558181151162000e405781836000526020600020918201910162000e3f919062000ee2565b5b505050565b81548183558181151162000e6f5781836000526020600020918201910162000e6e919062000ee2565b5b505050565b62000e9991905b8082111562000e9557600081600090555060010162000e7b565b5090565b90565b62000edf91905b8082111562000edb57600081816101000a81549073ffffffffffffffffffffffffffffffffffffffff02191690555060010162000ea3565b5090565b90565b62000f0791905b8082111562000f0357600081600090555060010162000ee9565b5090565b90565b6146638062000f1a6000396000f3006060604052600436106101ee576000357c0100000000000000000000000000000000000000000000000000000000900463ffffffff168063025e7c27146101f8578063046dc1661461025b57806318bcd3d01461029457806322f2f89a146102ee57806323c1367d146103175780632d7cdeb1146103505780632f4a81df146103ba5780632f54bf6e146103e357806335aa2e44146104345780633e8b4887146104975780633f4ba83a146104c0578063431ab233146104d5578063568b591514610514578063588cb7df1461054f5780635b7633d0146105a95780635c6dadb8146105fe5780635c975abb1461064f5780635f77fd0a1461067c57806362f5f244146106f1578063786da3e31461071a5780637bda1cab1461077d57806384192a52146107b85780638456cb59146107e1578063871e609c146107f6578063893372ca1461082f5780638e269a0e1461085657806390a5308514610895578063a40831b8146108d0578063ae7912eb1461093a578063b25bb3a714610975578063b94885461461099e578063bc063e1a146109c7578063cb122a09146109f6578063d37aec9214610a1c578063d7bb99ba14610a95578063ddca3f4314610a9f578063e851834114610ace578063ed612f8c14610b31578063f8b2cb4f14610b5a578063facd743b14610ba7575b6101f6610bf8565b005b341561020357600080fd5b6102196004808035906020019091905050610c3e565b604051808273ffffffffffffffffffffffffffffffffffffffff1673ffffffffffffffffffffffffffffffffffffffff16815260200191505060405180910390f35b341561026657600080fd5b610292600480803573ffffffffffffffffffffffffffffffffffffffff16906020019091905050610c7d565b005b341561029f57600080fd5b6102ec600480803590602001908201803590602001908080602002602001604051908101604052809392919081815260200183836020028082843782019150505050505091905050610f96565b005b34156102f957600080fd5b610301610fa4565b6040518082815260200191505060405180910390f35b341561032257600080fd5b61034e600480803573ffffffffffffffffffffffffffffffffffffffff16906020019091905050610fb1565b005b341561035b57600080fd5b6103b86004808035906020019082018035906020019190919290803590602001909190803573ffffffffffffffffffffffffffffffffffffffff16906020019091908035906020019082018035906020019190919290505061146c565b005b34156103c557600080fd5b6103cd61179f565b6040518082815260200191505060405180910390f35b34156103ee57600080fd5b61041a600480803573ffffffffffffffffffffffffffffffffffffffff169060200190919050506117a5565b604051808215151515815260200191505060405180910390f35b341561043f57600080fd5b61045560048080359060200190919050506117f0565b604051808273ffffffffffffffffffffffffffffffffffffffff1673ffffffffffffffffffffffffffffffffffffffff16815260200191505060405180910390f35b34156104a257600080fd5b6104aa61182f565b6040518082815260200191505060405180910390f35b34156104cb57600080fd5b6104d3611835565b005b34156104e057600080fd5b6104f66004808035906020019091905050611b8f565b60405180826000191660001916815260200191505060405180910390f35b341561051f57600080fd5b610539600480803560001916906020019091905050611bb3565b6040518082815260200191505060405180910390f35b341561055a57600080fd5b6105a7600480803590602001908201803590602001908080602002602001604051908101604052809392919081815260200183836020028082843782019150505050505091905050611bcb565b005b34156105b457600080fd5b6105bc611bd9565b604051808273ffffffffffffffffffffffffffffffffffffffff1673ffffffffffffffffffffffffffffffffffffffff16815260200191505060405180910390f35b341561060957600080fd5b610635600480803573ffffffffffffffffffffffffffffffffffffffff16906020019091905050611bff565b604051808215151515815260200191505060405180910390f35b341561065a57600080fd5b610662611c1f565b604051808215151515815260200191505060405180910390f35b341561068757600080fd5b6106d7600480803590602001908201803590602001908080601f01602080910402602001604051908101604052809392919081815260200183838082843782019150505050505091905050611c32565b604051808215151515815260200191505060405180910390f35b34156106fc57600080fd5b610704611c9e565b6040518082815260200191505060405180910390f35b341561072557600080fd5b61077b600480803590602001908201803590602001908080602002602001604051908101604052809392919081815260200183836020028082843782019150505050505091908035906020019091905050611ca4565b005b341561078857600080fd5b6107a26004808035600019169060200190919050506125fb565b6040518082815260200191505060405180910390f35b34156107c357600080fd5b6107cb612613565b6040518082815260200191505060405180910390f35b34156107ec57600080fd5b6107f4612620565b005b341561080157600080fd5b61082d600480803573ffffffffffffffffffffffffffffffffffffffff1690602001909190505061297c565b005b341561083a57600080fd5b610854600480803560001916906020019091905050612e35565b005b341561086157600080fd5b6108776004808035906020019091905050612f4b565b60405180826000191660001916815260200191505060405180910390f35b34156108a057600080fd5b6108ba600480803560001916906020019091905050612f6f565b6040518082815260200191505060405180910390f35b34156108db57600080fd5b6109386004808035906020019082018035906020019190919290803590602001909190803573ffffffffffffffffffffffffffffffffffffffff169060200190919080359060200190820180359060200191909192905050612f87565b005b341561094557600080fd5b61095f6004808035600019169060200190919050506131a3565b6040518082815260200191505060405180910390f35b341561098057600080fd5b6109886131bb565b6040518082815260200191505060405180910390f35b34156109a957600080fd5b6109b16131c1565b6040518082815260200191505060405180910390f35b34156109d257600080fd5b6109da6131ce565b604051808260ff1660ff16815260200191505060405180910390f35b3415610a0157600080fd5b610a1a600480803560ff169060200190919050506131d3565b005b3415610a2757600080fd5b610a77600480803590602001908201803590602001908080601f016020809104026020016040519081016040528093929190818152602001838380828437820191505050505050919050506134cc565b60405180826000191660001916815260200191505060405180910390f35b610a9d610bf8565b005b3415610aaa57600080fd5b610ab2613538565b604051808260ff1660ff16815260200191505060405180910390f35b3415610ad957600080fd5b610b2f60048080359060200190820180359060200190808060200260200160405190810160405280939291908181526020018383602002808284378201915050505050509190803590602001909190505061354b565b005b3415610b3c57600080fd5b610b44613ea0565b6040518082815260200191505060405180910390f35b3415610b6557600080fd5b610b91600480803573ffffffffffffffffffffffffffffffffffffffff16906020019091905050613ead565b6040518082815260200191505060405180910390f35b3415610bb257600080fd5b610bde600480803573ffffffffffffffffffffffffffffffffffffffff16906020019091905050613ef6565b604051808215151515815260200191505060405180910390f35b34601460003373ffffffffffffffffffffffffffffffffffffffff1673ffffffffffffffffffffffffffffffffffffffff16815260200190815260200160002081905550565b600281815481101515610c4d57fe5b90600052602060002090016000915054906101000a900473ffffffffffffffffffffffffffffffffffffffff1681565b6000803373ffffffffffffffffffffffffffffffffffffffff16600460009054906101000a900473ffffffffffffffffffffffffffffffffffffffff1673ffffffffffffffffffffffffffffffffffffffff161415610d1c5782601660006101000a81548173ffffffffffffffffffffffffffffffffffffffff021916908373ffffffffffffffffffffffffffffffffffffffff160217905550610f91565b610d25336117a5565b1515610d3057600080fd5b6001600560003373ffffffffffffffffffffffffffffffffffffffff1673ffffffffffffffffffffffffffffffffffffffff168152602001908152602001600020540391506000366000546040518084848082843782019150508281526020019350505050604051809103902090506000600760008360001916600019168152602001908152602001600020541415610e18576003805490506006600083600019166000191681526020019081526020016000208190555060038054806001018281610dfc91906144ed565b9160005260206000209001600083909190915090600019169055505b60008260020a6007600084600019166000191681526020019081526020016000205416141515610e4757600080fd5b8160020a60076000836000191660001916815260200190815260200160002060008282541792505081905550600160086000836000191660001916815260200190815260200160002060008282540192505081905550600154600860008360001916600019168152602001908152602001600020541415610f9057610ecb81613f41565b33600460006101000a81548173ffffffffffffffffffffffffffffffffffffffff021916908373ffffffffffffffffffffffffffffffffffffffff16021790555082601660006101000a81548173ffffffffffffffffffffffffffffffffffffffff021916908373ffffffffffffffffffffffffffffffffffffffff1602179055506000600460006101000a81548173ffffffffffffffffffffffffffffffffffffffff021916908373ffffffffffffffffffffffffffffffffffffffff1602179055505b5b505050565b610fa181825161354b565b50565b6000600380549050905090565b6000803373ffffffffffffffffffffffffffffffffffffffff16600d60009054906101000a900473ffffffffffffffffffffffffffffffffffffffff1673ffffffffffffffffffffffffffffffffffffffff1614156111215782601360008273ffffffffffffffffffffffffffffffffffffffff1673ffffffffffffffffffffffffffffffffffffffff16815260200190815260200160002060009054906101000a900460ff1615151561106457600080fd5b601260009054906101000a900460ff1615151561108057600080fd5b6001601360008673ffffffffffffffffffffffffffffffffffffffff1673ffffffffffffffffffffffffffffffffffffffff16815260200190815260200160002060006101000a81548160ff0219169083151502179055508373ffffffffffffffffffffffffffffffffffffffff167f62ee11eaa99fe24bc15e2dc526a05112fd499433cf419dc95b5fa91b71636c1660405160405180910390a250611467565b61112a33613ef6565b151561113557600080fd5b6001600e60003373ffffffffffffffffffffffffffffffffffffffff1673ffffffffffffffffffffffffffffffffffffffff16815260200190815260200160002054039150600036600954604051808484808284378201915050828152602001935050505060405180910390209050600060106000836000191660001916815260200190815260200160002054141561121d57600380549050600f6000836000191660001916815260200190815260200160002081905550600c805480600101828161120191906144ed565b9160005260206000209001600083909190915090600019169055505b60008260020a601060008460001916600019168152602001908152602001600020541614151561124c57600080fd5b8160020a60106000836000191660001916815260200190815260200160002060008282541792505081905550600160116000836000191660001916815260200190815260200160002060008282540192505081905550600a54601160008360001916600019168152602001908152602001600020541415611466576112d081614068565b33600d60006101000a81548173ffffffffffffffffffffffffffffffffffffffff021916908373ffffffffffffffffffffffffffffffffffffffff16021790555082601360008273ffffffffffffffffffffffffffffffffffffffff1673ffffffffffffffffffffffffffffffffffffffff16815260200190815260200160002060009054906101000a900460ff1615151561136b57600080fd5b601260009054906101000a900460ff1615151561138757600080fd5b6001601360008673ffffffffffffffffffffffffffffffffffffffff1673ffffffffffffffffffffffffffffffffffffffff16815260200190815260200160002060006101000a81548160ff0219169083151502179055508373ffffffffffffffffffffffffffffffffffffffff167f62ee11eaa99fe24bc15e2dc526a05112fd499433cf419dc95b5fa91b71636c1660405160405180910390a2506000600d60006101000a81548173ffffffffffffffffffffffffffffffffffffffff021916908373ffffffffffffffffffffffffffffffffffffffff1602179055505b5b505050565b6000601960009054906101000a900460ff1615151561148a57600080fd5b6001601960006101000a81548160ff02191690831515021790555083601360008273ffffffffffffffffffffffffffffffffffffffff1673ffffffffffffffffffffffffffffffffffffffff16815260200190815260200160002060009054906101000a900460ff161515156114ff57600080fd5b601260009054906101000a900460ff1615151561151b57600080fd5b61158b88888080601f016020809104026020016040519081016040528093929190818152602001838380828437820191505050505050878787878080601f01602080910402602001604051908101604052809392919081815260200183838082843782019150505050505061418f565b151561159657600080fd5b85601460008773ffffffffffffffffffffffffffffffffffffffff1673ffffffffffffffffffffffffffffffffffffffff16815260200190815260200160002054101515156115e457600080fd5b61161f88888080601f0160208091040260200160405190810160405280939291908181526020018383808284378201915050505050506134cc565b915043601860008460001916600019168152602001908152602001600020541015151561164b57600080fd5b3360156000846000191660001916815260200190815260200160002060006101000a81548173ffffffffffffffffffffffffffffffffffffffff021916908373ffffffffffffffffffffffffffffffffffffffff1602179055506116f786601460008873ffffffffffffffffffffffffffffffffffffffff1673ffffffffffffffffffffffffffffffffffffffff1681526020019081526020016000205461437490919063ffffffff16565b601460008773ffffffffffffffffffffffffffffffffffffffff1673ffffffffffffffffffffffffffffffffffffffff168152602001908152602001600020819055503373ffffffffffffffffffffffffffffffffffffffff166108fc879081150290604051600060405180830381858888f19350505050151561177a57600080fd5b506000601960006101000a81548160ff02191690831515021790555050505050505050565b60015481565b600080600560008473ffffffffffffffffffffffffffffffffffffffff1673ffffffffffffffffffffffffffffffffffffffff16815260200190815260200160002054119050919050565b600b818154811015156117ff57fe5b90600052602060002090016000915054906101000a900473ffffffffffffffffffffffffffffffffffffffff1681565b600a5481565b6000803373ffffffffffffffffffffffffffffffffffffffff16600460009054906101000a900473ffffffffffffffffffffffffffffffffffffffff1673ffffffffffffffffffffffffffffffffffffffff1614156118f557601260009054906101000a900460ff1615156118a957600080fd5b6000601260006101000a81548160ff0219169083151502179055507f7805862f689e2f13df9f062ff482ad3ad112aca9e0847911ed832e158c525b3360405160405180910390a1611b8b565b6118fe336117a5565b151561190957600080fd5b6001600560003373ffffffffffffffffffffffffffffffffffffffff1673ffffffffffffffffffffffffffffffffffffffff1681526020019081526020016000205403915060003660005460405180848480828437820191505082815260200193505050506040518091039020905060006007600083600019166000191681526020019081526020016000205414156119f15760038054905060066000836000191660001916815260200190815260200160002081905550600380548060010182816119d591906144ed565b9160005260206000209001600083909190915090600019169055505b60008260020a6007600084600019166000191681526020019081526020016000205416141515611a2057600080fd5b8160020a60076000836000191660001916815260200190815260200160002060008282541792505081905550600160086000836000191660001916815260200190815260200160002060008282540192505081905550600154600860008360001916600019168152602001908152602001600020541415611b8a57611aa481613f41565b33600460006101000a81548173ffffffffffffffffffffffffffffffffffffffff021916908373ffffffffffffffffffffffffffffffffffffffff160217905550601260009054906101000a900460ff161515611b0057600080fd5b6000601260006101000a81548160ff0219169083151502179055507f7805862f689e2f13df9f062ff482ad3ad112aca9e0847911ed832e158c525b3360405160405180910390a16000600460006101000a81548173ffffffffffffffffffffffffffffffffffffffff021916908373ffffffffffffffffffffffffffffffffffffffff1602179055505b5b5050565b600381815481101515611b9e57fe5b90600052602060002090016000915090505481565b60076020528060005260406000206000915090505481565b611bd6818251611ca4565b50565b601660009054906101000a900473ffffffffffffffffffffffffffffffffffffffff1681565b60136020528060005260406000206000915054906101000a900460ff1681565b601260009054906101000a900460ff1681565b600080611c3e836134cc565b9050600060156000836000191660001916815260200190815260200160002060009054906101000a900473ffffffffffffffffffffffffffffffffffffffff1673ffffffffffffffffffffffffffffffffffffffff161415915050919050565b60095481565b60008060003373ffffffffffffffffffffffffffffffffffffffff16600460009054906101000a900473ffffffffffffffffffffffffffffffffffffffff1673ffffffffffffffffffffffffffffffffffffffff1614156120625760008551111515611d0f57600080fd5b610100855111151515611d2157600080fd5b600084111515611d3057600080fd5b84518411151515611d4057600080fd5b600092505b8451831015611dae57600073ffffffffffffffffffffffffffffffffffffffff168584815181101515611d7457fe5b9060200190602002015173ffffffffffffffffffffffffffffffffffffffff1614151515611da157600080fd5b8280600101935050611d45565b7f835b136e5699f0b4eecdacc30c533f02289b11aef9f282819321fd5a0af25d86600b866040518080602001806020018381038352858181548152602001915080548015611e5157602002820191906000526020600020905b8160009054906101000a900473ffffffffffffffffffffffffffffffffffffffff1673ffffffffffffffffffffffffffffffffffffffff1681526020019060010190808311611e07575b5050838103825284818151815260200191508051906020019060200280838360005b83811015611e8e578082015181840152602081019050611e73565b5050505090500194505050505060405180910390a1600092505b600b80549050831015611f3f57600e6000600b85815481101515611ec857fe5b906000526020600020900160009054906101000a900473ffffffffffffffffffffffffffffffffffffffff1673ffffffffffffffffffffffffffffffffffffffff1673ffffffffffffffffffffffffffffffffffffffff168152602001908152602001600020600090558280600101935050611ea8565b600092505b845183101561201d576000600e60008786815181101515611f6157fe5b9060200190602002015173ffffffffffffffffffffffffffffffffffffffff1673ffffffffffffffffffffffffffffffffffffffff16815260200190815260200160002054141515611fb257600080fd5b60018301600e60008786815181101515611fc857fe5b9060200190602002015173ffffffffffffffffffffffffffffffffffffffff1673ffffffffffffffffffffffffffffffffffffffff168152602001908152602001600020819055508280600101935050611f44565b84600b9080519060200190612033929190614519565b5083600a819055506000600c8161204a91906145a3565b506009600081548092919060010191905055506125f4565b61206b336117a5565b151561207657600080fd5b6001600560003373ffffffffffffffffffffffffffffffffffffffff1673ffffffffffffffffffffffffffffffffffffffff16815260200190815260200160002054039150600036600054604051808484808284378201915050828152602001935050505060405180910390209050600060076000836000191660001916815260200190815260200160002054141561215e57600380549050600660008360001916600019168152602001908152602001600020819055506003805480600101828161214291906144ed565b9160005260206000209001600083909190915090600019169055505b60008260020a600760008460001916600019168152602001908152602001600020541614151561218d57600080fd5b8160020a600760008360001916600019168152602001908152602001600020600082825417925050819055506001600860008360001916600019168152602001908152602001600020600082825401925050819055506001546008600083600019166000191681526020019081526020016000205414156125f35761221181613f41565b33600460006101000a81548173ffffffffffffffffffffffffffffffffffffffff021916908373ffffffffffffffffffffffffffffffffffffffff1602179055506000855111151561226257600080fd5b61010085511115151561227457600080fd5b60008411151561228357600080fd5b8451841115151561229357600080fd5b600092505b845183101561230157600073ffffffffffffffffffffffffffffffffffffffff1685848151811015156122c757fe5b9060200190602002015173ffffffffffffffffffffffffffffffffffffffff16141515156122f457600080fd5b8280600101935050612298565b7f835b136e5699f0b4eecdacc30c533f02289b11aef9f282819321fd5a0af25d86600b8660405180806020018060200183810383528581815481526020019150805480156123a457602002820191906000526020600020905b8160009054906101000a900473ffffffffffffffffffffffffffffffffffffffff1673ffffffffffffffffffffffffffffffffffffffff168152602001906001019080831161235a575b5050838103825284818151815260200191508051906020019060200280838360005b838110156123e15780820151818401526020810190506123c6565b5050505090500194505050505060405180910390a1600092505b600b8054905083101561249257600e6000600b8581548110151561241b57fe5b906000526020600020900160009054906101000a900473ffffffffffffffffffffffffffffffffffffffff1673ffffffffffffffffffffffffffffffffffffffff1673ffffffffffffffffffffffffffffffffffffffff1681526020019081526020016000206000905582806001019350506123fb565b600092505b8451831015612570576000600e600087868151811015156124b457fe5b9060200190602002015173ffffffffffffffffffffffffffffffffffffffff1673ffffffffffffffffffffffffffffffffffffffff1681526020019081526020016000205414151561250557600080fd5b60018301600e6000878681518110151561251b57fe5b9060200190602002015173ffffffffffffffffffffffffffffffffffffffff1673ffffffffffffffffffffffffffffffffffffffff168152602001908152602001600020819055508280600101935050612497565b84600b9080519060200190612586929190614519565b5083600a819055506000600c8161259d91906145a3565b506009600081548092919060010191905055506000600460006101000a81548173ffffffffffffffffffffffffffffffffffffffff021916908373ffffffffffffffffffffffffffffffffffffffff1602179055505b5b5050505050565b60116020528060005260406000206000915090505481565b6000600c80549050905090565b6000803373ffffffffffffffffffffffffffffffffffffffff16600460009054906101000a900473ffffffffffffffffffffffffffffffffffffffff1673ffffffffffffffffffffffffffffffffffffffff1614156126e157601260009054906101000a900460ff1615151561269557600080fd5b6001601260006101000a81548160ff0219169083151502179055507f6985a02210a168e66602d3235cb6db0e70f92b3ba4d376a33c0f3d9434bff62560405160405180910390a1612978565b6126ea336117a5565b15156126f557600080fd5b6001600560003373ffffffffffffffffffffffffffffffffffffffff1673ffffffffffffffffffffffffffffffffffffffff1681526020019081526020016000205403915060003660005460405180848480828437820191505082815260200193505050506040518091039020905060006007600083600019166000191681526020019081526020016000205414156127dd5760038054905060066000836000191660001916815260200190815260200160002081905550600380548060010182816127c191906144ed565b9160005260206000209001600083909190915090600019169055505b60008260020a600760008460001916600019168152602001908152602001600020541614151561280c57600080fd5b8160020a600760008360001916600019168152602001908152602001600020600082825417925050819055506001600860008360001916600019168152602001908152602001600020600082825401925050819055506001546008600083600019166000191681526020019081526020016000205414156129775761289081613f41565b33600460006101000a81548173ffffffffffffffffffffffffffffffffffffffff021916908373ffffffffffffffffffffffffffffffffffffffff160217905550601260009054906101000a900460ff161515156128ed57600080fd5b6001601260006101000a81548160ff0219169083151502179055507f6985a02210a168e66602d3235cb6db0e70f92b3ba4d376a33c0f3d9434bff62560405160405180910390a16000600460006101000a81548173ffffffffffffffffffffffffffffffffffffffff021916908373ffffffffffffffffffffffffffffffffffffffff1602179055505b5b5050565b6000803373ffffffffffffffffffffffffffffffffffffffff16600d60009054906101000a900473ffffffffffffffffffffffffffffffffffffffff1673ffffffffffffffffffffffffffffffffffffffff161415612aeb5782601360008273ffffffffffffffffffffffffffffffffffffffff1673ffffffffffffffffffffffffffffffffffffffff16815260200190815260200160002060009054906101000a900460ff161515612a2e57600080fd5b601260009054906101000a900460ff16151515612a4a57600080fd5b6000601360008673ffffffffffffffffffffffffffffffffffffffff1673ffffffffffffffffffffffffffffffffffffffff16815260200190815260200160002060006101000a81548160ff0219169083151502179055508373ffffffffffffffffffffffffffffffffffffffff167f044462be9a36008a5098232b28f97199fff733abd2b9f5cb8e199efc8d1443bb60405160405180910390a250612e30565b612af433613ef6565b1515612aff57600080fd5b6001600e60003373ffffffffffffffffffffffffffffffffffffffff1673ffffffffffffffffffffffffffffffffffffffff168152602001908152602001600020540391506000366009546040518084848082843782019150508281526020019350505050604051809103902090506000601060008360001916600019168152602001908152602001600020541415612be757600380549050600f6000836000191660001916815260200190815260200160002081905550600c8054806001018281612bcb91906144ed565b9160005260206000209001600083909190915090600019169055505b60008260020a6010600084600019166000191681526020019081526020016000205416141515612c1657600080fd5b8160020a60106000836000191660001916815260200190815260200160002060008282541792505081905550600160116000836000191660001916815260200190815260200160002060008282540192505081905550600a54601160008360001916600019168152602001908152602001600020541415612e2f57612c9a81614068565b33600d60006101000a81548173ffffffffffffffffffffffffffffffffffffffff021916908373ffffffffffffffffffffffffffffffffffffffff16021790555082601360008273ffffffffffffffffffffffffffffffffffffffff1673ffffffffffffffffffffffffffffffffffffffff16815260200190815260200160002060009054906101000a900460ff161515612d3457600080fd5b601260009054906101000a900460ff16151515612d5057600080fd5b6000601360008673ffffffffffffffffffffffffffffffffffffffff1673ffffffffffffffffffffffffffffffffffffffff16815260200190815260200160002060006101000a81548160ff0219169083151502179055508373ffffffffffffffffffffffffffffffffffffffff167f044462be9a36008a5098232b28f97199fff733abd2b9f5cb8e199efc8d1443bb60405160405180910390a2506000600d60006101000a81548173ffffffffffffffffffffffffffffffffffffffff021916908373ffffffffffffffffffffffffffffffffffffffff1602179055505b5b505050565b6000612e40336117a5565b1515612e4b57600080fd5b6001600560003373ffffffffffffffffffffffffffffffffffffffff1673ffffffffffffffffffffffffffffffffffffffff1681526020019081526020016000205403905060008160020a600760008560001916600019168152602001908152602001600020541614151515612ec057600080fd5b8060020a196007600084600019166000191681526020019081526020016000206000828254169250508190555060086000836000191660001916815260200190815260200160002060008154809291906001900391905055506000600860008460001916600019168152602001908152602001600020541415612f4757612f4682613f41565b5b5050565b600c81815481101515612f5a57fe5b90600052602060002090016000915090505481565b60086020528060005260406000206000915090505481565b600080601960009054906101000a900460ff16151515612fa657600080fd5b6001601960006101000a81548160ff02191690831515021790555084601360008273ffffffffffffffffffffffffffffffffffffffff1673ffffffffffffffffffffffffffffffffffffffff16815260200190815260200160002060009054906101000a900460ff1615151561301b57600080fd5b601260009054906101000a900460ff1615151561303757600080fd5b6130a789898080601f016020809104026020016040519081016040528093929190818152602001838380828437820191505050505050888888888080601f01602080910402602001604051908101604052809392919081815260200183838082843782019150505050505061418f565b15156130b257600080fd5b86601460008873ffffffffffffffffffffffffffffffffffffffff1673ffffffffffffffffffffffffffffffffffffffff168152602001908152602001600020541015151561310057600080fd5b61313b89898080601f0160208091040260200160405190810160405280939291908181526020018383808284378201915050505050506134cc565b925061315b6131498861438d565b60ff16436143b390919063ffffffff16565b91508160186000856000191660001916815260200190815260200160002081905550506000601960006101000a81548160ff0219169083151502179055505050505050505050565b60106020528060005260406000206000915090505481565b60005481565b6000600280549050905090565b601481565b6000803373ffffffffffffffffffffffffffffffffffffffff16600460009054906101000a900473ffffffffffffffffffffffffffffffffffffffff1673ffffffffffffffffffffffffffffffffffffffff16141561326257601460ff168360ff161115151561324257600080fd5b82601960016101000a81548160ff021916908360ff1602179055506134c7565b61326b336117a5565b151561327657600080fd5b6001600560003373ffffffffffffffffffffffffffffffffffffffff1673ffffffffffffffffffffffffffffffffffffffff16815260200190815260200160002054039150600036600054604051808484808284378201915050828152602001935050505060405180910390209050600060076000836000191660001916815260200190815260200160002054141561335e57600380549050600660008360001916600019168152602001908152602001600020819055506003805480600101828161334291906144ed565b9160005260206000209001600083909190915090600019169055505b60008260020a600760008460001916600019168152602001908152602001600020541614151561338d57600080fd5b8160020a600760008360001916600019168152602001908152602001600020600082825417925050819055506001600860008360001916600019168152602001908152602001600020600082825401925050819055506001546008600083600019166000191681526020019081526020016000205414156134c65761341181613f41565b33600460006101000a81548173ffffffffffffffffffffffffffffffffffffffff021916908373ffffffffffffffffffffffffffffffffffffffff160217905550601460ff168360ff161115151561346857600080fd5b82601960016101000a81548160ff021916908360ff1602179055506000600460006101000a81548173ffffffffffffffffffffffffffffffffffffffff021916908373ffffffffffffffffffffffffffffffffffffffff1602179055505b5b505050565b6000816040518082805190602001908083835b60208310151561350457805182526020820191506020810190506020830392506134df565b6001836020036101000a03801982511681845116808217855250505050505090500191505060405180910390209050919050565b601960019054906101000a900460ff1681565b60008060003373ffffffffffffffffffffffffffffffffffffffff16600460009054906101000a900473ffffffffffffffffffffffffffffffffffffffff1673ffffffffffffffffffffffffffffffffffffffff16141561390857600085511115156135b657600080fd5b6101008551111515156135c857600080fd5b6000841115156135d757600080fd5b845184111515156135e757600080fd5b600092505b845183101561365557600073ffffffffffffffffffffffffffffffffffffffff16858481518110151561361b57fe5b9060200190602002015173ffffffffffffffffffffffffffffffffffffffff161415151561364857600080fd5b82806001019350506135ec565b7fe62c04bb3499d4f432a50e07318d42861c4865afb22ee4cfe403d4f94550709060028660405180806020018060200183810383528581815481526020019150805480156136f857602002820191906000526020600020905b8160009054906101000a900473ffffffffffffffffffffffffffffffffffffffff1673ffffffffffffffffffffffffffffffffffffffff16815260200190600101908083116136ae575b5050838103825284818151815260200191508051906020019060200280838360005b8381101561373557808201518184015260208101905061371a565b5050505090500194505050505060405180910390a1600092505b6002805490508310156137e6576005600060028581548110151561376f57fe5b906000526020600020900160009054906101000a900473ffffffffffffffffffffffffffffffffffffffff1673ffffffffffffffffffffffffffffffffffffffff1673ffffffffffffffffffffffffffffffffffffffff16815260200190815260200160002060009055828060010193505061374f565b600092505b84518310156138c457600060056000878681518110151561380857fe5b9060200190602002015173ffffffffffffffffffffffffffffffffffffffff1673ffffffffffffffffffffffffffffffffffffffff1681526020019081526020016000205414151561385957600080fd5b6001830160056000878681518110151561386f57fe5b9060200190602002015173ffffffffffffffffffffffffffffffffffffffff1673ffffffffffffffffffffffffffffffffffffffff1681526020019081526020016000208190555082806001019350506137eb565b84600290805190602001906138da929190614519565b508360018190555060006003816138f191906145a3565b506000808154809291906001019190505550613e99565b613911336117a5565b151561391c57600080fd5b6001600560003373ffffffffffffffffffffffffffffffffffffffff1673ffffffffffffffffffffffffffffffffffffffff168152602001908152602001600020540391506000366000546040518084848082843782019150508281526020019350505050604051809103902090506000600760008360001916600019168152602001908152602001600020541415613a045760038054905060066000836000191660001916815260200190815260200160002081905550600380548060010182816139e891906144ed565b9160005260206000209001600083909190915090600019169055505b60008260020a6007600084600019166000191681526020019081526020016000205416141515613a3357600080fd5b8160020a60076000836000191660001916815260200190815260200160002060008282541792505081905550600160086000836000191660001916815260200190815260200160002060008282540192505081905550600154600860008360001916600019168152602001908152602001600020541415613e9857613ab781613f41565b33600460006101000a81548173ffffffffffffffffffffffffffffffffffffffff021916908373ffffffffffffffffffffffffffffffffffffffff16021790555060008551111515613b0857600080fd5b610100855111151515613b1a57600080fd5b600084111515613b2957600080fd5b84518411151515613b3957600080fd5b600092505b8451831015613ba757600073ffffffffffffffffffffffffffffffffffffffff168584815181101515613b6d57fe5b9060200190602002015173ffffffffffffffffffffffffffffffffffffffff1614151515613b9a57600080fd5b8280600101935050613b3e565b7fe62c04bb3499d4f432a50e07318d42861c4865afb22ee4cfe403d4f9455070906002866040518080602001806020018381038352858181548152602001915080548015613c4a57602002820191906000526020600020905b8160009054906101000a900473ffffffffffffffffffffffffffffffffffffffff1673ffffffffffffffffffffffffffffffffffffffff1681526020019060010190808311613c00575b5050838103825284818151815260200191508051906020019060200280838360005b83811015613c87578082015181840152602081019050613c6c565b5050505090500194505050505060405180910390a1600092505b600280549050831015613d385760056000600285815481101515613cc157fe5b906000526020600020900160009054906101000a900473ffffffffffffffffffffffffffffffffffffffff1673ffffffffffffffffffffffffffffffffffffffff1673ffffffffffffffffffffffffffffffffffffffff168152602001908152602001600020600090558280600101935050613ca1565b600092505b8451831015613e16576000600560008786815181101515613d5a57fe5b9060200190602002015173ffffffffffffffffffffffffffffffffffffffff1673ffffffffffffffffffffffffffffffffffffffff16815260200190815260200160002054141515613dab57600080fd5b60018301600560008786815181101515613dc157fe5b9060200190602002015173ffffffffffffffffffffffffffffffffffffffff1673ffffffffffffffffffffffffffffffffffffffff168152602001908152602001600020819055508280600101935050613d3d565b8460029080519060200190613e2c929190614519565b50836001819055506000600381613e4391906145a3565b5060008081548092919060010191905055506000600460006101000a81548173ffffffffffffffffffffffffffffffffffffffff021916908373ffffffffffffffffffffffffffffffffffffffff1602179055505b5b5050505050565b6000600b80549050905090565b6000601460008373ffffffffffffffffffffffffffffffffffffffff1673ffffffffffffffffffffffffffffffffffffffff168152602001908152602001600020549050919050565b600080600e60008473ffffffffffffffffffffffffffffffffffffffff1673ffffffffffffffffffffffffffffffffffffffff16815260200190815260200160002054119050919050565b6000600660008360001916600019168152602001908152602001600020549050600160038054905003811015613ff1576003600160038054905003815481101515613f8857fe5b906000526020600020900154600382815481101515613fa357fe5b906000526020600020900181600019169055508060066000600384815481101515613fca57fe5b90600052602060002090015460001916600019168152602001908152602001600020819055505b600380548091906001900361400691906145a3565b506007600083600019166000191681526020019081526020016000206000905560086000836000191660001916815260200190815260200160002060009055600660008360001916600019168152602001908152602001600020600090555050565b6000600f600083600019166000191681526020019081526020016000205490506001600c805490500381101561411857600c6001600c80549050038154811015156140af57fe5b906000526020600020900154600c828154811015156140ca57fe5b9060005260206000209001816000191690555080600f6000600c848154811015156140f157fe5b90600052602060002090015460001916600019168152602001908152602001600020819055505b600c80548091906001900361412d91906145a3565b506010600083600019166000191681526020019081526020016000206000905560116000836000191660001916815260200190815260200160002060009055600f60008360001916600019168152602001908152602001600020600090555050565b600080600061419d87611c32565b1515156141a957600080fd5b60405180807f737472696e6720766f75636865725f6964000000000000000000000000000000815250601101807f75696e742076616c756500000000000000000000000000000000000000000000815250600a01807f61646472657373206368616e6e656c0000000000000000000000000000000000815250600f01905060405180910390208787876040518084805190602001908083835b6020831015156142675780518252602082019150602081019050602083039250614242565b6001836020036101000a0380198251168184511680821785525050505050509050018381526020018273ffffffffffffffffffffffffffffffffffffffff1673ffffffffffffffffffffffffffffffffffffffff166c01000000000000000000000000028152601401935050505060405180910390206040518083600019166000191681526020018260001916600019168152602001925050506040518091039020915061431582856143d1565b90508073ffffffffffffffffffffffffffffffffffffffff16601660009054906101000a900473ffffffffffffffffffffffffffffffffffffffff1673ffffffffffffffffffffffffffffffffffffffff161492505050949350505050565b600082821115151561438257fe5b818303905092915050565b6000670de0b6b3a7640000821015156143a957600590506143ae565b600290505b919050565b60008082840190508381101515156143c757fe5b8091505092915050565b600080600080604185511415156143e757600080fd5b6020850151925060408501519150606085015160001a9050601b8160ff16101561441257601b810190505b601b8160ff1614806144275750601c8160ff16145b151561443257600080fd5b600186828585604051600081526020016040526000604051602001526040518085600019166000191681526020018460ff1660ff16815260200183600019166000191681526020018260001916600019168152602001945050505050602060405160208103908084039060008661646e5a03f115156144b057600080fd5b505060206040510351935060008473ffffffffffffffffffffffffffffffffffffffff16141515156144e157600080fd5b83935050505092915050565b8154818355818115116145145781836000526020600020918201910161451391906145cf565b5b505050565b828054828255906000526020600020908101928215614592579160200282015b828111156145915782518260006101000a81548173ffffffffffffffffffffffffffffffffffffffff021916908373ffffffffffffffffffffffffffffffffffffffff16021790555091602001919060010190614539565b5b50905061459f91906145f4565b5090565b8154818355818115116145ca578183600052602060002091820191016145c991906145cf565b5b505050565b6145f191905b808211156145ed5760008160009055506001016145d5565b5090565b90565b61463491905b8082111561463057600081816101000a81549073ffffffffffffffffffffffffffffffffffffffff0219169055506001016145fa565b5090565b905600a165627a7a7230582092b6d90de4e1f94fd5b874cfbe5d7965d67abb495a3cbe968ef8b2b0d94bf72f0029",
  "source": "pragma solidity 0.4.18;\n\nimport \"./Pausable.sol\";\nimport \"./Util.sol\";\nimport \"./ECVerify.sol\";\nimport \"./SafeMath.sol\";\n\ncontract Swether is Pausable {\n\n    uint8 constant public MAX_FEE = 20;\n\n    using SafeMath for uint256;\n\n    mapping (address => uint256) internal channels;\n\n    mapping (bytes32 => address) internal usedVouchers;\n\n    address public signerAddress;\n\n    mapping(address => bool) private validators;\n\n    mapping (bytes32 => uint256) private challengePeriods;\n\n    // Flag to prevent reentrancy attack\n    bool private locked = false;\n\n    modifier noReentrancy() {\n        require(!locked);\n        locked = true;\n        _;\n        locked = false;\n    }\n\n    /// @param _signerAddress The address derived from server's private key\n    function setSignerAddress(address _signerAddress) external onlyManyOwners {\n        signerAddress = _signerAddress;\n    }\n\n    function contribute() public payable {\n        channels[msg.sender] = msg.value;\n    }\n\n    uint8 public fee;\n\n    function setFee(uint8 _fee) external onlyManyOwners {\n        require(_fee <= MAX_FEE);\n        fee = _fee;\n    }\n\n\n    function Swether(uint8 _fee, address _signerAddress, address[] _validators) Validatable(_validators) public {\n        require(_fee <= MAX_FEE);\n        require(_signerAddress != address(0));\n        fee = _fee;\n        signerAddress = _signerAddress;\n    }\n\n    function() public payable {\n        contribute();\n    }\n\n    function withdraw(string _id, uint256 _value, address _channel, bytes _messageSignature) external noReentrancy whenChannelNotPaused(_channel) whenNotPaused {\n        require(checkVoucher(_id, _value, _channel, _messageSignature));\n        require(channels[_channel] >= _value);\n        bytes32 key = getKey(_id);\n        require(challengePeriods[key] >= block.number);\n        usedVouchers[key] = msg.sender;\n\n        channels[_channel] = channels[_channel].sub(_value);\n        msg.sender.transfer(_value);\n    }\n\n    function claimExchange(string _id, uint256 _value, address _channel, bytes _messageSignature) external noReentrancy whenChannelNotPaused(_channel) whenNotPaused{\n        require(checkVoucher(_id, _value, _channel, _messageSignature));\n        require(channels[_channel] >= _value);\n        bytes32 key = getKey(_id);\n        uint256 challengePeriod = block.number.add(blocksToWait(_value));\n        challengePeriods[key] = challengePeriod;\n    }\n\n    function getBalance(address owner) external view returns (uint256) {\n        return channels[owner];\n    }\n\n    function checkVoucher(string _id, uint256 _value, address _channel, bytes _messageSignature) private view returns(bool)\n    {\n        require(!isVoucherUsed(_id));\n        bytes32 message_hash = keccak256(\n            keccak256(\n            'string voucher_id',\n            'uint value',\n            'address channel'\n            ),\n            keccak256(\n            _id,\n            _value,\n            _channel\n            )\n        );\n        // Derive address from signature\n        address signer = ECVerify.ecverify(message_hash, _messageSignature);\n        return signerAddress == signer;\n    }\n\n    function getKey(string _id) public pure returns (bytes32 data)\n    {\n        return keccak256(_id);\n    }\n\n    function isVoucherUsed(string _id) public view returns (bool) {\n        bytes32 key = getKey(_id);\n        return usedVouchers[key] != 0;\n    }\n\n    function blocksToWait(uint256 _value) internal pure returns(uint8){\n        if (_value >= 1 ether) {\n            return 5;\n        }\n        return 2;\n    }\n\n}\n",
  "sourcePath": "/home/dzentota/www/swether/contracts/Swether.sol",
  "compiler": {
    "name": "solc",
    "version": "0.4.18+commit.9cf6e910.Emscripten.clang"
  },
  "schemaVersion": "1.0.1",
  "updatedAt": "2018-04-21T14:30:40.700Z"
}