{
  "contractName": "Swether",
  "abi": [
    {
      "constant": true,
      "inputs": [
        {
          "name": "",
          "type": "uint256"
        }
      ],
      "name": "owners",
      "outputs": [
        {
          "name": "",
          "type": "address"
        }
      ],
      "payable": false,
      "stateMutability": "view",
      "type": "function"
    },
    {
      "constant": false,
      "inputs": [
        {
          "name": "_signerAddress",
          "type": "address"
        }
      ],
      "name": "setSignerAddress",
      "outputs": [],
      "payable": false,
      "stateMutability": "nonpayable",
      "type": "function"
    },
    {
      "constant": false,
      "inputs": [
        {
          "name": "newOwners",
          "type": "address[]"
        }
      ],
      "name": "transferOwnership",
      "outputs": [],
      "payable": false,
      "stateMutability": "nonpayable",
      "type": "function"
    },
    {
      "constant": true,
      "inputs": [],
      "name": "allOperationsCount",
      "outputs": [
        {
          "name": "",
          "type": "uint256"
        }
      ],
      "payable": false,
      "stateMutability": "view",
      "type": "function"
    },
    {
      "constant": false,
      "inputs": [
        {
          "name": "_channel",
          "type": "address"
        }
      ],
      "name": "pauseChannel",
      "outputs": [],
      "payable": false,
      "stateMutability": "nonpayable",
      "type": "function"
    },
    {
      "constant": true,
      "inputs": [],
      "name": "howManyOwnersDecide",
      "outputs": [
        {
          "name": "",
          "type": "uint256"
        }
      ],
      "payable": false,
      "stateMutability": "view",
      "type": "function"
    },
    {
      "constant": true,
      "inputs": [
        {
          "name": "wallet",
          "type": "address"
        }
      ],
      "name": "isOwner",
      "outputs": [
        {
          "name": "",
          "type": "bool"
        }
      ],
      "payable": false,
      "stateMutability": "view",
      "type": "function"
    },
    {
      "constant": true,
      "inputs": [
        {
          "name": "",
          "type": "uint256"
        }
      ],
      "name": "validators",
      "outputs": [
        {
          "name": "",
          "type": "address"
        }
      ],
      "payable": false,
      "stateMutability": "view",
      "type": "function"
    },
    {
      "constant": false,
      "inputs": [
        {
          "name": "_id",
          "type": "string"
        },
        {
          "name": "_value",
          "type": "uint256"
        },
        {
          "name": "_channel",
          "type": "address"
        },
        {
          "name": "v",
          "type": "uint8"
        },
        {
          "name": "r",
          "type": "bytes32"
        },
        {
          "name": "s",
          "type": "bytes32"
        }
      ],
      "name": "claimExchange",
      "outputs": [],
      "payable": false,
      "stateMutability": "nonpayable",
      "type": "function"
    },
    {
      "constant": true,
      "inputs": [],
      "name": "howManyValidatorsDecide",
      "outputs": [
        {
          "name": "",
          "type": "uint256"
        }
      ],
      "payable": false,
      "stateMutability": "view",
      "type": "function"
    },
    {
      "constant": false,
      "inputs": [],
      "name": "unpause",
      "outputs": [],
      "payable": false,
      "stateMutability": "nonpayable",
      "type": "function"
    },
    {
      "constant": true,
      "inputs": [
        {
          "name": "",
          "type": "uint256"
        }
      ],
      "name": "allOperations",
      "outputs": [
        {
          "name": "",
          "type": "bytes32"
        }
      ],
      "payable": false,
      "stateMutability": "view",
      "type": "function"
    },
    {
      "constant": true,
      "inputs": [
        {
          "name": "",
          "type": "bytes32"
        }
      ],
      "name": "votesMaskByOperation",
      "outputs": [
        {
          "name": "",
          "type": "uint256"
        }
      ],
      "payable": false,
      "stateMutability": "view",
      "type": "function"
    },
    {
      "constant": false,
      "inputs": [
        {
          "name": "newValidators",
          "type": "address[]"
        }
      ],
      "name": "transferValidatorRights",
      "outputs": [],
      "payable": false,
      "stateMutability": "nonpayable",
      "type": "function"
    },
    {
      "constant": true,
      "inputs": [],
      "name": "signerAddress",
      "outputs": [
        {
          "name": "",
          "type": "address"
        }
      ],
      "payable": false,
      "stateMutability": "view",
      "type": "function"
    },
    {
      "constant": true,
      "inputs": [
        {
          "name": "",
          "type": "address"
        }
      ],
      "name": "pausedChannels",
      "outputs": [
        {
          "name": "",
          "type": "bool"
        }
      ],
      "payable": false,
      "stateMutability": "view",
      "type": "function"
    },
    {
      "constant": true,
      "inputs": [],
      "name": "paused",
      "outputs": [
        {
          "name": "",
          "type": "bool"
        }
      ],
      "payable": false,
      "stateMutability": "view",
      "type": "function"
    },
    {
      "constant": true,
      "inputs": [
        {
          "name": "_id",
          "type": "string"
        }
      ],
      "name": "isVoucherUsed",
      "outputs": [
        {
          "name": "",
          "type": "bool"
        }
      ],
      "payable": false,
      "stateMutability": "view",
      "type": "function"
    },
    {
      "constant": true,
      "inputs": [],
      "name": "validatorsGeneration",
      "outputs": [
        {
          "name": "",
          "type": "uint256"
        }
      ],
      "payable": false,
      "stateMutability": "view",
      "type": "function"
    },
    {
      "constant": false,
      "inputs": [
        {
          "name": "newValidators",
          "type": "address[]"
        },
        {
          "name": "newHowManyValidatorsDecide",
          "type": "uint256"
        }
      ],
      "name": "transferValidatorRightsWithHowMany",
      "outputs": [],
      "payable": false,
      "stateMutability": "nonpayable",
      "type": "function"
    },
    {
      "constant": true,
      "inputs": [
        {
          "name": "",
          "type": "bytes32"
        }
      ],
      "name": "votesCountByValidatorOperation",
      "outputs": [
        {
          "name": "",
          "type": "uint256"
        }
      ],
      "payable": false,
      "stateMutability": "view",
      "type": "function"
    },
    {
      "constant": true,
      "inputs": [],
      "name": "allValidatorsOperationsCount",
      "outputs": [
        {
          "name": "",
          "type": "uint256"
        }
      ],
      "payable": false,
      "stateMutability": "view",
      "type": "function"
    },
    {
      "constant": false,
      "inputs": [],
      "name": "pause",
      "outputs": [],
      "payable": false,
      "stateMutability": "nonpayable",
      "type": "function"
    },
    {
      "constant": false,
      "inputs": [
        {
          "name": "_channel",
          "type": "address"
        }
      ],
      "name": "unpauseChannel",
      "outputs": [],
      "payable": false,
      "stateMutability": "nonpayable",
      "type": "function"
    },
    {
      "constant": false,
      "inputs": [
        {
          "name": "operation",
          "type": "bytes32"
        }
      ],
      "name": "cancelPending",
      "outputs": [],
      "payable": false,
      "stateMutability": "nonpayable",
      "type": "function"
    },
    {
      "constant": true,
      "inputs": [
        {
          "name": "",
          "type": "uint256"
        }
      ],
      "name": "allValidatorsOperations",
      "outputs": [
        {
          "name": "",
          "type": "bytes32"
        }
      ],
      "payable": false,
      "stateMutability": "view",
      "type": "function"
    },
    {
      "constant": true,
      "inputs": [
        {
          "name": "",
          "type": "bytes32"
        }
      ],
      "name": "votesCountByOperation",
      "outputs": [
        {
          "name": "",
          "type": "uint256"
        }
      ],
      "payable": false,
      "stateMutability": "view",
      "type": "function"
    },
    {
      "constant": false,
      "inputs": [
        {
          "name": "_id",
          "type": "string"
        },
        {
          "name": "_value",
          "type": "uint256"
        },
        {
          "name": "_channel",
          "type": "address"
        },
        {
          "name": "v",
          "type": "uint8"
        },
        {
          "name": "r",
          "type": "bytes32"
        },
        {
          "name": "s",
          "type": "bytes32"
        }
      ],
      "name": "withdraw",
      "outputs": [],
      "payable": false,
      "stateMutability": "nonpayable",
      "type": "function"
    },
    {
      "constant": true,
      "inputs": [
        {
          "name": "",
          "type": "bytes32"
        }
      ],
      "name": "votesMaskByValidatorOperation",
      "outputs": [
        {
          "name": "",
          "type": "uint256"
        }
      ],
      "payable": false,
      "stateMutability": "view",
      "type": "function"
    },
    {
      "constant": true,
      "inputs": [],
      "name": "ownersGeneration",
      "outputs": [
        {
          "name": "",
          "type": "uint256"
        }
      ],
      "payable": false,
      "stateMutability": "view",
      "type": "function"
    },
    {
      "constant": true,
      "inputs": [],
      "name": "ownersCount",
      "outputs": [
        {
          "name": "",
          "type": "uint256"
        }
      ],
      "payable": false,
      "stateMutability": "view",
      "type": "function"
    },
    {
      "constant": true,
      "inputs": [],
      "name": "MAX_FEE",
      "outputs": [
        {
          "name": "",
          "type": "uint8"
        }
      ],
      "payable": false,
      "stateMutability": "view",
      "type": "function"
    },
    {
      "constant": false,
      "inputs": [
        {
          "name": "_fee",
          "type": "uint8"
        }
      ],
      "name": "setFee",
      "outputs": [],
      "payable": false,
      "stateMutability": "nonpayable",
      "type": "function"
    },
    {
      "constant": true,
      "inputs": [
        {
          "name": "_id",
          "type": "string"
        }
      ],
      "name": "getKey",
      "outputs": [
        {
          "name": "data",
          "type": "bytes32"
        }
      ],
      "payable": false,
      "stateMutability": "pure",
      "type": "function"
    },
    {
      "constant": false,
      "inputs": [],
      "name": "contribute",
      "outputs": [],
      "payable": true,
      "stateMutability": "payable",
      "type": "function"
    },
    {
      "constant": true,
      "inputs": [],
      "name": "fee",
      "outputs": [
        {
          "name": "",
          "type": "uint8"
        }
      ],
      "payable": false,
      "stateMutability": "view",
      "type": "function"
    },
    {
      "constant": false,
      "inputs": [
        {
          "name": "newOwners",
          "type": "address[]"
        },
        {
          "name": "newHowManyOwnersDecide",
          "type": "uint256"
        }
      ],
      "name": "transferOwnershipWithHowMany",
      "outputs": [],
      "payable": false,
      "stateMutability": "nonpayable",
      "type": "function"
    },
    {
      "constant": true,
      "inputs": [],
      "name": "validatorsCount",
      "outputs": [
        {
          "name": "",
          "type": "uint256"
        }
      ],
      "payable": false,
      "stateMutability": "view",
      "type": "function"
    },
    {
      "constant": true,
      "inputs": [
        {
          "name": "owner",
          "type": "address"
        }
      ],
      "name": "getBalance",
      "outputs": [
        {
          "name": "",
          "type": "uint256"
        }
      ],
      "payable": false,
      "stateMutability": "view",
      "type": "function"
    },
    {
      "constant": true,
      "inputs": [
        {
          "name": "wallet",
          "type": "address"
        }
      ],
      "name": "isValidator",
      "outputs": [
        {
          "name": "",
          "type": "bool"
        }
      ],
      "payable": false,
      "stateMutability": "view",
      "type": "function"
    },
    {
      "inputs": [
        {
          "name": "_fee",
          "type": "uint8"
        },
        {
          "name": "_signerAddress",
          "type": "address"
        },
        {
          "name": "_validators",
          "type": "address[]"
        }
      ],
      "payable": false,
      "stateMutability": "nonpayable",
      "type": "constructor"
    },
    {
      "payable": true,
      "stateMutability": "payable",
      "type": "fallback"
    },
    {
      "anonymous": false,
      "inputs": [],
      "name": "Pause",
      "type": "event"
    },
    {
      "anonymous": false,
      "inputs": [],
      "name": "Unpause",
      "type": "event"
    },
    {
      "anonymous": false,
      "inputs": [
        {
          "indexed": true,
          "name": "channel",
          "type": "address"
        }
      ],
      "name": "ChannelPaused",
      "type": "event"
    },
    {
      "anonymous": false,
      "inputs": [
        {
          "indexed": true,
          "name": "channel",
          "type": "address"
        }
      ],
      "name": "ChannelUnpaused",
      "type": "event"
    },
    {
      "anonymous": false,
      "inputs": [
        {
          "indexed": false,
          "name": "previousValidators",
          "type": "address[]"
        },
        {
          "indexed": false,
          "name": "newValidators",
          "type": "address[]"
        }
      ],
      "name": "ValidatorRightsTransferred",
      "type": "event"
    },
    {
      "anonymous": false,
      "inputs": [
        {
          "indexed": false,
          "name": "previousOwners",
          "type": "address[]"
        },
        {
          "indexed": false,
          "name": "newOwners",
          "type": "address[]"
        }
      ],
      "name": "OwnershipTransferred",
      "type": "event"
    }
  ],
  "bytecode": "0x60606040526000601260006101000a81548160ff0219169083151502179055506000601960006101000a81548160ff02191690831515021790555034156200004657600080fd5b604051620054a6380380620054a68339810160405280805190602001909190805190602001909190805182019190505080600280548060010182816200008d919062000d58565b9160005260206000209001600033909190916101000a81548173ffffffffffffffffffffffffffffffffffffffff021916908373ffffffffffffffffffffffffffffffffffffffff160217905550506001600560003373ffffffffffffffffffffffffffffffffffffffff1673ffffffffffffffffffffffffffffffffffffffff16815260200190815260200160002081905550600180819055506200014781620002016401000000000262001aa9176401000000009004565b50601460ff168360ff16111515156200015f57600080fd5b600073ffffffffffffffffffffffffffffffffffffffff168273ffffffffffffffffffffffffffffffffffffffff16141515156200019c57600080fd5b82601960016101000a81548160ff021916908360ff16021790555081601660006101000a81548173ffffffffffffffffffffffffffffffffffffffff021916908373ffffffffffffffffffffffffffffffffffffffff16021790555050505062000f0a565b62000222818251620002256401000000000262001b82176401000000009004565b50565b60008060003373ffffffffffffffffffffffffffffffffffffffff16600460009054906101000a900473ffffffffffffffffffffffffffffffffffffffff1673ffffffffffffffffffffffffffffffffffffffff161415620005fd57600085511115156200029257600080fd5b610100855111151515620002a557600080fd5b600084111515620002b557600080fd5b84518411151515620002c657600080fd5b600092505b84518310156200033857600073ffffffffffffffffffffffffffffffffffffffff168584815181101515620002fc57fe5b9060200190602002015173ffffffffffffffffffffffffffffffffffffffff16141515156200032a57600080fd5b8280600101935050620002cb565b7f835b136e5699f0b4eecdacc30c533f02289b11aef9f282819321fd5a0af25d86600b866040518080602001806020018381038352858181548152602001915080548015620003dd57602002820191906000526020600020905b8160009054906101000a900473ffffffffffffffffffffffffffffffffffffffff1673ffffffffffffffffffffffffffffffffffffffff168152602001906001019080831162000392575b5050838103825284818151815260200191508051906020019060200280838360005b838110156200041c578082015181840152602081019050620003ff565b5050505090500194505050505060405180910390a1600092505b600b80549050831015620004d057600e6000600b858154811015156200045857fe5b906000526020600020900160009054906101000a900473ffffffffffffffffffffffffffffffffffffffff1673ffffffffffffffffffffffffffffffffffffffff1673ffffffffffffffffffffffffffffffffffffffff16815260200190815260200160002060009055828060010193505062000436565b600092505b8451831015620005b3576000600e60008786815181101515620004f457fe5b9060200190602002015173ffffffffffffffffffffffffffffffffffffffff1673ffffffffffffffffffffffffffffffffffffffff168152602001908152602001600020541415156200054657600080fd5b60018301600e600087868151811015156200055d57fe5b9060200190602002015173ffffffffffffffffffffffffffffffffffffffff1673ffffffffffffffffffffffffffffffffffffffff168152602001908152602001600020819055508280600101935050620004d5565b84600b9080519060200190620005cb92919062000d87565b5083600a819055506000600c81620005e4919062000e16565b5060096000815480929190600101919050555062000bd9565b6200061c3362000be06401000000000262001496176401000000009004565b15156200062857600080fd5b6001600560003373ffffffffffffffffffffffffffffffffffffffff1673ffffffffffffffffffffffffffffffffffffffff16815260200190815260200160002054039150600036600054604051808484808284378201915050828152602001935050505060405180910390209050600060076000836000191660001916815260200190815260200160002054141562000713576003805490506006600083600019166000191681526020019081526020016000208190555060038054806001018281620006f7919062000e45565b9160005260206000209001600083909190915090600019169055505b60008260020a60076000846000191660001916815260200190815260200160002054161415156200074357600080fd5b8160020a6007600083600019166000191681526020019081526020016000206000828254179250508190555060016008600083600019166000191681526020019081526020016000206000828254019250508190555060015460086000836000191660001916815260200190815260200160002054141562000bd857620007de8162000c2b6401000000000262003f07176401000000009004565b33600460006101000a81548173ffffffffffffffffffffffffffffffffffffffff021916908373ffffffffffffffffffffffffffffffffffffffff160217905550600085511115156200083057600080fd5b6101008551111515156200084357600080fd5b6000841115156200085357600080fd5b845184111515156200086457600080fd5b600092505b8451831015620008d657600073ffffffffffffffffffffffffffffffffffffffff1685848151811015156200089a57fe5b9060200190602002015173ffffffffffffffffffffffffffffffffffffffff1614151515620008c857600080fd5b828060010193505062000869565b7f835b136e5699f0b4eecdacc30c533f02289b11aef9f282819321fd5a0af25d86600b8660405180806020018060200183810383528581815481526020019150805480156200097b57602002820191906000526020600020905b8160009054906101000a900473ffffffffffffffffffffffffffffffffffffffff1673ffffffffffffffffffffffffffffffffffffffff168152602001906001019080831162000930575b5050838103825284818151815260200191508051906020019060200280838360005b83811015620009ba5780820151818401526020810190506200099d565b5050505090500194505050505060405180910390a1600092505b600b8054905083101562000a6e57600e6000600b85815481101515620009f657fe5b906000526020600020900160009054906101000a900473ffffffffffffffffffffffffffffffffffffffff1673ffffffffffffffffffffffffffffffffffffffff1673ffffffffffffffffffffffffffffffffffffffff168152602001908152602001600020600090558280600101935050620009d4565b600092505b845183101562000b51576000600e6000878681518110151562000a9257fe5b9060200190602002015173ffffffffffffffffffffffffffffffffffffffff1673ffffffffffffffffffffffffffffffffffffffff1681526020019081526020016000205414151562000ae457600080fd5b60018301600e6000878681518110151562000afb57fe5b9060200190602002015173ffffffffffffffffffffffffffffffffffffffff1673ffffffffffffffffffffffffffffffffffffffff16815260200190815260200160002081905550828060010193505062000a73565b84600b908051906020019062000b6992919062000d87565b5083600a819055506000600c8162000b82919062000e16565b506009600081548092919060010191905055506000600460006101000a81548173ffffffffffffffffffffffffffffffffffffffff021916908373ffffffffffffffffffffffffffffffffffffffff1602179055505b5b5050505050565b600080600560008473ffffffffffffffffffffffffffffffffffffffff1673ffffffffffffffffffffffffffffffffffffffff16815260200190815260200160002054119050919050565b600060066000836000191660001916815260200190815260200160002054905060016003805490500381101562000cdf57600360016003805490500381548110151562000c7457fe5b90600052602060002090015460038281548110151562000c9057fe5b90600052602060002090018160001916905550806006600060038481548110151562000cb857fe5b90600052602060002090015460001916600019168152602001908152602001600020819055505b600380548091906001900362000cf6919062000e16565b506007600083600019166000191681526020019081526020016000206000905560086000836000191660001916815260200190815260200160002060009055600660008360001916600019168152602001908152602001600020600090555050565b81548183558181151162000d825781836000526020600020918201910162000d81919062000e74565b5b505050565b82805482825590600052602060002090810192821562000e03579160200282015b8281111562000e025782518260006101000a81548173ffffffffffffffffffffffffffffffffffffffff021916908373ffffffffffffffffffffffffffffffffffffffff1602179055509160200191906001019062000da8565b5b50905062000e12919062000e9c565b5090565b81548183558181151162000e405781836000526020600020918201910162000e3f919062000ee2565b5b505050565b81548183558181151162000e6f5781836000526020600020918201910162000e6e919062000ee2565b5b505050565b62000e9991905b8082111562000e9557600081600090555060010162000e7b565b5090565b90565b62000edf91905b8082111562000edb57600081816101000a81549073ffffffffffffffffffffffffffffffffffffffff02191690555060010162000ea3565b5090565b90565b62000f0791905b8082111562000f0357600081600090555060010162000ee9565b5090565b90565b61458c8062000f1a6000396000f3006060604052600436106101ee576000357c0100000000000000000000000000000000000000000000000000000000900463ffffffff168063025e7c27146101f8578063046dc1661461025b57806318bcd3d01461029457806322f2f89a146102ee57806323c1367d146103175780632f4a81df146103505780632f54bf6e1461037957806335aa2e44146103ca5780633cf3e0ca1461042d5780633e8b4887146104a95780633f4ba83a146104d2578063431ab233146104e7578063568b591514610526578063588cb7df146105615780635b7633d0146105bb5780635c6dadb8146106105780635c975abb146106615780635f77fd0a1461068e57806362f5f24414610703578063786da3e31461072c5780637bda1cab1461078f57806384192a52146107ca5780638456cb59146107f3578063871e609c14610808578063893372ca146108415780638e269a0e1461086857806390a53085146108a757806396a014f1146108e2578063ae7912eb1461095e578063b25bb3a714610999578063b9488546146109c2578063bc063e1a146109eb578063cb122a0914610a1a578063d37aec9214610a40578063d7bb99ba14610ab9578063ddca3f4314610ac3578063e851834114610af2578063ed612f8c14610b55578063f8b2cb4f14610b7e578063facd743b14610bcb575b6101f6610c1c565b005b341561020357600080fd5b6102196004808035906020019091905050610c62565b604051808273ffffffffffffffffffffffffffffffffffffffff1673ffffffffffffffffffffffffffffffffffffffff16815260200191505060405180910390f35b341561026657600080fd5b610292600480803573ffffffffffffffffffffffffffffffffffffffff16906020019091905050610ca1565b005b341561029f57600080fd5b6102ec600480803590602001908201803590602001908080602002602001604051908101604052809392919081815260200183836020028082843782019150505050505091905050610fba565b005b34156102f957600080fd5b610301610fc8565b6040518082815260200191505060405180910390f35b341561032257600080fd5b61034e600480803573ffffffffffffffffffffffffffffffffffffffff16906020019091905050610fd5565b005b341561035b57600080fd5b610363611490565b6040518082815260200191505060405180910390f35b341561038457600080fd5b6103b0600480803573ffffffffffffffffffffffffffffffffffffffff16906020019091905050611496565b604051808215151515815260200191505060405180910390f35b34156103d557600080fd5b6103eb60048080359060200190919050506114e1565b604051808273ffffffffffffffffffffffffffffffffffffffff1673ffffffffffffffffffffffffffffffffffffffff16815260200191505060405180910390f35b341561043857600080fd5b6104a76004808035906020019082018035906020019190919290803590602001909190803573ffffffffffffffffffffffffffffffffffffffff1690602001909190803560ff169060200190919080356000191690602001909190803560001916906020019091905050611520565b005b34156104b457600080fd5b6104bc61170d565b6040518082815260200191505060405180910390f35b34156104dd57600080fd5b6104e5611713565b005b34156104f257600080fd5b6105086004808035906020019091905050611a6d565b60405180826000191660001916815260200191505060405180910390f35b341561053157600080fd5b61054b600480803560001916906020019091905050611a91565b6040518082815260200191505060405180910390f35b341561056c57600080fd5b6105b9600480803590602001908201803590602001908080602002602001604051908101604052809392919081815260200183836020028082843782019150505050505091905050611aa9565b005b34156105c657600080fd5b6105ce611ab7565b604051808273ffffffffffffffffffffffffffffffffffffffff1673ffffffffffffffffffffffffffffffffffffffff16815260200191505060405180910390f35b341561061b57600080fd5b610647600480803573ffffffffffffffffffffffffffffffffffffffff16906020019091905050611add565b604051808215151515815260200191505060405180910390f35b341561066c57600080fd5b610674611afd565b604051808215151515815260200191505060405180910390f35b341561069957600080fd5b6106e9600480803590602001908201803590602001908080601f01602080910402602001604051908101604052809392919081815260200183838082843782019150505050505091905050611b10565b604051808215151515815260200191505060405180910390f35b341561070e57600080fd5b610716611b7c565b6040518082815260200191505060405180910390f35b341561073757600080fd5b61078d600480803590602001908201803590602001908080602002602001604051908101604052809392919081815260200183836020028082843782019150505050505091908035906020019091905050611b82565b005b341561079a57600080fd5b6107b46004808035600019169060200190919050506124d9565b6040518082815260200191505060405180910390f35b34156107d557600080fd5b6107dd6124f1565b6040518082815260200191505060405180910390f35b34156107fe57600080fd5b6108066124fe565b005b341561081357600080fd5b61083f600480803573ffffffffffffffffffffffffffffffffffffffff1690602001909190505061285a565b005b341561084c57600080fd5b610866600480803560001916906020019091905050612d13565b005b341561087357600080fd5b6108896004808035906020019091905050612e29565b60405180826000191660001916815260200191505060405180910390f35b34156108b257600080fd5b6108cc600480803560001916906020019091905050612e4d565b6040518082815260200191505060405180910390f35b34156108ed57600080fd5b61095c6004808035906020019082018035906020019190919290803590602001909190803573ffffffffffffffffffffffffffffffffffffffff1690602001909190803560ff169060200190919080356000191690602001909190803560001916906020019091905050612e65565b005b341561096957600080fd5b610983600480803560001916906020019091905050613169565b6040518082815260200191505060405180910390f35b34156109a457600080fd5b6109ac613181565b6040518082815260200191505060405180910390f35b34156109cd57600080fd5b6109d5613187565b6040518082815260200191505060405180910390f35b34156109f657600080fd5b6109fe613194565b604051808260ff1660ff16815260200191505060405180910390f35b3415610a2557600080fd5b610a3e600480803560ff16906020019091905050613199565b005b3415610a4b57600080fd5b610a9b600480803590602001908201803590602001908080601f01602080910402602001604051908101604052809392919081815260200183838082843782019150505050505091905050613492565b60405180826000191660001916815260200191505060405180910390f35b610ac1610c1c565b005b3415610ace57600080fd5b610ad66134fe565b604051808260ff1660ff16815260200191505060405180910390f35b3415610afd57600080fd5b610b53600480803590602001908201803590602001908080602002602001604051908101604052809392919081815260200183836020028082843782019150505050505091908035906020019091905050613511565b005b3415610b6057600080fd5b610b68613e66565b6040518082815260200191505060405180910390f35b3415610b8957600080fd5b610bb5600480803573ffffffffffffffffffffffffffffffffffffffff16906020019091905050613e73565b6040518082815260200191505060405180910390f35b3415610bd657600080fd5b610c02600480803573ffffffffffffffffffffffffffffffffffffffff16906020019091905050613ebc565b604051808215151515815260200191505060405180910390f35b34601460003373ffffffffffffffffffffffffffffffffffffffff1673ffffffffffffffffffffffffffffffffffffffff16815260200190815260200160002081905550565b600281815481101515610c7157fe5b90600052602060002090016000915054906101000a900473ffffffffffffffffffffffffffffffffffffffff1681565b6000803373ffffffffffffffffffffffffffffffffffffffff16600460009054906101000a900473ffffffffffffffffffffffffffffffffffffffff1673ffffffffffffffffffffffffffffffffffffffff161415610d405782601660006101000a81548173ffffffffffffffffffffffffffffffffffffffff021916908373ffffffffffffffffffffffffffffffffffffffff160217905550610fb5565b610d4933611496565b1515610d5457600080fd5b6001600560003373ffffffffffffffffffffffffffffffffffffffff1673ffffffffffffffffffffffffffffffffffffffff168152602001908152602001600020540391506000366000546040518084848082843782019150508281526020019350505050604051809103902090506000600760008360001916600019168152602001908152602001600020541415610e3c576003805490506006600083600019166000191681526020019081526020016000208190555060038054806001018281610e209190614416565b9160005260206000209001600083909190915090600019169055505b60008260020a6007600084600019166000191681526020019081526020016000205416141515610e6b57600080fd5b8160020a60076000836000191660001916815260200190815260200160002060008282541792505081905550600160086000836000191660001916815260200190815260200160002060008282540192505081905550600154600860008360001916600019168152602001908152602001600020541415610fb457610eef81613f07565b33600460006101000a81548173ffffffffffffffffffffffffffffffffffffffff021916908373ffffffffffffffffffffffffffffffffffffffff16021790555082601660006101000a81548173ffffffffffffffffffffffffffffffffffffffff021916908373ffffffffffffffffffffffffffffffffffffffff1602179055506000600460006101000a81548173ffffffffffffffffffffffffffffffffffffffff021916908373ffffffffffffffffffffffffffffffffffffffff1602179055505b5b505050565b610fc5818251613511565b50565b6000600380549050905090565b6000803373ffffffffffffffffffffffffffffffffffffffff16600d60009054906101000a900473ffffffffffffffffffffffffffffffffffffffff1673ffffffffffffffffffffffffffffffffffffffff1614156111455782601360008273ffffffffffffffffffffffffffffffffffffffff1673ffffffffffffffffffffffffffffffffffffffff16815260200190815260200160002060009054906101000a900460ff1615151561108857600080fd5b601260009054906101000a900460ff161515156110a457600080fd5b6001601360008673ffffffffffffffffffffffffffffffffffffffff1673ffffffffffffffffffffffffffffffffffffffff16815260200190815260200160002060006101000a81548160ff0219169083151502179055508373ffffffffffffffffffffffffffffffffffffffff167f62ee11eaa99fe24bc15e2dc526a05112fd499433cf419dc95b5fa91b71636c1660405160405180910390a25061148b565b61114e33613ebc565b151561115957600080fd5b6001600e60003373ffffffffffffffffffffffffffffffffffffffff1673ffffffffffffffffffffffffffffffffffffffff16815260200190815260200160002054039150600036600954604051808484808284378201915050828152602001935050505060405180910390209050600060106000836000191660001916815260200190815260200160002054141561124157600380549050600f6000836000191660001916815260200190815260200160002081905550600c80548060010182816112259190614416565b9160005260206000209001600083909190915090600019169055505b60008260020a601060008460001916600019168152602001908152602001600020541614151561127057600080fd5b8160020a60106000836000191660001916815260200190815260200160002060008282541792505081905550600160116000836000191660001916815260200190815260200160002060008282540192505081905550600a5460116000836000191660001916815260200190815260200160002054141561148a576112f48161402e565b33600d60006101000a81548173ffffffffffffffffffffffffffffffffffffffff021916908373ffffffffffffffffffffffffffffffffffffffff16021790555082601360008273ffffffffffffffffffffffffffffffffffffffff1673ffffffffffffffffffffffffffffffffffffffff16815260200190815260200160002060009054906101000a900460ff1615151561138f57600080fd5b601260009054906101000a900460ff161515156113ab57600080fd5b6001601360008673ffffffffffffffffffffffffffffffffffffffff1673ffffffffffffffffffffffffffffffffffffffff16815260200190815260200160002060006101000a81548160ff0219169083151502179055508373ffffffffffffffffffffffffffffffffffffffff167f62ee11eaa99fe24bc15e2dc526a05112fd499433cf419dc95b5fa91b71636c1660405160405180910390a2506000600d60006101000a81548173ffffffffffffffffffffffffffffffffffffffff021916908373ffffffffffffffffffffffffffffffffffffffff1602179055505b5b505050565b60015481565b600080600560008473ffffffffffffffffffffffffffffffffffffffff1673ffffffffffffffffffffffffffffffffffffffff16815260200190815260200160002054119050919050565b600b818154811015156114f057fe5b90600052602060002090016000915054906101000a900473ffffffffffffffffffffffffffffffffffffffff1681565b600080601960009054906101000a900460ff1615151561153f57600080fd5b6001601960006101000a81548160ff02191690831515021790555085601360008273ffffffffffffffffffffffffffffffffffffffff1673ffffffffffffffffffffffffffffffffffffffff16815260200190815260200160002060009054906101000a900460ff161515156115b457600080fd5b601260009054906101000a900460ff161515156115d057600080fd5b6116108a8a8080601f0160208091040260200160405190810160405280939291908181526020018383808284378201915050505050508989898989614155565b151561161b57600080fd5b87601460008973ffffffffffffffffffffffffffffffffffffffff1673ffffffffffffffffffffffffffffffffffffffff168152602001908152602001600020541015151561166957600080fd5b6116a48a8a8080601f016020809104026020016040519081016040528093929190818152602001838380828437820191505050505050613492565b92506116c46116b2896143b9565b60ff16436143df90919063ffffffff16565b91508160186000856000191660001916815260200190815260200160002081905550506000601960006101000a81548160ff021916908315150217905550505050505050505050565b600a5481565b6000803373ffffffffffffffffffffffffffffffffffffffff16600460009054906101000a900473ffffffffffffffffffffffffffffffffffffffff1673ffffffffffffffffffffffffffffffffffffffff1614156117d357601260009054906101000a900460ff16151561178757600080fd5b6000601260006101000a81548160ff0219169083151502179055507f7805862f689e2f13df9f062ff482ad3ad112aca9e0847911ed832e158c525b3360405160405180910390a1611a69565b6117dc33611496565b15156117e757600080fd5b6001600560003373ffffffffffffffffffffffffffffffffffffffff1673ffffffffffffffffffffffffffffffffffffffff1681526020019081526020016000205403915060003660005460405180848480828437820191505082815260200193505050506040518091039020905060006007600083600019166000191681526020019081526020016000205414156118cf5760038054905060066000836000191660001916815260200190815260200160002081905550600380548060010182816118b39190614416565b9160005260206000209001600083909190915090600019169055505b60008260020a60076000846000191660001916815260200190815260200160002054161415156118fe57600080fd5b8160020a60076000836000191660001916815260200190815260200160002060008282541792505081905550600160086000836000191660001916815260200190815260200160002060008282540192505081905550600154600860008360001916600019168152602001908152602001600020541415611a685761198281613f07565b33600460006101000a81548173ffffffffffffffffffffffffffffffffffffffff021916908373ffffffffffffffffffffffffffffffffffffffff160217905550601260009054906101000a900460ff1615156119de57600080fd5b6000601260006101000a81548160ff0219169083151502179055507f7805862f689e2f13df9f062ff482ad3ad112aca9e0847911ed832e158c525b3360405160405180910390a16000600460006101000a81548173ffffffffffffffffffffffffffffffffffffffff021916908373ffffffffffffffffffffffffffffffffffffffff1602179055505b5b5050565b600381815481101515611a7c57fe5b90600052602060002090016000915090505481565b60076020528060005260406000206000915090505481565b611ab4818251611b82565b50565b601660009054906101000a900473ffffffffffffffffffffffffffffffffffffffff1681565b60136020528060005260406000206000915054906101000a900460ff1681565b601260009054906101000a900460ff1681565b600080611b1c83613492565b9050600060156000836000191660001916815260200190815260200160002060009054906101000a900473ffffffffffffffffffffffffffffffffffffffff1673ffffffffffffffffffffffffffffffffffffffff161415915050919050565b60095481565b60008060003373ffffffffffffffffffffffffffffffffffffffff16600460009054906101000a900473ffffffffffffffffffffffffffffffffffffffff1673ffffffffffffffffffffffffffffffffffffffff161415611f405760008551111515611bed57600080fd5b610100855111151515611bff57600080fd5b600084111515611c0e57600080fd5b84518411151515611c1e57600080fd5b600092505b8451831015611c8c57600073ffffffffffffffffffffffffffffffffffffffff168584815181101515611c5257fe5b9060200190602002015173ffffffffffffffffffffffffffffffffffffffff1614151515611c7f57600080fd5b8280600101935050611c23565b7f835b136e5699f0b4eecdacc30c533f02289b11aef9f282819321fd5a0af25d86600b866040518080602001806020018381038352858181548152602001915080548015611d2f57602002820191906000526020600020905b8160009054906101000a900473ffffffffffffffffffffffffffffffffffffffff1673ffffffffffffffffffffffffffffffffffffffff1681526020019060010190808311611ce5575b5050838103825284818151815260200191508051906020019060200280838360005b83811015611d6c578082015181840152602081019050611d51565b5050505090500194505050505060405180910390a1600092505b600b80549050831015611e1d57600e6000600b85815481101515611da657fe5b906000526020600020900160009054906101000a900473ffffffffffffffffffffffffffffffffffffffff1673ffffffffffffffffffffffffffffffffffffffff1673ffffffffffffffffffffffffffffffffffffffff168152602001908152602001600020600090558280600101935050611d86565b600092505b8451831015611efb576000600e60008786815181101515611e3f57fe5b9060200190602002015173ffffffffffffffffffffffffffffffffffffffff1673ffffffffffffffffffffffffffffffffffffffff16815260200190815260200160002054141515611e9057600080fd5b60018301600e60008786815181101515611ea657fe5b9060200190602002015173ffffffffffffffffffffffffffffffffffffffff1673ffffffffffffffffffffffffffffffffffffffff168152602001908152602001600020819055508280600101935050611e22565b84600b9080519060200190611f11929190614442565b5083600a819055506000600c81611f2891906144cc565b506009600081548092919060010191905055506124d2565b611f4933611496565b1515611f5457600080fd5b6001600560003373ffffffffffffffffffffffffffffffffffffffff1673ffffffffffffffffffffffffffffffffffffffff16815260200190815260200160002054039150600036600054604051808484808284378201915050828152602001935050505060405180910390209050600060076000836000191660001916815260200190815260200160002054141561203c5760038054905060066000836000191660001916815260200190815260200160002081905550600380548060010182816120209190614416565b9160005260206000209001600083909190915090600019169055505b60008260020a600760008460001916600019168152602001908152602001600020541614151561206b57600080fd5b8160020a600760008360001916600019168152602001908152602001600020600082825417925050819055506001600860008360001916600019168152602001908152602001600020600082825401925050819055506001546008600083600019166000191681526020019081526020016000205414156124d1576120ef81613f07565b33600460006101000a81548173ffffffffffffffffffffffffffffffffffffffff021916908373ffffffffffffffffffffffffffffffffffffffff1602179055506000855111151561214057600080fd5b61010085511115151561215257600080fd5b60008411151561216157600080fd5b8451841115151561217157600080fd5b600092505b84518310156121df57600073ffffffffffffffffffffffffffffffffffffffff1685848151811015156121a557fe5b9060200190602002015173ffffffffffffffffffffffffffffffffffffffff16141515156121d257600080fd5b8280600101935050612176565b7f835b136e5699f0b4eecdacc30c533f02289b11aef9f282819321fd5a0af25d86600b86604051808060200180602001838103835285818154815260200191508054801561228257602002820191906000526020600020905b8160009054906101000a900473ffffffffffffffffffffffffffffffffffffffff1673ffffffffffffffffffffffffffffffffffffffff1681526020019060010190808311612238575b5050838103825284818151815260200191508051906020019060200280838360005b838110156122bf5780820151818401526020810190506122a4565b5050505090500194505050505060405180910390a1600092505b600b8054905083101561237057600e6000600b858154811015156122f957fe5b906000526020600020900160009054906101000a900473ffffffffffffffffffffffffffffffffffffffff1673ffffffffffffffffffffffffffffffffffffffff1673ffffffffffffffffffffffffffffffffffffffff1681526020019081526020016000206000905582806001019350506122d9565b600092505b845183101561244e576000600e6000878681518110151561239257fe5b9060200190602002015173ffffffffffffffffffffffffffffffffffffffff1673ffffffffffffffffffffffffffffffffffffffff168152602001908152602001600020541415156123e357600080fd5b60018301600e600087868151811015156123f957fe5b9060200190602002015173ffffffffffffffffffffffffffffffffffffffff1673ffffffffffffffffffffffffffffffffffffffff168152602001908152602001600020819055508280600101935050612375565b84600b9080519060200190612464929190614442565b5083600a819055506000600c8161247b91906144cc565b506009600081548092919060010191905055506000600460006101000a81548173ffffffffffffffffffffffffffffffffffffffff021916908373ffffffffffffffffffffffffffffffffffffffff1602179055505b5b5050505050565b60116020528060005260406000206000915090505481565b6000600c80549050905090565b6000803373ffffffffffffffffffffffffffffffffffffffff16600460009054906101000a900473ffffffffffffffffffffffffffffffffffffffff1673ffffffffffffffffffffffffffffffffffffffff1614156125bf57601260009054906101000a900460ff1615151561257357600080fd5b6001601260006101000a81548160ff0219169083151502179055507f6985a02210a168e66602d3235cb6db0e70f92b3ba4d376a33c0f3d9434bff62560405160405180910390a1612856565b6125c833611496565b15156125d357600080fd5b6001600560003373ffffffffffffffffffffffffffffffffffffffff1673ffffffffffffffffffffffffffffffffffffffff1681526020019081526020016000205403915060003660005460405180848480828437820191505082815260200193505050506040518091039020905060006007600083600019166000191681526020019081526020016000205414156126bb57600380549050600660008360001916600019168152602001908152602001600020819055506003805480600101828161269f9190614416565b9160005260206000209001600083909190915090600019169055505b60008260020a60076000846000191660001916815260200190815260200160002054161415156126ea57600080fd5b8160020a600760008360001916600019168152602001908152602001600020600082825417925050819055506001600860008360001916600019168152602001908152602001600020600082825401925050819055506001546008600083600019166000191681526020019081526020016000205414156128555761276e81613f07565b33600460006101000a81548173ffffffffffffffffffffffffffffffffffffffff021916908373ffffffffffffffffffffffffffffffffffffffff160217905550601260009054906101000a900460ff161515156127cb57600080fd5b6001601260006101000a81548160ff0219169083151502179055507f6985a02210a168e66602d3235cb6db0e70f92b3ba4d376a33c0f3d9434bff62560405160405180910390a16000600460006101000a81548173ffffffffffffffffffffffffffffffffffffffff021916908373ffffffffffffffffffffffffffffffffffffffff1602179055505b5b5050565b6000803373ffffffffffffffffffffffffffffffffffffffff16600d60009054906101000a900473ffffffffffffffffffffffffffffffffffffffff1673ffffffffffffffffffffffffffffffffffffffff1614156129c95782601360008273ffffffffffffffffffffffffffffffffffffffff1673ffffffffffffffffffffffffffffffffffffffff16815260200190815260200160002060009054906101000a900460ff16151561290c57600080fd5b601260009054906101000a900460ff1615151561292857600080fd5b6000601360008673ffffffffffffffffffffffffffffffffffffffff1673ffffffffffffffffffffffffffffffffffffffff16815260200190815260200160002060006101000a81548160ff0219169083151502179055508373ffffffffffffffffffffffffffffffffffffffff167f044462be9a36008a5098232b28f97199fff733abd2b9f5cb8e199efc8d1443bb60405160405180910390a250612d0e565b6129d233613ebc565b15156129dd57600080fd5b6001600e60003373ffffffffffffffffffffffffffffffffffffffff1673ffffffffffffffffffffffffffffffffffffffff168152602001908152602001600020540391506000366009546040518084848082843782019150508281526020019350505050604051809103902090506000601060008360001916600019168152602001908152602001600020541415612ac557600380549050600f6000836000191660001916815260200190815260200160002081905550600c8054806001018281612aa99190614416565b9160005260206000209001600083909190915090600019169055505b60008260020a6010600084600019166000191681526020019081526020016000205416141515612af457600080fd5b8160020a60106000836000191660001916815260200190815260200160002060008282541792505081905550600160116000836000191660001916815260200190815260200160002060008282540192505081905550600a54601160008360001916600019168152602001908152602001600020541415612d0d57612b788161402e565b33600d60006101000a81548173ffffffffffffffffffffffffffffffffffffffff021916908373ffffffffffffffffffffffffffffffffffffffff16021790555082601360008273ffffffffffffffffffffffffffffffffffffffff1673ffffffffffffffffffffffffffffffffffffffff16815260200190815260200160002060009054906101000a900460ff161515612c1257600080fd5b601260009054906101000a900460ff16151515612c2e57600080fd5b6000601360008673ffffffffffffffffffffffffffffffffffffffff1673ffffffffffffffffffffffffffffffffffffffff16815260200190815260200160002060006101000a81548160ff0219169083151502179055508373ffffffffffffffffffffffffffffffffffffffff167f044462be9a36008a5098232b28f97199fff733abd2b9f5cb8e199efc8d1443bb60405160405180910390a2506000600d60006101000a81548173ffffffffffffffffffffffffffffffffffffffff021916908373ffffffffffffffffffffffffffffffffffffffff1602179055505b5b505050565b6000612d1e33611496565b1515612d2957600080fd5b6001600560003373ffffffffffffffffffffffffffffffffffffffff1673ffffffffffffffffffffffffffffffffffffffff1681526020019081526020016000205403905060008160020a600760008560001916600019168152602001908152602001600020541614151515612d9e57600080fd5b8060020a196007600084600019166000191681526020019081526020016000206000828254169250508190555060086000836000191660001916815260200190815260200160002060008154809291906001900391905055506000600860008460001916600019168152602001908152602001600020541415612e2557612e2482613f07565b5b5050565b600c81815481101515612e3857fe5b90600052602060002090016000915090505481565b60086020528060005260406000206000915090505481565b6000601960009054906101000a900460ff16151515612e8357600080fd5b6001601960006101000a81548160ff02191690831515021790555084601360008273ffffffffffffffffffffffffffffffffffffffff1673ffffffffffffffffffffffffffffffffffffffff16815260200190815260200160002060009054906101000a900460ff16151515612ef857600080fd5b601260009054906101000a900460ff16151515612f1457600080fd5b612f5489898080601f0160208091040260200160405190810160405280939291908181526020018383808284378201915050505050508888888888614155565b1515612f5f57600080fd5b86601460008873ffffffffffffffffffffffffffffffffffffffff1673ffffffffffffffffffffffffffffffffffffffff1681526020019081526020016000205410151515612fad57600080fd5b612fe889898080601f016020809104026020016040519081016040528093929190818152602001838380828437820191505050505050613492565b915043601860008460001916600019168152602001908152602001600020541015151561301457600080fd5b3360156000846000191660001916815260200190815260200160002060006101000a81548173ffffffffffffffffffffffffffffffffffffffff021916908373ffffffffffffffffffffffffffffffffffffffff1602179055506130c087601460008973ffffffffffffffffffffffffffffffffffffffff1673ffffffffffffffffffffffffffffffffffffffff168152602001908152602001600020546143fd90919063ffffffff16565b601460008873ffffffffffffffffffffffffffffffffffffffff1673ffffffffffffffffffffffffffffffffffffffff168152602001908152602001600020819055503373ffffffffffffffffffffffffffffffffffffffff166108fc889081150290604051600060405180830381858888f19350505050151561314357600080fd5b506000601960006101000a81548160ff0219169083151502179055505050505050505050565b60106020528060005260406000206000915090505481565b60005481565b6000600280549050905090565b601481565b6000803373ffffffffffffffffffffffffffffffffffffffff16600460009054906101000a900473ffffffffffffffffffffffffffffffffffffffff1673ffffffffffffffffffffffffffffffffffffffff16141561322857601460ff168360ff161115151561320857600080fd5b82601960016101000a81548160ff021916908360ff16021790555061348d565b61323133611496565b151561323c57600080fd5b6001600560003373ffffffffffffffffffffffffffffffffffffffff1673ffffffffffffffffffffffffffffffffffffffff1681526020019081526020016000205403915060003660005460405180848480828437820191505082815260200193505050506040518091039020905060006007600083600019166000191681526020019081526020016000205414156133245760038054905060066000836000191660001916815260200190815260200160002081905550600380548060010182816133089190614416565b9160005260206000209001600083909190915090600019169055505b60008260020a600760008460001916600019168152602001908152602001600020541614151561335357600080fd5b8160020a6007600083600019166000191681526020019081526020016000206000828254179250508190555060016008600083600019166000191681526020019081526020016000206000828254019250508190555060015460086000836000191660001916815260200190815260200160002054141561348c576133d781613f07565b33600460006101000a81548173ffffffffffffffffffffffffffffffffffffffff021916908373ffffffffffffffffffffffffffffffffffffffff160217905550601460ff168360ff161115151561342e57600080fd5b82601960016101000a81548160ff021916908360ff1602179055506000600460006101000a81548173ffffffffffffffffffffffffffffffffffffffff021916908373ffffffffffffffffffffffffffffffffffffffff1602179055505b5b505050565b6000816040518082805190602001908083835b6020831015156134ca57805182526020820191506020810190506020830392506134a5565b6001836020036101000a03801982511681845116808217855250505050505090500191505060405180910390209050919050565b601960019054906101000a900460ff1681565b60008060003373ffffffffffffffffffffffffffffffffffffffff16600460009054906101000a900473ffffffffffffffffffffffffffffffffffffffff1673ffffffffffffffffffffffffffffffffffffffff1614156138ce576000855111151561357c57600080fd5b61010085511115151561358e57600080fd5b60008411151561359d57600080fd5b845184111515156135ad57600080fd5b600092505b845183101561361b57600073ffffffffffffffffffffffffffffffffffffffff1685848151811015156135e157fe5b9060200190602002015173ffffffffffffffffffffffffffffffffffffffff161415151561360e57600080fd5b82806001019350506135b2565b7fe62c04bb3499d4f432a50e07318d42861c4865afb22ee4cfe403d4f94550709060028660405180806020018060200183810383528581815481526020019150805480156136be57602002820191906000526020600020905b8160009054906101000a900473ffffffffffffffffffffffffffffffffffffffff1673ffffffffffffffffffffffffffffffffffffffff1681526020019060010190808311613674575b5050838103825284818151815260200191508051906020019060200280838360005b838110156136fb5780820151818401526020810190506136e0565b5050505090500194505050505060405180910390a1600092505b6002805490508310156137ac576005600060028581548110151561373557fe5b906000526020600020900160009054906101000a900473ffffffffffffffffffffffffffffffffffffffff1673ffffffffffffffffffffffffffffffffffffffff1673ffffffffffffffffffffffffffffffffffffffff168152602001908152602001600020600090558280600101935050613715565b600092505b845183101561388a5760006005600087868151811015156137ce57fe5b9060200190602002015173ffffffffffffffffffffffffffffffffffffffff1673ffffffffffffffffffffffffffffffffffffffff1681526020019081526020016000205414151561381f57600080fd5b6001830160056000878681518110151561383557fe5b9060200190602002015173ffffffffffffffffffffffffffffffffffffffff1673ffffffffffffffffffffffffffffffffffffffff1681526020019081526020016000208190555082806001019350506137b1565b84600290805190602001906138a0929190614442565b508360018190555060006003816138b791906144cc565b506000808154809291906001019190505550613e5f565b6138d733611496565b15156138e257600080fd5b6001600560003373ffffffffffffffffffffffffffffffffffffffff1673ffffffffffffffffffffffffffffffffffffffff1681526020019081526020016000205403915060003660005460405180848480828437820191505082815260200193505050506040518091039020905060006007600083600019166000191681526020019081526020016000205414156139ca5760038054905060066000836000191660001916815260200190815260200160002081905550600380548060010182816139ae9190614416565b9160005260206000209001600083909190915090600019169055505b60008260020a60076000846000191660001916815260200190815260200160002054161415156139f957600080fd5b8160020a60076000836000191660001916815260200190815260200160002060008282541792505081905550600160086000836000191660001916815260200190815260200160002060008282540192505081905550600154600860008360001916600019168152602001908152602001600020541415613e5e57613a7d81613f07565b33600460006101000a81548173ffffffffffffffffffffffffffffffffffffffff021916908373ffffffffffffffffffffffffffffffffffffffff16021790555060008551111515613ace57600080fd5b610100855111151515613ae057600080fd5b600084111515613aef57600080fd5b84518411151515613aff57600080fd5b600092505b8451831015613b6d57600073ffffffffffffffffffffffffffffffffffffffff168584815181101515613b3357fe5b9060200190602002015173ffffffffffffffffffffffffffffffffffffffff1614151515613b6057600080fd5b8280600101935050613b04565b7fe62c04bb3499d4f432a50e07318d42861c4865afb22ee4cfe403d4f9455070906002866040518080602001806020018381038352858181548152602001915080548015613c1057602002820191906000526020600020905b8160009054906101000a900473ffffffffffffffffffffffffffffffffffffffff1673ffffffffffffffffffffffffffffffffffffffff1681526020019060010190808311613bc6575b5050838103825284818151815260200191508051906020019060200280838360005b83811015613c4d578082015181840152602081019050613c32565b5050505090500194505050505060405180910390a1600092505b600280549050831015613cfe5760056000600285815481101515613c8757fe5b906000526020600020900160009054906101000a900473ffffffffffffffffffffffffffffffffffffffff1673ffffffffffffffffffffffffffffffffffffffff1673ffffffffffffffffffffffffffffffffffffffff168152602001908152602001600020600090558280600101935050613c67565b600092505b8451831015613ddc576000600560008786815181101515613d2057fe5b9060200190602002015173ffffffffffffffffffffffffffffffffffffffff1673ffffffffffffffffffffffffffffffffffffffff16815260200190815260200160002054141515613d7157600080fd5b60018301600560008786815181101515613d8757fe5b9060200190602002015173ffffffffffffffffffffffffffffffffffffffff1673ffffffffffffffffffffffffffffffffffffffff168152602001908152602001600020819055508280600101935050613d03565b8460029080519060200190613df2929190614442565b50836001819055506000600381613e0991906144cc565b5060008081548092919060010191905055506000600460006101000a81548173ffffffffffffffffffffffffffffffffffffffff021916908373ffffffffffffffffffffffffffffffffffffffff1602179055505b5b5050505050565b6000600b80549050905090565b6000601460008373ffffffffffffffffffffffffffffffffffffffff1673ffffffffffffffffffffffffffffffffffffffff168152602001908152602001600020549050919050565b600080600e60008473ffffffffffffffffffffffffffffffffffffffff1673ffffffffffffffffffffffffffffffffffffffff16815260200190815260200160002054119050919050565b6000600660008360001916600019168152602001908152602001600020549050600160038054905003811015613fb7576003600160038054905003815481101515613f4e57fe5b906000526020600020900154600382815481101515613f6957fe5b906000526020600020900181600019169055508060066000600384815481101515613f9057fe5b90600052602060002090015460001916600019168152602001908152602001600020819055505b6003805480919060019003613fcc91906144cc565b506007600083600019166000191681526020019081526020016000206000905560086000836000191660001916815260200190815260200160002060009055600660008360001916600019168152602001908152602001600020600090555050565b6000600f600083600019166000191681526020019081526020016000205490506001600c80549050038110156140de57600c6001600c805490500381548110151561407557fe5b906000526020600020900154600c8281548110151561409057fe5b9060005260206000209001816000191690555080600f6000600c848154811015156140b757fe5b90600052602060002090015460001916600019168152602001908152602001600020819055505b600c8054809190600190036140f391906144cc565b506010600083600019166000191681526020019081526020016000206000905560116000836000191660001916815260200190815260200160002060009055600f60008360001916600019168152602001908152602001600020600090555050565b600080600061416389611b10565b15151561416f57600080fd5b60405180807f737472696e6720766f75636865725f6964000000000000000000000000000000815250601101807f75696e742076616c756500000000000000000000000000000000000000000000815250600a01807f61646472657373206368616e6e656c0000000000000000000000000000000000815250600f01905060405180910390208989896040518084805190602001908083835b60208310151561422d5780518252602082019150602081019050602083039250614208565b6001836020036101000a0380198251168184511680821785525050505050509050018381526020018273ffffffffffffffffffffffffffffffffffffffff1673ffffffffffffffffffffffffffffffffffffffff166c010000000000000000000000000281526014019350505050604051809103902060405180836000191660001916815260200182600019166000191681526020019250505060405180910390209150600182878787604051600081526020016040526000604051602001526040518085600019166000191681526020018460ff1660ff16815260200183600019166000191681526020018260001916600019168152602001945050505050602060405160208103908084039060008661646e5a03f1151561434f57600080fd5b50506020604051035190508073ffffffffffffffffffffffffffffffffffffffff16601660009054906101000a900473ffffffffffffffffffffffffffffffffffffffff1673ffffffffffffffffffffffffffffffffffffffff1614925050509695505050505050565b6000670de0b6b3a7640000821015156143d557600590506143da565b600290505b919050565b60008082840190508381101515156143f357fe5b8091505092915050565b600082821115151561440b57fe5b818303905092915050565b81548183558181151161443d5781836000526020600020918201910161443c91906144f8565b5b505050565b8280548282559060005260206000209081019282156144bb579160200282015b828111156144ba5782518260006101000a81548173ffffffffffffffffffffffffffffffffffffffff021916908373ffffffffffffffffffffffffffffffffffffffff16021790555091602001919060010190614462565b5b5090506144c8919061451d565b5090565b8154818355818115116144f3578183600052602060002091820191016144f291906144f8565b5b505050565b61451a91905b808211156145165760008160009055506001016144fe565b5090565b90565b61455d91905b8082111561455957600081816101000a81549073ffffffffffffffffffffffffffffffffffffffff021916905550600101614523565b5090565b905600a165627a7a7230582088f812a837e27ab3a2b944c1c7efa2c4206e62304529eb5d558da654780e1f160029",
  "source": "pragma solidity 0.4.18;\n\nimport \"./Pausable.sol\";\nimport \"./Util.sol\";\nimport \"./ECVerify.sol\";\nimport \"./SafeMath.sol\";\n\ncontract Swether is Pausable {\n\n    uint8 constant public MAX_FEE = 20;\n\n    using SafeMath for uint256;\n\n    mapping (address => uint256) internal channels;\n\n    mapping (bytes32 => address) internal usedVouchers;\n\n    address public signerAddress;\n\n    mapping(address => bool) private validators;\n\n    mapping (bytes32 => uint256) private challengePeriods;\n\n    // Flag to prevent reentrancy attack\n    bool private locked = false;\n\n    modifier noReentrancy() {\n        require(!locked);\n        locked = true;\n        _;\n        locked = false;\n    }\n\n    /// @param _signerAddress The address derived from server's private key\n    function setSignerAddress(address _signerAddress) external onlyManyOwners {\n        signerAddress = _signerAddress;\n    }\n\n    function contribute() public payable {\n        channels[msg.sender] = msg.value;\n    }\n\n    uint8 public fee;\n\n    function setFee(uint8 _fee) external onlyManyOwners {\n        require(_fee <= MAX_FEE);\n        fee = _fee;\n    }\n\n\n    function Swether(uint8 _fee, address _signerAddress, address[] _validators) Validatable(_validators) public {\n        require(_fee <= MAX_FEE);\n        require(_signerAddress != address(0));\n        fee = _fee;\n        signerAddress = _signerAddress;\n    }\n\n    function() public payable {\n        contribute();\n    }\n\n    function withdraw(string _id, uint256 _value, address _channel, uint8 v, bytes32 r, bytes32 s) external noReentrancy whenChannelNotPaused(_channel) whenNotPaused {\n        require(checkVoucher(_id, _value, _channel, v, r, s));\n        require(channels[_channel] >= _value);\n        bytes32 key = getKey(_id);\n        require(challengePeriods[key] >= block.number);\n        usedVouchers[key] = msg.sender;\n\n        channels[_channel] = channels[_channel].sub(_value);\n        msg.sender.transfer(_value);\n    }\n\n    function claimExchange(string _id, uint256 _value, address _channel, uint8 v, bytes32 r, bytes32 s) external noReentrancy whenChannelNotPaused(_channel) whenNotPaused{\n        require(checkVoucher(_id, _value, _channel, v, r, s));\n        require(channels[_channel] >= _value);\n        bytes32 key = getKey(_id);\n        uint256 challengePeriod = block.number.add(blocksToWait(_value));\n        challengePeriods[key] = challengePeriod;\n    }\n\n    function getBalance(address owner) external view returns (uint256) {\n        return channels[owner];\n    }\n\n    function checkVoucher(string _id, uint256 _value, address _channel, uint8 v, bytes32 r, bytes32 s) private view returns(bool)\n    {\n        require(!isVoucherUsed(_id));\n        bytes32 msgHash = keccak256(\n            keccak256(\n            'string voucher_id',\n            'uint value',\n            'address channel'\n            ),\n            keccak256(\n            _id,\n            _value,\n            _channel\n            )\n        );\n        // Derive address from signature\n        address signer = ecrecover(msgHash, v, r, s);//ECVerify.ecverify(message_hash, _messageSignature);\n        return signerAddress == signer;\n    }\n\n    function getKey(string _id) public pure returns (bytes32 data)\n    {\n        return keccak256(_id);\n    }\n\n    function isVoucherUsed(string _id) public view returns (bool) {\n        bytes32 key = getKey(_id);\n        return usedVouchers[key] != 0;\n    }\n\n    function blocksToWait(uint256 _value) internal pure returns(uint8){\n        if (_value >= 1 ether) {\n            return 5;\n        }\n        return 2;\n    }\n\n}\n",
  "sourcePath": "/home/dzentota/www/swether/contracts/Swether.sol",
  "compiler": {
    "name": "solc",
    "version": "0.4.18+commit.9cf6e910.Emscripten.clang"
  },
  "schemaVersion": "1.0.1",
  "updatedAt": "2018-04-21T21:35:56.731Z"
}