{
  "contractName": "Validatable",
  "abi": [
    {
      "constant": true,
      "inputs": [
        {
          "name": "",
          "type": "uint256"
        }
      ],
      "name": "owners",
      "outputs": [
        {
          "name": "",
          "type": "address"
        }
      ],
      "payable": false,
      "stateMutability": "view",
      "type": "function"
    },
    {
      "constant": false,
      "inputs": [
        {
          "name": "newOwners",
          "type": "address[]"
        }
      ],
      "name": "transferOwnership",
      "outputs": [],
      "payable": false,
      "stateMutability": "nonpayable",
      "type": "function"
    },
    {
      "constant": true,
      "inputs": [],
      "name": "allOperationsCount",
      "outputs": [
        {
          "name": "",
          "type": "uint256"
        }
      ],
      "payable": false,
      "stateMutability": "view",
      "type": "function"
    },
    {
      "constant": true,
      "inputs": [],
      "name": "howManyOwnersDecide",
      "outputs": [
        {
          "name": "",
          "type": "uint256"
        }
      ],
      "payable": false,
      "stateMutability": "view",
      "type": "function"
    },
    {
      "constant": true,
      "inputs": [
        {
          "name": "wallet",
          "type": "address"
        }
      ],
      "name": "isOwner",
      "outputs": [
        {
          "name": "",
          "type": "bool"
        }
      ],
      "payable": false,
      "stateMutability": "view",
      "type": "function"
    },
    {
      "constant": true,
      "inputs": [
        {
          "name": "",
          "type": "uint256"
        }
      ],
      "name": "validators",
      "outputs": [
        {
          "name": "",
          "type": "address"
        }
      ],
      "payable": false,
      "stateMutability": "view",
      "type": "function"
    },
    {
      "constant": true,
      "inputs": [],
      "name": "howManyValidatorsDecide",
      "outputs": [
        {
          "name": "",
          "type": "uint256"
        }
      ],
      "payable": false,
      "stateMutability": "view",
      "type": "function"
    },
    {
      "constant": true,
      "inputs": [
        {
          "name": "",
          "type": "uint256"
        }
      ],
      "name": "allOperations",
      "outputs": [
        {
          "name": "",
          "type": "bytes32"
        }
      ],
      "payable": false,
      "stateMutability": "view",
      "type": "function"
    },
    {
      "constant": true,
      "inputs": [
        {
          "name": "",
          "type": "bytes32"
        }
      ],
      "name": "votesMaskByOperation",
      "outputs": [
        {
          "name": "",
          "type": "uint256"
        }
      ],
      "payable": false,
      "stateMutability": "view",
      "type": "function"
    },
    {
      "constant": false,
      "inputs": [
        {
          "name": "newValidators",
          "type": "address[]"
        }
      ],
      "name": "transferValidatorRights",
      "outputs": [],
      "payable": false,
      "stateMutability": "nonpayable",
      "type": "function"
    },
    {
      "constant": true,
      "inputs": [],
      "name": "validatorsGeneration",
      "outputs": [
        {
          "name": "",
          "type": "uint256"
        }
      ],
      "payable": false,
      "stateMutability": "view",
      "type": "function"
    },
    {
      "constant": false,
      "inputs": [
        {
          "name": "newValidators",
          "type": "address[]"
        },
        {
          "name": "newHowManyValidatorsDecide",
          "type": "uint256"
        }
      ],
      "name": "transferValidatorRightsWithHowMany",
      "outputs": [],
      "payable": false,
      "stateMutability": "nonpayable",
      "type": "function"
    },
    {
      "constant": true,
      "inputs": [
        {
          "name": "",
          "type": "bytes32"
        }
      ],
      "name": "votesCountByValidatorOperation",
      "outputs": [
        {
          "name": "",
          "type": "uint256"
        }
      ],
      "payable": false,
      "stateMutability": "view",
      "type": "function"
    },
    {
      "constant": true,
      "inputs": [],
      "name": "allValidatorsOperationsCount",
      "outputs": [
        {
          "name": "",
          "type": "uint256"
        }
      ],
      "payable": false,
      "stateMutability": "view",
      "type": "function"
    },
    {
      "constant": false,
      "inputs": [
        {
          "name": "operation",
          "type": "bytes32"
        }
      ],
      "name": "cancelPending",
      "outputs": [],
      "payable": false,
      "stateMutability": "nonpayable",
      "type": "function"
    },
    {
      "constant": true,
      "inputs": [
        {
          "name": "",
          "type": "uint256"
        }
      ],
      "name": "allValidatorsOperations",
      "outputs": [
        {
          "name": "",
          "type": "bytes32"
        }
      ],
      "payable": false,
      "stateMutability": "view",
      "type": "function"
    },
    {
      "constant": true,
      "inputs": [
        {
          "name": "",
          "type": "bytes32"
        }
      ],
      "name": "votesCountByOperation",
      "outputs": [
        {
          "name": "",
          "type": "uint256"
        }
      ],
      "payable": false,
      "stateMutability": "view",
      "type": "function"
    },
    {
      "constant": true,
      "inputs": [
        {
          "name": "",
          "type": "bytes32"
        }
      ],
      "name": "votesMaskByValidatorOperation",
      "outputs": [
        {
          "name": "",
          "type": "uint256"
        }
      ],
      "payable": false,
      "stateMutability": "view",
      "type": "function"
    },
    {
      "constant": true,
      "inputs": [],
      "name": "ownersGeneration",
      "outputs": [
        {
          "name": "",
          "type": "uint256"
        }
      ],
      "payable": false,
      "stateMutability": "view",
      "type": "function"
    },
    {
      "constant": true,
      "inputs": [],
      "name": "ownersCount",
      "outputs": [
        {
          "name": "",
          "type": "uint256"
        }
      ],
      "payable": false,
      "stateMutability": "view",
      "type": "function"
    },
    {
      "constant": false,
      "inputs": [
        {
          "name": "newOwners",
          "type": "address[]"
        },
        {
          "name": "newHowManyOwnersDecide",
          "type": "uint256"
        }
      ],
      "name": "transferOwnershipWithHowMany",
      "outputs": [],
      "payable": false,
      "stateMutability": "nonpayable",
      "type": "function"
    },
    {
      "constant": true,
      "inputs": [],
      "name": "validatorsCount",
      "outputs": [
        {
          "name": "",
          "type": "uint256"
        }
      ],
      "payable": false,
      "stateMutability": "view",
      "type": "function"
    },
    {
      "constant": true,
      "inputs": [
        {
          "name": "wallet",
          "type": "address"
        }
      ],
      "name": "isValidator",
      "outputs": [
        {
          "name": "",
          "type": "bool"
        }
      ],
      "payable": false,
      "stateMutability": "view",
      "type": "function"
    },
    {
      "inputs": [
        {
          "name": "_validators",
          "type": "address[]"
        }
      ],
      "payable": false,
      "stateMutability": "nonpayable",
      "type": "constructor"
    },
    {
      "anonymous": false,
      "inputs": [
        {
          "indexed": false,
          "name": "previousValidators",
          "type": "address[]"
        },
        {
          "indexed": false,
          "name": "newValidators",
          "type": "address[]"
        }
      ],
      "name": "ValidatorRightsTransferred",
      "type": "event"
    },
    {
      "anonymous": false,
      "inputs": [
        {
          "indexed": false,
          "name": "previousOwners",
          "type": "address[]"
        },
        {
          "indexed": false,
          "name": "newOwners",
          "type": "address[]"
        }
      ],
      "name": "OwnershipTransferred",
      "type": "event"
    }
  ],
  "bytecode": "0x606060405234156200001057600080fd5b60405162002d9438038062002d94833981016040528080518201919050506002805480600101828162000044919062000c5c565b9160005260206000209001600033909190916101000a81548173ffffffffffffffffffffffffffffffffffffffff021916908373ffffffffffffffffffffffffffffffffffffffff160217905550506001600560003373ffffffffffffffffffffffffffffffffffffffff1673ffffffffffffffffffffffffffffffffffffffff1681526020019081526020016000208190555060018081905550620000fe8162000105640100000000026200081f176401000000009004565b5062000e0e565b62000126818251620001296401000000000262000833176401000000009004565b50565b60008060003373ffffffffffffffffffffffffffffffffffffffff16600460009054906101000a900473ffffffffffffffffffffffffffffffffffffffff1673ffffffffffffffffffffffffffffffffffffffff1614156200050157600085511115156200019657600080fd5b610100855111151515620001a957600080fd5b600084111515620001b957600080fd5b84518411151515620001ca57600080fd5b600092505b84518310156200023c57600073ffffffffffffffffffffffffffffffffffffffff1685848151811015156200020057fe5b9060200190602002015173ffffffffffffffffffffffffffffffffffffffff16141515156200022e57600080fd5b8280600101935050620001cf565b7f835b136e5699f0b4eecdacc30c533f02289b11aef9f282819321fd5a0af25d86600b866040518080602001806020018381038352858181548152602001915080548015620002e157602002820191906000526020600020905b8160009054906101000a900473ffffffffffffffffffffffffffffffffffffffff1673ffffffffffffffffffffffffffffffffffffffff168152602001906001019080831162000296575b5050838103825284818151815260200191508051906020019060200280838360005b838110156200032057808201518184015260208101905062000303565b5050505090500194505050505060405180910390a1600092505b600b80549050831015620003d457600e6000600b858154811015156200035c57fe5b906000526020600020900160009054906101000a900473ffffffffffffffffffffffffffffffffffffffff1673ffffffffffffffffffffffffffffffffffffffff1673ffffffffffffffffffffffffffffffffffffffff1681526020019081526020016000206000905582806001019350506200033a565b600092505b8451831015620004b7576000600e60008786815181101515620003f857fe5b9060200190602002015173ffffffffffffffffffffffffffffffffffffffff1673ffffffffffffffffffffffffffffffffffffffff168152602001908152602001600020541415156200044a57600080fd5b60018301600e600087868151811015156200046157fe5b9060200190602002015173ffffffffffffffffffffffffffffffffffffffff1673ffffffffffffffffffffffffffffffffffffffff168152602001908152602001600020819055508280600101935050620003d9565b84600b9080519060200190620004cf92919062000c8b565b5083600a819055506000600c81620004e8919062000d1a565b5060096000815480929190600101919050555062000add565b620005203362000ae46401000000000262000753176401000000009004565b15156200052c57600080fd5b6001600560003373ffffffffffffffffffffffffffffffffffffffff1673ffffffffffffffffffffffffffffffffffffffff16815260200190815260200160002054039150600036600054604051808484808284378201915050828152602001935050505060405180910390209050600060076000836000191660001916815260200190815260200160002054141562000617576003805490506006600083600019166000191681526020019081526020016000208190555060038054806001018281620005fb919062000d49565b9160005260206000209001600083909190915090600019169055505b60008260020a60076000846000191660001916815260200190815260200160002054161415156200064757600080fd5b8160020a6007600083600019166000191681526020019081526020016000206000828254179250508190555060016008600083600019166000191681526020019081526020016000206000828254019250508190555060015460086000836000191660001916815260200190815260200160002054141562000adc57620006e28162000b2f6401000000000262001cd9176401000000009004565b33600460006101000a81548173ffffffffffffffffffffffffffffffffffffffff021916908373ffffffffffffffffffffffffffffffffffffffff160217905550600085511115156200073457600080fd5b6101008551111515156200074757600080fd5b6000841115156200075757600080fd5b845184111515156200076857600080fd5b600092505b8451831015620007da57600073ffffffffffffffffffffffffffffffffffffffff1685848151811015156200079e57fe5b9060200190602002015173ffffffffffffffffffffffffffffffffffffffff1614151515620007cc57600080fd5b82806001019350506200076d565b7f835b136e5699f0b4eecdacc30c533f02289b11aef9f282819321fd5a0af25d86600b8660405180806020018060200183810383528581815481526020019150805480156200087f57602002820191906000526020600020905b8160009054906101000a900473ffffffffffffffffffffffffffffffffffffffff1673ffffffffffffffffffffffffffffffffffffffff168152602001906001019080831162000834575b5050838103825284818151815260200191508051906020019060200280838360005b83811015620008be578082015181840152602081019050620008a1565b5050505090500194505050505060405180910390a1600092505b600b805490508310156200097257600e6000600b85815481101515620008fa57fe5b906000526020600020900160009054906101000a900473ffffffffffffffffffffffffffffffffffffffff1673ffffffffffffffffffffffffffffffffffffffff1673ffffffffffffffffffffffffffffffffffffffff168152602001908152602001600020600090558280600101935050620008d8565b600092505b845183101562000a55576000600e600087868151811015156200099657fe5b9060200190602002015173ffffffffffffffffffffffffffffffffffffffff1673ffffffffffffffffffffffffffffffffffffffff16815260200190815260200160002054141515620009e857600080fd5b60018301600e60008786815181101515620009ff57fe5b9060200190602002015173ffffffffffffffffffffffffffffffffffffffff1673ffffffffffffffffffffffffffffffffffffffff16815260200190815260200160002081905550828060010193505062000977565b84600b908051906020019062000a6d92919062000c8b565b5083600a819055506000600c8162000a86919062000d1a565b506009600081548092919060010191905055506000600460006101000a81548173ffffffffffffffffffffffffffffffffffffffff021916908373ffffffffffffffffffffffffffffffffffffffff1602179055505b5b5050505050565b600080600560008473ffffffffffffffffffffffffffffffffffffffff1673ffffffffffffffffffffffffffffffffffffffff16815260200190815260200160002054119050919050565b600060066000836000191660001916815260200190815260200160002054905060016003805490500381101562000be357600360016003805490500381548110151562000b7857fe5b90600052602060002090015460038281548110151562000b9457fe5b90600052602060002090018160001916905550806006600060038481548110151562000bbc57fe5b90600052602060002090015460001916600019168152602001908152602001600020819055505b600380548091906001900362000bfa919062000d1a565b506007600083600019166000191681526020019081526020016000206000905560086000836000191660001916815260200190815260200160002060009055600660008360001916600019168152602001908152602001600020600090555050565b81548183558181151162000c865781836000526020600020918201910162000c85919062000d78565b5b505050565b82805482825590600052602060002090810192821562000d07579160200282015b8281111562000d065782518260006101000a81548173ffffffffffffffffffffffffffffffffffffffff021916908373ffffffffffffffffffffffffffffffffffffffff1602179055509160200191906001019062000cac565b5b50905062000d16919062000da0565b5090565b81548183558181151162000d445781836000526020600020918201910162000d43919062000de6565b5b505050565b81548183558181151162000d735781836000526020600020918201910162000d72919062000de6565b5b505050565b62000d9d91905b8082111562000d9957600081600090555060010162000d7f565b5090565b90565b62000de391905b8082111562000ddf57600081816101000a81549073ffffffffffffffffffffffffffffffffffffffff02191690555060010162000da7565b5090565b90565b62000e0b91905b8082111562000e0757600081600090555060010162000ded565b5090565b90565b611f768062000e1e6000396000f300606060405260043610610133576000357c0100000000000000000000000000000000000000000000000000000000900463ffffffff168063025e7c271461013857806318bcd3d01461019b57806322f2f89a146101f55780632f4a81df1461021e5780632f54bf6e1461024757806335aa2e44146102985780633e8b4887146102fb578063431ab23314610324578063568b591514610363578063588cb7df1461039e57806362f5f244146103f8578063786da3e3146104215780637bda1cab1461048457806384192a52146104bf578063893372ca146104e85780638e269a0e1461050f57806390a530851461054e578063ae7912eb14610589578063b25bb3a7146105c4578063b9488546146105ed578063e851834114610616578063ed612f8c14610679578063facd743b146106a2575b600080fd5b341561014357600080fd5b61015960048080359060200190919050506106f3565b604051808273ffffffffffffffffffffffffffffffffffffffff1673ffffffffffffffffffffffffffffffffffffffff16815260200191505060405180910390f35b34156101a657600080fd5b6101f3600480803590602001908201803590602001908080602002602001604051908101604052809392919081815260200183836020028082843782019150505050505091905050610732565b005b341561020057600080fd5b610208610740565b6040518082815260200191505060405180910390f35b341561022957600080fd5b61023161074d565b6040518082815260200191505060405180910390f35b341561025257600080fd5b61027e600480803573ffffffffffffffffffffffffffffffffffffffff16906020019091905050610753565b604051808215151515815260200191505060405180910390f35b34156102a357600080fd5b6102b9600480803590602001909190505061079e565b604051808273ffffffffffffffffffffffffffffffffffffffff1673ffffffffffffffffffffffffffffffffffffffff16815260200191505060405180910390f35b341561030657600080fd5b61030e6107dd565b6040518082815260200191505060405180910390f35b341561032f57600080fd5b61034560048080359060200190919050506107e3565b60405180826000191660001916815260200191505060405180910390f35b341561036e57600080fd5b610388600480803560001916906020019091905050610807565b6040518082815260200191505060405180910390f35b34156103a957600080fd5b6103f660048080359060200190820180359060200190808060200260200160405190810160405280939291908181526020018383602002808284378201915050505050509190505061081f565b005b341561040357600080fd5b61040b61082d565b6040518082815260200191505060405180910390f35b341561042c57600080fd5b610482600480803590602001908201803590602001908080602002602001604051908101604052809392919081815260200183836020028082843782019150505050505091908035906020019091905050610833565b005b341561048f57600080fd5b6104a960048080356000191690602001909190505061118a565b6040518082815260200191505060405180910390f35b34156104ca57600080fd5b6104d26111a2565b6040518082815260200191505060405180910390f35b34156104f357600080fd5b61050d6004808035600019169060200190919050506111af565b005b341561051a57600080fd5b61053060048080359060200190919050506112c5565b60405180826000191660001916815260200191505060405180910390f35b341561055957600080fd5b6105736004808035600019169060200190919050506112e9565b6040518082815260200191505060405180910390f35b341561059457600080fd5b6105ae600480803560001916906020019091905050611301565b6040518082815260200191505060405180910390f35b34156105cf57600080fd5b6105d7611319565b6040518082815260200191505060405180910390f35b34156105f857600080fd5b61060061131f565b6040518082815260200191505060405180910390f35b341561062157600080fd5b61067760048080359060200190820180359060200190808060200260200160405190810160405280939291908181526020018383602002808284378201915050505050509190803590602001909190505061132c565b005b341561068457600080fd5b61068c611c81565b6040518082815260200191505060405180910390f35b34156106ad57600080fd5b6106d9600480803573ffffffffffffffffffffffffffffffffffffffff16906020019091905050611c8e565b604051808215151515815260200191505060405180910390f35b60028181548110151561070257fe5b90600052602060002090016000915054906101000a900473ffffffffffffffffffffffffffffffffffffffff1681565b61073d81825161132c565b50565b6000600380549050905090565b60015481565b600080600560008473ffffffffffffffffffffffffffffffffffffffff1673ffffffffffffffffffffffffffffffffffffffff16815260200190815260200160002054119050919050565b600b818154811015156107ad57fe5b90600052602060002090016000915054906101000a900473ffffffffffffffffffffffffffffffffffffffff1681565b600a5481565b6003818154811015156107f257fe5b90600052602060002090016000915090505481565b60076020528060005260406000206000915090505481565b61082a818251610833565b50565b60095481565b60008060003373ffffffffffffffffffffffffffffffffffffffff16600460009054906101000a900473ffffffffffffffffffffffffffffffffffffffff1673ffffffffffffffffffffffffffffffffffffffff161415610bf1576000855111151561089e57600080fd5b6101008551111515156108b057600080fd5b6000841115156108bf57600080fd5b845184111515156108cf57600080fd5b600092505b845183101561093d57600073ffffffffffffffffffffffffffffffffffffffff16858481518110151561090357fe5b9060200190602002015173ffffffffffffffffffffffffffffffffffffffff161415151561093057600080fd5b82806001019350506108d4565b7f835b136e5699f0b4eecdacc30c533f02289b11aef9f282819321fd5a0af25d86600b8660405180806020018060200183810383528581815481526020019150805480156109e057602002820191906000526020600020905b8160009054906101000a900473ffffffffffffffffffffffffffffffffffffffff1673ffffffffffffffffffffffffffffffffffffffff1681526020019060010190808311610996575b5050838103825284818151815260200191508051906020019060200280838360005b83811015610a1d578082015181840152602081019050610a02565b5050505090500194505050505060405180910390a1600092505b600b80549050831015610ace57600e6000600b85815481101515610a5757fe5b906000526020600020900160009054906101000a900473ffffffffffffffffffffffffffffffffffffffff1673ffffffffffffffffffffffffffffffffffffffff1673ffffffffffffffffffffffffffffffffffffffff168152602001908152602001600020600090558280600101935050610a37565b600092505b8451831015610bac576000600e60008786815181101515610af057fe5b9060200190602002015173ffffffffffffffffffffffffffffffffffffffff1673ffffffffffffffffffffffffffffffffffffffff16815260200190815260200160002054141515610b4157600080fd5b60018301600e60008786815181101515610b5757fe5b9060200190602002015173ffffffffffffffffffffffffffffffffffffffff1673ffffffffffffffffffffffffffffffffffffffff168152602001908152602001600020819055508280600101935050610ad3565b84600b9080519060200190610bc2929190611e00565b5083600a819055506000600c81610bd99190611e8a565b50600960008154809291906001019190505550611183565b610bfa33610753565b1515610c0557600080fd5b6001600560003373ffffffffffffffffffffffffffffffffffffffff1673ffffffffffffffffffffffffffffffffffffffff168152602001908152602001600020540391506000366000546040518084848082843782019150508281526020019350505050604051809103902090506000600760008360001916600019168152602001908152602001600020541415610ced576003805490506006600083600019166000191681526020019081526020016000208190555060038054806001018281610cd19190611eb6565b9160005260206000209001600083909190915090600019169055505b60008260020a6007600084600019166000191681526020019081526020016000205416141515610d1c57600080fd5b8160020a6007600083600019166000191681526020019081526020016000206000828254179250508190555060016008600083600019166000191681526020019081526020016000206000828254019250508190555060015460086000836000191660001916815260200190815260200160002054141561118257610da081611cd9565b33600460006101000a81548173ffffffffffffffffffffffffffffffffffffffff021916908373ffffffffffffffffffffffffffffffffffffffff16021790555060008551111515610df157600080fd5b610100855111151515610e0357600080fd5b600084111515610e1257600080fd5b84518411151515610e2257600080fd5b600092505b8451831015610e9057600073ffffffffffffffffffffffffffffffffffffffff168584815181101515610e5657fe5b9060200190602002015173ffffffffffffffffffffffffffffffffffffffff1614151515610e8357600080fd5b8280600101935050610e27565b7f835b136e5699f0b4eecdacc30c533f02289b11aef9f282819321fd5a0af25d86600b866040518080602001806020018381038352858181548152602001915080548015610f3357602002820191906000526020600020905b8160009054906101000a900473ffffffffffffffffffffffffffffffffffffffff1673ffffffffffffffffffffffffffffffffffffffff1681526020019060010190808311610ee9575b5050838103825284818151815260200191508051906020019060200280838360005b83811015610f70578082015181840152602081019050610f55565b5050505090500194505050505060405180910390a1600092505b600b8054905083101561102157600e6000600b85815481101515610faa57fe5b906000526020600020900160009054906101000a900473ffffffffffffffffffffffffffffffffffffffff1673ffffffffffffffffffffffffffffffffffffffff1673ffffffffffffffffffffffffffffffffffffffff168152602001908152602001600020600090558280600101935050610f8a565b600092505b84518310156110ff576000600e6000878681518110151561104357fe5b9060200190602002015173ffffffffffffffffffffffffffffffffffffffff1673ffffffffffffffffffffffffffffffffffffffff1681526020019081526020016000205414151561109457600080fd5b60018301600e600087868151811015156110aa57fe5b9060200190602002015173ffffffffffffffffffffffffffffffffffffffff1673ffffffffffffffffffffffffffffffffffffffff168152602001908152602001600020819055508280600101935050611026565b84600b9080519060200190611115929190611e00565b5083600a819055506000600c8161112c9190611e8a565b506009600081548092919060010191905055506000600460006101000a81548173ffffffffffffffffffffffffffffffffffffffff021916908373ffffffffffffffffffffffffffffffffffffffff1602179055505b5b5050505050565b60116020528060005260406000206000915090505481565b6000600c80549050905090565b60006111ba33610753565b15156111c557600080fd5b6001600560003373ffffffffffffffffffffffffffffffffffffffff1673ffffffffffffffffffffffffffffffffffffffff1681526020019081526020016000205403905060008160020a60076000856000191660001916815260200190815260200160002054161415151561123a57600080fd5b8060020a1960076000846000191660001916815260200190815260200160002060008282541692505081905550600860008360001916600019168152602001908152602001600020600081548092919060019003919050555060006008600084600019166000191681526020019081526020016000205414156112c1576112c082611cd9565b5b5050565b600c818154811015156112d457fe5b90600052602060002090016000915090505481565b60086020528060005260406000206000915090505481565b60106020528060005260406000206000915090505481565b60005481565b6000600280549050905090565b60008060003373ffffffffffffffffffffffffffffffffffffffff16600460009054906101000a900473ffffffffffffffffffffffffffffffffffffffff1673ffffffffffffffffffffffffffffffffffffffff1614156116e9576000855111151561139757600080fd5b6101008551111515156113a957600080fd5b6000841115156113b857600080fd5b845184111515156113c857600080fd5b600092505b845183101561143657600073ffffffffffffffffffffffffffffffffffffffff1685848151811015156113fc57fe5b9060200190602002015173ffffffffffffffffffffffffffffffffffffffff161415151561142957600080fd5b82806001019350506113cd565b7fe62c04bb3499d4f432a50e07318d42861c4865afb22ee4cfe403d4f94550709060028660405180806020018060200183810383528581815481526020019150805480156114d957602002820191906000526020600020905b8160009054906101000a900473ffffffffffffffffffffffffffffffffffffffff1673ffffffffffffffffffffffffffffffffffffffff168152602001906001019080831161148f575b5050838103825284818151815260200191508051906020019060200280838360005b838110156115165780820151818401526020810190506114fb565b5050505090500194505050505060405180910390a1600092505b6002805490508310156115c7576005600060028581548110151561155057fe5b906000526020600020900160009054906101000a900473ffffffffffffffffffffffffffffffffffffffff1673ffffffffffffffffffffffffffffffffffffffff1673ffffffffffffffffffffffffffffffffffffffff168152602001908152602001600020600090558280600101935050611530565b600092505b84518310156116a55760006005600087868151811015156115e957fe5b9060200190602002015173ffffffffffffffffffffffffffffffffffffffff1673ffffffffffffffffffffffffffffffffffffffff1681526020019081526020016000205414151561163a57600080fd5b6001830160056000878681518110151561165057fe5b9060200190602002015173ffffffffffffffffffffffffffffffffffffffff1673ffffffffffffffffffffffffffffffffffffffff1681526020019081526020016000208190555082806001019350506115cc565b84600290805190602001906116bb929190611e00565b508360018190555060006003816116d29190611e8a565b506000808154809291906001019190505550611c7a565b6116f233610753565b15156116fd57600080fd5b6001600560003373ffffffffffffffffffffffffffffffffffffffff1673ffffffffffffffffffffffffffffffffffffffff1681526020019081526020016000205403915060003660005460405180848480828437820191505082815260200193505050506040518091039020905060006007600083600019166000191681526020019081526020016000205414156117e55760038054905060066000836000191660001916815260200190815260200160002081905550600380548060010182816117c99190611eb6565b9160005260206000209001600083909190915090600019169055505b60008260020a600760008460001916600019168152602001908152602001600020541614151561181457600080fd5b8160020a60076000836000191660001916815260200190815260200160002060008282541792505081905550600160086000836000191660001916815260200190815260200160002060008282540192505081905550600154600860008360001916600019168152602001908152602001600020541415611c795761189881611cd9565b33600460006101000a81548173ffffffffffffffffffffffffffffffffffffffff021916908373ffffffffffffffffffffffffffffffffffffffff160217905550600085511115156118e957600080fd5b6101008551111515156118fb57600080fd5b60008411151561190a57600080fd5b8451841115151561191a57600080fd5b600092505b845183101561198857600073ffffffffffffffffffffffffffffffffffffffff16858481518110151561194e57fe5b9060200190602002015173ffffffffffffffffffffffffffffffffffffffff161415151561197b57600080fd5b828060010193505061191f565b7fe62c04bb3499d4f432a50e07318d42861c4865afb22ee4cfe403d4f9455070906002866040518080602001806020018381038352858181548152602001915080548015611a2b57602002820191906000526020600020905b8160009054906101000a900473ffffffffffffffffffffffffffffffffffffffff1673ffffffffffffffffffffffffffffffffffffffff16815260200190600101908083116119e1575b5050838103825284818151815260200191508051906020019060200280838360005b83811015611a68578082015181840152602081019050611a4d565b5050505090500194505050505060405180910390a1600092505b600280549050831015611b195760056000600285815481101515611aa257fe5b906000526020600020900160009054906101000a900473ffffffffffffffffffffffffffffffffffffffff1673ffffffffffffffffffffffffffffffffffffffff1673ffffffffffffffffffffffffffffffffffffffff168152602001908152602001600020600090558280600101935050611a82565b600092505b8451831015611bf7576000600560008786815181101515611b3b57fe5b9060200190602002015173ffffffffffffffffffffffffffffffffffffffff1673ffffffffffffffffffffffffffffffffffffffff16815260200190815260200160002054141515611b8c57600080fd5b60018301600560008786815181101515611ba257fe5b9060200190602002015173ffffffffffffffffffffffffffffffffffffffff1673ffffffffffffffffffffffffffffffffffffffff168152602001908152602001600020819055508280600101935050611b1e565b8460029080519060200190611c0d929190611e00565b50836001819055506000600381611c249190611e8a565b5060008081548092919060010191905055506000600460006101000a81548173ffffffffffffffffffffffffffffffffffffffff021916908373ffffffffffffffffffffffffffffffffffffffff1602179055505b5b5050505050565b6000600b80549050905090565b600080600e60008473ffffffffffffffffffffffffffffffffffffffff1673ffffffffffffffffffffffffffffffffffffffff16815260200190815260200160002054119050919050565b6000600660008360001916600019168152602001908152602001600020549050600160038054905003811015611d89576003600160038054905003815481101515611d2057fe5b906000526020600020900154600382815481101515611d3b57fe5b906000526020600020900181600019169055508060066000600384815481101515611d6257fe5b90600052602060002090015460001916600019168152602001908152602001600020819055505b6003805480919060019003611d9e9190611e8a565b506007600083600019166000191681526020019081526020016000206000905560086000836000191660001916815260200190815260200160002060009055600660008360001916600019168152602001908152602001600020600090555050565b828054828255906000526020600020908101928215611e79579160200282015b82811115611e785782518260006101000a81548173ffffffffffffffffffffffffffffffffffffffff021916908373ffffffffffffffffffffffffffffffffffffffff16021790555091602001919060010190611e20565b5b509050611e869190611ee2565b5090565b815481835581811511611eb157818360005260206000209182019101611eb09190611f25565b5b505050565b815481835581811511611edd57818360005260206000209182019101611edc9190611f25565b5b505050565b611f2291905b80821115611f1e57600081816101000a81549073ffffffffffffffffffffffffffffffffffffffff021916905550600101611ee8565b5090565b90565b611f4791905b80821115611f43576000816000905550600101611f2b565b5090565b905600a165627a7a72305820e9ebcddc6a838812b829e3d18348784dad9ddc04981fd703de865ca004e062b40029",
  "source": "pragma solidity 0.4.18;\n\nimport \"./Multiownable.sol\";\n\n\ncontract Validatable is Multiownable {\n\n    uint256 public validatorsGeneration;\n    uint256 public howManyValidatorsDecide;\n    address[] public validators;\n    bytes32[] public allValidatorsOperations;\n    address internal insideOnlyManyValidators;\n\n    // Reverse lookup tables for validators and allValidatorsOperations\n    mapping(address => uint) validatorsIndices; // Starts from 1\n    mapping(bytes32 => uint) allValidatorsOperationsIndicies;\n\n    // Validators voting mask per operations\n    mapping(bytes32 => uint256) public votesMaskByValidatorOperation;\n    mapping(bytes32 => uint256) public votesCountByValidatorOperation;\n\n    // EVENTS\n\n    event ValidatorRightsTransferred(address[] previousValidators, address[] newValidators);\n\n    // ACCESSORS\n\n    function isValidator(address wallet) public constant returns(bool) {\n        return validatorsIndices[wallet] > 0;\n    }\n\n    function validatorsCount() public constant returns(uint) {\n        return validators.length;\n    }\n\n    function allValidatorsOperationsCount() public constant returns(uint) {\n        return allValidatorsOperations.length;\n    }\n\n    // MODIFIERS\n\n    /**\n    * @dev Allows to perform method by any of the validators\n    */\n    modifier onlyAnyValidator {\n        require(isValidator(msg.sender));\n        _;\n    }\n\n    /**\n    * @dev Allows to perform method only after all Validators call it with the same arguments\n    */\n    modifier onlyManyValidators {\n        if (insideOnlyManyValidators == msg.sender) {\n            _;\n            return;\n        }\n        require(isValidator(msg.sender));\n\n        uint validatorIndex = validatorsIndices[msg.sender] - 1;\n        bytes32 operation = keccak256(msg.data, validatorsGeneration);\n\n        if (votesMaskByValidatorOperation[operation] == 0) {\n            allValidatorsOperationsIndicies[operation] = allOperations.length;\n            allValidatorsOperations.push(operation);\n        }\n        require((votesMaskByValidatorOperation[operation] & (2 ** validatorIndex)) == 0);\n        votesMaskByValidatorOperation[operation] |= (2 ** validatorIndex);\n        votesCountByValidatorOperation[operation] += 1;\n\n        // If all validators confirm same operation\n        if (votesCountByValidatorOperation[operation] == howManyValidatorsDecide) {\n            deleteValidatorOperation(operation);\n            insideOnlyManyValidators = msg.sender;\n            _;\n            insideOnlyManyValidators = address(0);\n        }\n    }\n\n    // CONSTRUCTOR\n\n    function Validatable(address[] _validators) public {\n        transferValidatorRights(_validators);\n    }\n\n    // INTERNAL METHODS\n\n    /**\n    * @dev Used to delete cancelled or performed operation\n    * @param operation defines which operation to delete\n    */\n    function deleteValidatorOperation(bytes32 operation) internal {\n        uint index = allValidatorsOperationsIndicies[operation];\n        if (index < allValidatorsOperations.length - 1) {\n            allValidatorsOperations[index] = allValidatorsOperations[allValidatorsOperations.length - 1];\n            allValidatorsOperationsIndicies[allValidatorsOperations[index]] = index;\n        }\n        allValidatorsOperations.length--;\n\n        delete votesMaskByValidatorOperation[operation];\n        delete votesCountByValidatorOperation[operation];\n        delete allValidatorsOperationsIndicies[operation];\n    }\n\n    // PUBLIC METHODS\n\n    /**\n    * @dev Allows owners to change Validators\n    * @param newValidators defines array of addresses of new Validators\n    */\n    function transferValidatorRights(address[] newValidators) public {\n        transferValidatorRightsWithHowMany(newValidators, newValidators.length);\n    }\n\n    /**\n    * @dev Allows owners to change validators\n    * @param newValidators defines array of addresses of new validators\n    * @param newHowManyValidatorsDecide defines how many validators can decide\n    */\n    function transferValidatorRightsWithHowMany(address[] newValidators, uint256 newHowManyValidatorsDecide) public onlyManyOwners {\n        require(newValidators.length > 0);\n        require(newValidators.length <= 256);\n        require(newHowManyValidatorsDecide > 0);\n        require(newHowManyValidatorsDecide <= newValidators.length);\n        for (uint i = 0; i < newValidators.length; i++) {\n            require(newValidators[i] != address(0));\n        }\n\n        ValidatorRightsTransferred(validators, newValidators);\n\n        // Reset validators array and index reverse lookup table\n        for (i = 0; i < validators.length; i++) {\n            delete validatorsIndices[validators[i]];\n        }\n        for (i = 0; i < newValidators.length; i++) {\n            require(validatorsIndices[newValidators[i]] == 0);\n            validatorsIndices[newValidators[i]] = i + 1;\n        }\n        validators = newValidators;\n        howManyValidatorsDecide = newHowManyValidatorsDecide;\n        allValidatorsOperations.length = 0;\n        validatorsGeneration++;\n    }\n\n\n}",
  "sourcePath": "/home/dzentota/www/swether/contracts/Validatable.sol",
  "compiler": {
    "name": "solc",
    "version": "0.4.18+commit.9cf6e910.Emscripten.clang"
  },
  "schemaVersion": "1.0.1",
  "updatedAt": "2018-04-21T21:35:50.291Z"
}