{
  "contractName": "Verifiable",
  "abi": [
    {
      "constant": true,
      "inputs": [],
      "name": "signPrefix",
      "outputs": [
        {
          "name": "",
          "type": "string"
        }
      ],
      "payable": false,
      "stateMutability": "view",
      "type": "function"
    },
    {
      "constant": true,
      "inputs": [
        {
          "name": "_id",
          "type": "string"
        },
        {
          "name": "_value",
          "type": "uint256"
        },
        {
          "name": "_channel",
          "type": "address"
        }
      ],
      "name": "prefixedParamsHash",
      "outputs": [
        {
          "name": "",
          "type": "bytes32"
        }
      ],
      "payable": false,
      "stateMutability": "view",
      "type": "function"
    },
    {
      "constant": true,
      "inputs": [
        {
          "name": "signerAddress",
          "type": "address"
        },
        {
          "name": "_id",
          "type": "string"
        },
        {
          "name": "_value",
          "type": "uint256"
        },
        {
          "name": "_channel",
          "type": "address"
        },
        {
          "name": "v",
          "type": "uint8"
        },
        {
          "name": "r",
          "type": "bytes32"
        },
        {
          "name": "s",
          "type": "bytes32"
        }
      ],
      "name": "isVoucherSigner",
      "outputs": [
        {
          "name": "",
          "type": "bool"
        }
      ],
      "payable": false,
      "stateMutability": "view",
      "type": "function"
    },
    {
      "constant": true,
      "inputs": [
        {
          "name": "_id",
          "type": "string"
        },
        {
          "name": "_value",
          "type": "uint256"
        },
        {
          "name": "_channel",
          "type": "address"
        },
        {
          "name": "v",
          "type": "uint8"
        },
        {
          "name": "r",
          "type": "bytes32"
        },
        {
          "name": "s",
          "type": "bytes32"
        }
      ],
      "name": "getVoucherSigner",
      "outputs": [
        {
          "name": "",
          "type": "address"
        }
      ],
      "payable": false,
      "stateMutability": "view",
      "type": "function"
    }
  ],
  "bytecode": "0x60606040526040805190810160405280601381526020017f5369676e656420666f7220537765746865723a000000000000000000000000008152506000908051906020019061004f929190610060565b50341561005b57600080fd5b610105565b828054600181600116156101000203166002900490600052602060002090601f016020900481019282601f106100a157805160ff19168380011785556100cf565b828001600101855582156100cf579182015b828111156100ce5782518255916020019190600101906100b3565b5b5090506100dc91906100e0565b5090565b61010291905b808211156100fe5760008160009055506001016100e6565b5090565b90565b610641806101146000396000f300606060405260043610610062576000357c0100000000000000000000000000000000000000000000000000000000900463ffffffff1680635af2800c14610067578063a5d5bfb8146100f5578063d222097114610196578063eb278bd814610278575b600080fd5b341561007257600080fd5b61007a610363565b6040518080602001828103825283818151815260200191508051906020019080838360005b838110156100ba57808201518184015260208101905061009f565b50505050905090810190601f1680156100e75780820380516001836020036101000a031916815260200191505b509250505060405180910390f35b341561010057600080fd5b610178600480803590602001908201803590602001908080601f0160208091040260200160405190810160405280939291908181526020018383808284378201915050505050509190803590602001909190803573ffffffffffffffffffffffffffffffffffffffff16906020019091905050610401565b60405180826000191660001916815260200191505060405180910390f35b34156101a157600080fd5b61025e600480803573ffffffffffffffffffffffffffffffffffffffff1690602001909190803590602001908201803590602001908080601f0160208091040260200160405190810160405280939291908181526020018383808284378201915050505050509190803590602001909190803573ffffffffffffffffffffffffffffffffffffffff1690602001909190803560ff16906020019091908035600019169060200190919080356000191690602001909190505061051b565b604051808215151515815260200191505060405180910390f35b341561028357600080fd5b610321600480803590602001908201803590602001908080601f0160208091040260200160405190810160405280939291908181526020018383808284378201915050505050509190803590602001909190803573ffffffffffffffffffffffffffffffffffffffff1690602001909190803560ff16906020019091908035600019169060200190919080356000191690602001909190505061056b565b604051808273ffffffffffffffffffffffffffffffffffffffff1673ffffffffffffffffffffffffffffffffffffffff16815260200191505060405180910390f35b60008054600181600116156101000203166002900480601f0160208091040260200160405190810160405280929190818152602001828054600181600116156101000203166002900480156103f95780601f106103ce576101008083540402835291602001916103f9565b820191906000526020600020905b8154815290600101906020018083116103dc57829003601f168201915b505050505081565b600080600085858560405180858054600181600116156101000203166002900480156104645780601f10610442576101008083540402835291820191610464565b820191906000526020600020905b815481529060010190602001808311610450575b505084805190602001908083835b6020831015156104975780518252602082019150602081019050602083039250610472565b6001836020036101000a0380198251168184511680821785525050505050509050018381526020018273ffffffffffffffffffffffffffffffffffffffff1673ffffffffffffffffffffffffffffffffffffffff166c0100000000000000000000000002815260140194505050505060405180910390209050809150509392505050565b60008061052c88888888888861056b565b90508873ffffffffffffffffffffffffffffffffffffffff168173ffffffffffffffffffffffffffffffffffffffff1614915050979650505050505050565b600080600061057b898989610401565b9150600182878787604051600081526020016040526000604051602001526040518085600019166000191681526020018460ff1660ff16815260200183600019166000191681526020018260001916600019168152602001945050505050602060405160208103908084039060008661646e5a03f115156105fb57600080fd5b5050602060405103519050809250505096955050505050505600a165627a7a7230582042432135ef7ccbdc24305c68656949f0e82a537b80408714402a8ab9511831eb0029",
  "source": "pragma solidity 0.4.18;\n\n\ncontract Verifiable {\n\n    /**\n     * to ensure the signatures for this contract cannot be\n     * replayed somewhere else, we add this prefix to the signed hash\n     */\n    string public signPrefix = \"Signed for Swether:\";\n\n    function prefixedParamsHash(\n        string _id, uint256 _value, address _channel\n    ) public constant returns(bytes32) {\n        bytes32 hash = keccak256(\n            signPrefix,\n            _id,\n            _value,\n            _channel\n        );\n        return hash;\n    }\n\n\n    function getVoucherSigner(string _id, uint256 _value, address _channel, uint8 v, bytes32 r, bytes32 s) public constant returns(address)\n    {\n        bytes32 mustBeSigned = prefixedParamsHash(_id, _value, _channel);\n        address signer = ecrecover(\n            mustBeSigned,\n            v, r, s\n        );\n\n        return signer;\n    }\n\n    function isVoucherSigner(address signerAddress, string _id, uint256 _value, address _channel, uint8 v, bytes32 r, bytes32 s) public constant returns(bool)\n    {\n        address signer = getVoucherSigner(_id, _value, _channel, v, r, s);\n        return signer == signerAddress;\n    }\n}\n",
  "sourcePath": "/home/dzentota/www/swether/contracts/Verifiable.sol",
  "compiler": {
    "name": "solc",
    "version": "0.4.18+commit.9cf6e910.Emscripten.clang"
  },
  "schemaVersion": "1.0.1",
  "updatedAt": "2018-04-21T22:39:01.613Z"
}