{
  "contractName": "Verifier",
  "abi": [
    {
      "constant": true,
      "inputs": [],
      "name": "signPrefix",
      "outputs": [
        {
          "name": "",
          "type": "string"
        }
      ],
      "payable": false,
      "stateMutability": "view",
      "type": "function"
    },
    {
      "constant": true,
      "inputs": [
        {
          "name": "receiver",
          "type": "address"
        },
        {
          "name": "v",
          "type": "uint8"
        },
        {
          "name": "r",
          "type": "bytes32"
        },
        {
          "name": "s",
          "type": "bytes32"
        }
      ],
      "name": "getSigner",
      "outputs": [
        {
          "name": "",
          "type": "address"
        }
      ],
      "payable": false,
      "stateMutability": "view",
      "type": "function"
    },
    {
      "constant": true,
      "inputs": [
        {
          "name": "_addr",
          "type": "address"
        },
        {
          "name": "msgHash",
          "type": "bytes32"
        },
        {
          "name": "v",
          "type": "uint8"
        },
        {
          "name": "r",
          "type": "bytes32"
        },
        {
          "name": "s",
          "type": "bytes32"
        }
      ],
      "name": "isSigned",
      "outputs": [
        {
          "name": "",
          "type": "bool"
        }
      ],
      "payable": false,
      "stateMutability": "pure",
      "type": "function"
    },
    {
      "constant": true,
      "inputs": [
        {
          "name": "_id",
          "type": "string"
        },
        {
          "name": "_value",
          "type": "uint256"
        },
        {
          "name": "_channel",
          "type": "address"
        },
        {
          "name": "paramsHash",
          "type": "bytes32"
        },
        {
          "name": "v",
          "type": "uint8"
        },
        {
          "name": "r",
          "type": "bytes32"
        },
        {
          "name": "s",
          "type": "bytes32"
        }
      ],
      "name": "check",
      "outputs": [
        {
          "name": "",
          "type": "address"
        }
      ],
      "payable": false,
      "stateMutability": "pure",
      "type": "function"
    },
    {
      "constant": true,
      "inputs": [
        {
          "name": "receiver",
          "type": "address"
        }
      ],
      "name": "prefixedHash",
      "outputs": [
        {
          "name": "",
          "type": "bytes32"
        }
      ],
      "payable": false,
      "stateMutability": "view",
      "type": "function"
    },
    {
      "constant": false,
      "inputs": [
        {
          "name": "_id",
          "type": "string"
        },
        {
          "name": "_value",
          "type": "uint256"
        },
        {
          "name": "_channel",
          "type": "address"
        }
      ],
      "name": "getSha",
      "outputs": [
        {
          "name": "",
          "type": "bytes32"
        }
      ],
      "payable": false,
      "stateMutability": "nonpayable",
      "type": "function"
    },
    {
      "constant": true,
      "inputs": [
        {
          "name": "_id",
          "type": "string"
        },
        {
          "name": "_value",
          "type": "uint256"
        },
        {
          "name": "_channel",
          "type": "address"
        }
      ],
      "name": "getHash",
      "outputs": [
        {
          "name": "",
          "type": "bytes32"
        }
      ],
      "payable": false,
      "stateMutability": "pure",
      "type": "function"
    },
    {
      "constant": true,
      "inputs": [
        {
          "name": "msgHash",
          "type": "bytes32"
        },
        {
          "name": "v",
          "type": "uint8"
        },
        {
          "name": "r",
          "type": "bytes32"
        },
        {
          "name": "s",
          "type": "bytes32"
        }
      ],
      "name": "recoverAddr",
      "outputs": [
        {
          "name": "",
          "type": "address"
        }
      ],
      "payable": false,
      "stateMutability": "pure",
      "type": "function"
    },
    {
      "constant": true,
      "inputs": [
        {
          "name": "msgHash",
          "type": "bytes32"
        }
      ],
      "name": "getPrefixedHash",
      "outputs": [
        {
          "name": "",
          "type": "bytes32"
        }
      ],
      "payable": false,
      "stateMutability": "pure",
      "type": "function"
    }
  ],
  "bytecode": "0x60606040526040805190810160405280601781526020017f5369676e656420666f7220446f6e6174696f6e4261673a0000000000000000008152506000908051906020019061004f929190610060565b50341561005b57600080fd5b610105565b828054600181600116156101000203166002900490600052602060002090601f016020900481019282601f106100a157805160ff19168380011785556100cf565b828001600101855582156100cf579182015b828111156100ce5782518255916020019190600101906100b3565b5b5090506100dc91906100e0565b5090565b61010291905b808211156100fe5760008160009055506001016100e6565b5090565b90565b610d34806101146000396000f300606060405260043610610099576000357c0100000000000000000000000000000000000000000000000000000000900463ffffffff1680635af2800c1461009e578063718c4bfc1461012c5780638677ebe8146101cb5780638c5aa58a1461024f578063a40f179614610347578063c0ee3da41461039c578063c900c7bc1461043d578063e5df669f146104de578063f49488361461056b575b600080fd5b34156100a957600080fd5b6100b16105ae565b6040518080602001828103825283818151815260200191508051906020019080838360005b838110156100f15780820151818401526020810190506100d6565b50505050905090810190601f16801561011e5780820380516001836020036101000a031916815260200191505b509250505060405180910390f35b341561013757600080fd5b610189600480803573ffffffffffffffffffffffffffffffffffffffff1690602001909190803560ff16906020019091908035600019169060200190919080356000191690602001909190505061064c565b604051808273ffffffffffffffffffffffffffffffffffffffff1673ffffffffffffffffffffffffffffffffffffffff16815260200191505060405180910390f35b34156101d657600080fd5b610235600480803573ffffffffffffffffffffffffffffffffffffffff169060200190919080356000191690602001909190803560ff1690602001909190803560001916906020019091908035600019169060200190919050506106f2565b604051808215151515815260200191505060405180910390f35b341561025a57600080fd5b610305600480803590602001908201803590602001908080601f0160208091040260200160405190810160405280939291908181526020018383808284378201915050505050509190803590602001909190803573ffffffffffffffffffffffffffffffffffffffff169060200190919080356000191690602001909190803560ff1690602001909190803560001916906020019091908035600019169060200190919050506107b4565b604051808273ffffffffffffffffffffffffffffffffffffffff1673ffffffffffffffffffffffffffffffffffffffff16815260200191505060405180910390f35b341561035257600080fd5b61037e600480803573ffffffffffffffffffffffffffffffffffffffff1690602001909190505061087d565b60405180826000191660001916815260200191505060405180910390f35b34156103a757600080fd5b61041f600480803590602001908201803590602001908080601f0160208091040260200160405190810160405280939291908181526020018383808284378201915050505050509190803590602001909190803573ffffffffffffffffffffffffffffffffffffffff1690602001909190505061097b565b60405180826000191660001916815260200191505060405180910390f35b341561044857600080fd5b6104c0600480803590602001908201803590602001908080601f0160208091040260200160405190810160405280939291908181526020018383808284378201915050505050509190803590602001909190803573ffffffffffffffffffffffffffffffffffffffff16906020019091905050610a34565b60405180826000191660001916815260200191505060405180910390f35b34156104e957600080fd5b61052960048080356000191690602001909190803560ff169060200190919080356000191690602001909190803560001916906020019091905050610ba4565b604051808273ffffffffffffffffffffffffffffffffffffffff1673ffffffffffffffffffffffffffffffffffffffff16815260200191505060405180910390f35b341561057657600080fd5b610590600480803560001916906020019091905050610c37565b60405180826000191660001916815260200191505060405180910390f35b60008054600181600116156101000203166002900480601f0160208091040260200160405190810160405280929190818152602001828054600181600116156101000203166002900480156106445780601f1061061957610100808354040283529160200191610644565b820191906000526020600020905b81548152906001019060200180831161062757829003601f168201915b505050505081565b600080600061065a8761087d565b9150600182878787604051600081526020016040526000604051602001526040518085600019166000191681526020018460ff1660ff16815260200183600019166000191681526020018260001916600019168152602001945050505050602060405160208103908084039060008661646e5a03f115156106da57600080fd5b50506020604051035190508092505050949350505050565b60008573ffffffffffffffffffffffffffffffffffffffff16600186868686604051600081526020016040526000604051602001526040518085600019166000191681526020018460ff1660ff16815260200183600019166000191681526020018260001916600019168152602001945050505050602060405160208103908084039060008661646e5a03f1151561078957600080fd5b50506020604051035173ffffffffffffffffffffffffffffffffffffffff1614905095945050505050565b60008060006107c48a8a8a610a34565b91506107cf82610c37565b9050866000191681600019161415156107e757600080fd5b600181878787604051600081526020016040526000604051602001526040518085600019166000191681526020018460ff1660ff16815260200183600019166000191681526020018260001916600019168152602001945050505050602060405160208103908084039060008661646e5a03f1151561086557600080fd5b50506020604051035192505050979650505050505050565b6000806000308460405180848054600181600116156101000203166002900480156108df5780601f106108bd5761010080835404028352918201916108df565b820191906000526020600020905b8154815290600101906020018083116108cb575b50508373ffffffffffffffffffffffffffffffffffffffff1673ffffffffffffffffffffffffffffffffffffffff166c010000000000000000000000000281526014018273ffffffffffffffffffffffffffffffffffffffff1673ffffffffffffffffffffffffffffffffffffffff166c0100000000000000000000000002815260140193505050506040518091039020905080915050919050565b60008383836040518084805190602001908083835b6020831015156109b55780518252602082019150602081019050602083039250610990565b6001836020036101000a0380198251168184511680821785525050505050509050018381526020018273ffffffffffffffffffffffffffffffffffffffff1673ffffffffffffffffffffffffffffffffffffffff166c010000000000000000000000000281526014019350505050604051809103902090509392505050565b60008060405180807f737472696e6720766f75636865725f6964000000000000000000000000000000815250601101807f75696e742076616c756500000000000000000000000000000000000000000000815250600a01807f61646472657373206368616e6e656c0000000000000000000000000000000000815250600f01905060405180910390208585856040518084805190602001908083835b602083101515610af55780518252602082019150602081019050602083039250610ad0565b6001836020036101000a0380198251168184511680821785525050505050509050018381526020018273ffffffffffffffffffffffffffffffffffffffff1673ffffffffffffffffffffffffffffffffffffffff166c010000000000000000000000000281526014019350505050604051809103902060405180836000191660001916815260200182600019166000191681526020019250505060405180910390209050809150509392505050565b6000600185858585604051600081526020016040526000604051602001526040518085600019166000191681526020018460ff1660ff16815260200183600019166000191681526020018260001916600019168152602001945050505050602060405160208103908084039060008661646e5a03f11515610c2457600080fd5b5050602060405103519050949350505050565b6000610c41610cf4565b6040805190810160405280601c81526020017f19457468657265756d205369676e6564204d6573736167653a0a333200000000815250905080836040518083805190602001908083835b602083101515610cb05780518252602082019150602081019050602083039250610c8b565b6001836020036101000a0380198251168184511680821785525050505050509050018260001916600019168152602001925050506040518091039020915050919050565b6020604051908101604052806000815250905600a165627a7a72305820e87219e0b38ec74400605670a3a430dda5e23c536f92cdca99fe465331bb46620029",
  "source": "pragma solidity 0.4.18;\n\n\ncontract Verifier {\n\n    /**\n     * to ensure the signatures for this contract cannot be\n     * replayed somewhere else, we add this prefix to the signed hash\n     */\n    string public signPrefix = \"Signed for DonationBag:\";\n\n    /**\n     * generates a prefixed hash of the address\n     * We hash the following together:\n     * - signPrefix\n     * - address of this contract\n     * - the recievers-address\n     */\n    function prefixedHash(\n    address receiver\n    ) public constant returns(bytes32) {\n        bytes32 hash = keccak256(\n        signPrefix,\n        address(this),\n        receiver\n        );\n        return hash;\n    }\n\n    /**\n     * validates if the signature is valid\n     * by checking if the correct message was signed\n     */\n    function getSigner(\n    address receiver,\n    uint8 v,\n    bytes32 r,\n    bytes32 s\n    ) public constant returns (address) {\n        bytes32 mustBeSigned = prefixedHash(receiver);\n        address signer = ecrecover(\n        mustBeSigned,\n        v, r, s\n        );\n\n        return signer;\n    }\n\n    function recoverAddr(bytes32 msgHash, uint8 v, bytes32 r, bytes32 s) public pure returns (address) {\n        return ecrecover(msgHash, v, r, s);\n    }\n\n    function isSigned(address _addr, bytes32 msgHash, uint8 v, bytes32 r, bytes32 s) public pure returns (bool) {\n        return ecrecover(msgHash, v, r, s) == _addr;\n    }\n\n    function check(string _id, uint256 _value, address _channel, bytes32 paramsHash, uint8 v, bytes32 r, bytes32 s) public pure returns(address) {\n        bytes32 msgHash = getHash(_id, _value, _channel);\n        bytes32 prefixedHash = getPrefixedHash(msgHash);\n        require(prefixedHash == paramsHash);\n        return ecrecover(prefixedHash, v, r, s);\n    }\n\n    function getHash(string _id, uint256 _value, address _channel) public pure returns (bytes32) {\n        bytes32 msgHash = keccak256(\n        keccak256(\n        'string voucher_id',\n        'uint value',\n        'address channel'\n        ),\n        keccak256(\n        _id,\n        _value,\n        _channel\n        )\n        );\n        return msgHash;\n    }\n\n    function getSha(string _id, uint256 _value, address _channel) returns (bytes32){\n        return keccak256(_id,\n    _value,\n    _channel);\n    }\n\n    function getPrefixedHash(bytes32 msgHash) public pure returns (bytes32) {\n        bytes memory prefix = \"\\x19Ethereum Signed Message:\\n32\";\n        return  keccak256(prefix, msgHash);\n    }\n}",
  "sourcePath": "/home/dzentota/www/swether/contracts/Verifier.sol",
  "compiler": {
    "name": "solc",
    "version": "0.4.18+commit.9cf6e910.Emscripten.clang"
  },
  "schemaVersion": "1.0.1",
  "updatedAt": "2018-04-21T21:35:56.852Z"
}